{
  "contractName": "LibEIP712",
  "abi": [
    {
      "constant": true,
      "inputs": [],
      "name": "EIP712_DOMAIN_HASH",
      "outputs": [
        {
          "name": "",
          "type": "bytes32"
        }
      ],
      "payable": false,
      "stateMutability": "view",
      "type": "function"
    },
    {
      "inputs": [],
      "payable": false,
      "stateMutability": "nonpayable",
      "type": "constructor"
    }
  ],
  "bytecode": "0x608060405234801561001057600080fd5b5060405160200180807f454950373132446f6d61696e2800000000000000000000000000000000000000815250600d01807f737472696e67206e616d652c0000000000000000000000000000000000000000815250600c01807f737472696e672076657273696f6e2c0000000000000000000000000000000000815250600f01807f6164647265737320766572696679696e67436f6e747261637400000000000000815250601901807f29000000000000000000000000000000000000000000000000000000000000008152506001019050604051602081830303815290604052805190602001206040518060400160405280600b81526020017f30782050726f746f636f6c000000000000000000000000000000000000000000815250805190602001206040518060400160405280600181526020017f3200000000000000000000000000000000000000000000000000000000000000815250805190602001203073ffffffffffffffffffffffffffffffffffffffff166040516020018085815260200184815260200183815260200182815260200194505050505060405160208183030381529060405280519060200120600081905550607b806101d86000396000f3fe6080604052348015600f57600080fd5b506004361060285760003560e01c8063e306f77914602d575b600080fd5b60336049565b6040518082815260200191505060405180910390f35b6000548156fea165627a7a7230582067f8a7c5ddfd6f811b057be058d1a42badf107871ca1d151f493d7e5dc763fbd0029",
  "source": "/*\n\n  Copyright 2018 ZeroEx Intl.\n\n  Licensed under the Apache License, Version 2.0 (the \"License\");\n  you may not use this file except in compliance with the License.\n  You may obtain a copy of the License at\n\n    http://www.apache.org/licenses/LICENSE-2.0\n\n  Unless required by applicable law or agreed to in writing, software\n  distributed under the License is distributed on an \"AS IS\" BASIS,\n  WITHOUT WARRANTIES OR CONDITIONS OF ANY KIND, either express or implied.\n  See the License for the specific language governing permissions and\n  limitations under the License.\n\n*/\n\npragma solidity ^0.5.5;\n\n\ncontract LibEIP712 {\n\n    // EIP191 header for EIP712 prefix\n    string constant internal EIP191_HEADER = \"\\x19\\x01\";\n\n    // EIP712 Domain Name value\n    string constant internal EIP712_DOMAIN_NAME = \"0x Protocol\";\n\n    // EIP712 Domain Version value\n    string constant internal EIP712_DOMAIN_VERSION = \"2\";\n\n    // Hash of the EIP712 Domain Separator Schema\n    bytes32 constant internal EIP712_DOMAIN_SEPARATOR_SCHEMA_HASH = keccak256(abi.encodePacked(\n        \"EIP712Domain(\",\n        \"string name,\",\n        \"string version,\",\n        \"address verifyingContract\",\n        \")\"\n    ));\n\n    // Hash of the EIP712 Domain Separator data\n    // solhint-disable-next-line var-name-mixedcase\n    bytes32 public EIP712_DOMAIN_HASH;\n\n    constructor ()\n        public\n    {\n        EIP712_DOMAIN_HASH = keccak256(abi.encodePacked(\n            EIP712_DOMAIN_SEPARATOR_SCHEMA_HASH,\n            keccak256(bytes(EIP712_DOMAIN_NAME)),\n            keccak256(bytes(EIP712_DOMAIN_VERSION)),\n            uint256(address(this))\n        ));\n    }\n\n    /// @dev Calculates EIP712 encoding for a hash struct in this EIP712 Domain.\n    /// @param hashStruct The EIP712 hash struct.\n    /// @return EIP712 hash applied to this EIP712 Domain.\n    function hashEIP712Message(bytes32 hashStruct)\n        internal\n        view\n        returns (bytes32 result)\n    {\n        bytes32 eip712DomainHash = EIP712_DOMAIN_HASH;\n\n        // Assembly for more efficient computing:\n        // keccak256(abi.encodePacked(\n        //     EIP191_HEADER,\n        //     EIP712_DOMAIN_HASH,\n        //     hashStruct    \n        // ));\n\n        assembly {\n            // Load free memory pointer\n            let memPtr := mload(64)\n\n            mstore(memPtr, 0x1901000000000000000000000000000000000000000000000000000000000000)  // EIP191 header\n            mstore(add(memPtr, 2), eip712DomainHash)                                            // EIP712 domain hash\n            mstore(add(memPtr, 34), hashStruct)                                                 // Hash of struct\n\n            // Compute hash\n            result := keccak256(memPtr, 66)\n        }\n        return result;\n    }\n}\n",
  "sourcePath": "@0x/contracts-exchange-libs/contracts/src/LibEIP712.sol",
  "compiler": {
    "name": "solc",
    "version": "0.5.5+commit.47a71e8f.Emscripten.clang"
  },
  "schemaVersion": "3.0.10",
  "updatedAt": "2019-08-04T18:47:57.981Z",
  "devdoc": {
    "methods": {}
  },
  "userdoc": {
    "methods": {}
  }
}