{
  "contractName": "Ownable",
  "abi": [
    {
      "constant": true,
      "inputs": [],
      "name": "owner2",
      "outputs": [
        {
          "name": "",
          "type": "address"
        }
      ],
      "payable": false,
      "stateMutability": "view",
      "type": "function"
    },
    {
      "constant": true,
      "inputs": [],
      "name": "owner1",
      "outputs": [
        {
          "name": "",
          "type": "address"
        }
      ],
      "payable": false,
      "stateMutability": "view",
      "type": "function"
    },
    {
      "inputs": [],
      "payable": false,
      "stateMutability": "nonpayable",
      "type": "constructor"
    },
    {
      "constant": false,
      "inputs": [
        {
          "name": "newOwner",
          "type": "address"
        }
      ],
      "name": "transferOwnership1",
      "outputs": [],
      "payable": false,
      "stateMutability": "nonpayable",
      "type": "function"
    },
    {
      "constant": false,
      "inputs": [
        {
          "name": "newOwner",
          "type": "address"
        }
      ],
      "name": "transferOwnership2",
      "outputs": [],
      "payable": false,
      "stateMutability": "nonpayable",
      "type": "function"
    }
  ],
  "bytecode": "0x608060405234801561001057600080fd5b5060008054336001600160a01b0319918216811783556001805490921617905561027e90819061004090396000f3fe608060405234801561001057600080fd5b506004361061004c5760003560e01c806352709725146100515780637368891414610075578063e2b375a91461007d578063e982d5a9146100a5575b600080fd5b6100596100cb565b604080516001600160a01b039092168252519081900360200190f35b6100596100da565b6100a36004803603602081101561009357600080fd5b50356001600160a01b03166100e9565b005b6100a3600480360360208110156100bb57600080fd5b50356001600160a01b031661019d565b6001546001600160a01b031681565b6000546001600160a01b031681565b6000546001600160a01b031633148061010c57506001546001600160a01b031633145b15156101625760408051600160e51b62461bcd02815260206004820152601360248201527f4f4e4c595f434f4e54524143545f4f574e455200000000000000000000000000604482015290519081900360640190fd5b6001600160a01b0381161561019a576001805473ffffffffffffffffffffffffffffffffffffffff19166001600160a01b0383161790555b50565b6000546001600160a01b03163314806101c057506001546001600160a01b031633145b15156102165760408051600160e51b62461bcd02815260206004820152601360248201527f4f4e4c595f434f4e54524143545f4f574e455200000000000000000000000000604482015290519081900360640190fd5b6001600160a01b0381161561019a57600080546001600160a01b03831673ffffffffffffffffffffffffffffffffffffffff199091161790555056fea165627a7a7230582062cf6ad89e9eccdb91412f1f12475bdf0e7d879ed99892e0839da16c624b05790029",
  "source": "// Adaped from \"@0x/contracts-utils/contracts/src/Ownable.sol\";\n\npragma solidity ^0.5.5;\n\nimport \"./IOwnable.sol\";\n\n\ncontract Ownable is\n    IOwnable\n{\n    address public owner1;\n    address public owner2;\n\n    constructor ()\n        public\n    {\n        owner1 = msg.sender;\n        owner2 = msg.sender;\n    }\n\n    modifier onlyOwner() {\n        require(\n            (msg.sender == owner1) || (msg.sender == owner2),\n            \"ONLY_CONTRACT_OWNER\"\n        );\n        _;\n    }\n\n    function transferOwnership1(address newOwner)\n        public\n        onlyOwner\n    {\n        if (newOwner != address(0)) {\n            owner1 = newOwner;\n        }\n    }\n\n    function transferOwnership2(address newOwner)\n        public\n        onlyOwner\n    {\n        if (newOwner != address(0)) {\n            owner2 = newOwner;\n        }\n    }\n\n}\n",
  "sourcePath": "/Users/lauren/github/registry-contract/contracts/Ownable.sol",
  "compiler": {
    "name": "solc",
    "version": "0.5.5+commit.47a71e8f.Emscripten.clang"
  },
  "schemaVersion": "3.0.10",
  "updatedAt": "2020-03-09T19:40:19.052Z",
  "devdoc": {
    "methods": {}
  },
  "userdoc": {
    "methods": {}
  }
}