{
  "contractName": "Registry",
  "abi": [
    {
      "constant": true,
      "inputs": [
        {
          "name": "",
          "type": "address"
        }
      ],
      "name": "isWhitelisted",
      "outputs": [
        {
          "name": "",
          "type": "bool"
        }
      ],
      "payable": false,
      "stateMutability": "view",
      "type": "function"
    },
    {
      "constant": true,
      "inputs": [],
      "name": "owner2",
      "outputs": [
        {
          "name": "",
          "type": "address"
        }
      ],
      "payable": false,
      "stateMutability": "view",
      "type": "function"
    },
    {
      "constant": true,
      "inputs": [],
      "name": "paused",
      "outputs": [
        {
          "name": "",
          "type": "bool"
        }
      ],
      "payable": false,
      "stateMutability": "view",
      "type": "function"
    },
    {
      "constant": true,
      "inputs": [
        {
          "name": "",
          "type": "address"
        }
      ],
      "name": "registrantToReferrer",
      "outputs": [
        {
          "name": "",
          "type": "address"
        }
      ],
      "payable": false,
      "stateMutability": "view",
      "type": "function"
    },
    {
      "constant": true,
      "inputs": [],
      "name": "owner1",
      "outputs": [
        {
          "name": "",
          "type": "address"
        }
      ],
      "payable": false,
      "stateMutability": "view",
      "type": "function"
    },
    {
      "constant": true,
      "inputs": [
        {
          "name": "",
          "type": "address"
        }
      ],
      "name": "registrantTimestamp",
      "outputs": [
        {
          "name": "",
          "type": "uint256"
        }
      ],
      "payable": false,
      "stateMutability": "view",
      "type": "function"
    },
    {
      "constant": false,
      "inputs": [
        {
          "name": "newOwner",
          "type": "address"
        }
      ],
      "name": "transferOwnership2",
      "outputs": [],
      "payable": false,
      "stateMutability": "nonpayable",
      "type": "function"
    },
    {
      "constant": false,
      "inputs": [
        {
          "name": "newOwner",
          "type": "address"
        }
      ],
      "name": "transferOwnership1",
      "outputs": [],
      "payable": false,
      "stateMutability": "nonpayable",
      "type": "function"
    },
    {
      "inputs": [],
      "payable": false,
      "stateMutability": "nonpayable",
      "type": "constructor"
    },
    {
      "payable": true,
      "stateMutability": "payable",
      "type": "fallback"
    },
    {
      "constant": false,
      "inputs": [
        {
          "name": "target",
          "type": "address"
        },
        {
          "name": "contentId",
          "type": "string"
        },
        {
          "name": "isApproved",
          "type": "bool"
        }
      ],
      "name": "adminUpdate",
      "outputs": [],
      "payable": false,
      "stateMutability": "nonpayable",
      "type": "function"
    },
    {
      "constant": false,
      "inputs": [
        {
          "name": "target",
          "type": "address"
        },
        {
          "name": "contentId",
          "type": "string"
        },
        {
          "name": "isApproved",
          "type": "bool"
        },
        {
          "name": "referrer",
          "type": "address"
        }
      ],
      "name": "adminUpdateWithReferrer",
      "outputs": [],
      "payable": false,
      "stateMutability": "nonpayable",
      "type": "function"
    },
    {
      "constant": false,
      "inputs": [
        {
          "name": "target",
          "type": "address"
        },
        {
          "name": "referrer",
          "type": "address"
        }
      ],
      "name": "adminUpdateRegistrantToReferrer",
      "outputs": [],
      "payable": false,
      "stateMutability": "nonpayable",
      "type": "function"
    },
    {
      "constant": false,
      "inputs": [
        {
          "name": "target",
          "type": "address"
        },
        {
          "name": "isApproved",
          "type": "bool"
        }
      ],
      "name": "adminUpdateWhitelistStatus",
      "outputs": [],
      "payable": false,
      "stateMutability": "nonpayable",
      "type": "function"
    },
    {
      "constant": false,
      "inputs": [
        {
          "name": "target",
          "type": "address"
        },
        {
          "name": "contentId",
          "type": "string"
        }
      ],
      "name": "adminRemoveContentIdFromAddress",
      "outputs": [],
      "payable": false,
      "stateMutability": "nonpayable",
      "type": "function"
    },
    {
      "constant": false,
      "inputs": [
        {
          "name": "target",
          "type": "address"
        }
      ],
      "name": "adminRemoveAllContentIdsFromAddress",
      "outputs": [],
      "payable": false,
      "stateMutability": "nonpayable",
      "type": "function"
    },
    {
      "constant": true,
      "inputs": [
        {
          "name": "contentId",
          "type": "string"
        }
      ],
      "name": "adminGetAddressByContentId",
      "outputs": [
        {
          "name": "target",
          "type": "address"
        }
      ],
      "payable": false,
      "stateMutability": "view",
      "type": "function"
    },
    {
      "constant": true,
      "inputs": [
        {
          "name": "target",
          "type": "address"
        }
      ],
      "name": "adminGetContentIdsByAddress",
      "outputs": [
        {
          "name": "",
          "type": "string[]"
        }
      ],
      "payable": false,
      "stateMutability": "view",
      "type": "function"
    },
    {
      "constant": true,
      "inputs": [
        {
          "name": "index",
          "type": "uint256"
        }
      ],
      "name": "adminGetRegistrantByIndex",
      "outputs": [
        {
          "name": "",
          "type": "address"
        }
      ],
      "payable": false,
      "stateMutability": "view",
      "type": "function"
    },
    {
      "constant": true,
      "inputs": [
        {
          "name": "target",
          "type": "address"
        }
      ],
      "name": "hasRegistered",
      "outputs": [
        {
          "name": "",
          "type": "bool"
        }
      ],
      "payable": false,
      "stateMutability": "view",
      "type": "function"
    },
    {
      "constant": true,
      "inputs": [],
      "name": "getRegistrantCount",
      "outputs": [
        {
          "name": "",
          "type": "uint256"
        }
      ],
      "payable": false,
      "stateMutability": "view",
      "type": "function"
    },
    {
      "constant": true,
      "inputs": [
        {
          "name": "index",
          "type": "uint256"
        }
      ],
      "name": "getRegistrantByIndex",
      "outputs": [
        {
          "name": "",
          "type": "address"
        }
      ],
      "payable": false,
      "stateMutability": "view",
      "type": "function"
    },
    {
      "constant": true,
      "inputs": [
        {
          "name": "target",
          "type": "address"
        }
      ],
      "name": "getContentIdsByAddress",
      "outputs": [
        {
          "name": "",
          "type": "string[]"
        }
      ],
      "payable": false,
      "stateMutability": "view",
      "type": "function"
    },
    {
      "constant": true,
      "inputs": [
        {
          "name": "contentId",
          "type": "string"
        }
      ],
      "name": "getAddressByContentId",
      "outputs": [
        {
          "name": "",
          "type": "address"
        }
      ],
      "payable": false,
      "stateMutability": "view",
      "type": "function"
    },
    {
      "constant": false,
      "inputs": [
        {
          "name": "contentId",
          "type": "string"
        }
      ],
      "name": "removeContentIdFromAddress",
      "outputs": [],
      "payable": false,
      "stateMutability": "nonpayable",
      "type": "function"
    },
    {
      "constant": false,
      "inputs": [
        {
          "name": "target",
          "type": "address"
        }
      ],
      "name": "removeAllContentIdsFromAddress",
      "outputs": [],
      "payable": false,
      "stateMutability": "nonpayable",
      "type": "function"
    },
    {
      "constant": true,
      "inputs": [
        {
          "name": "contentId",
          "type": "string"
        }
      ],
      "name": "isContentIdRegisteredToCaller",
      "outputs": [
        {
          "name": "",
          "type": "bool"
        }
      ],
      "payable": false,
      "stateMutability": "view",
      "type": "function"
    },
    {
      "constant": true,
      "inputs": [
        {
          "name": "account",
          "type": "address"
        }
      ],
      "name": "isMinter",
      "outputs": [
        {
          "name": "",
          "type": "bool"
        }
      ],
      "payable": false,
      "stateMutability": "view",
      "type": "function"
    },
    {
      "constant": true,
      "inputs": [
        {
          "name": "account",
          "type": "address"
        }
      ],
      "name": "isTrader",
      "outputs": [
        {
          "name": "",
          "type": "bool"
        }
      ],
      "payable": false,
      "stateMutability": "view",
      "type": "function"
    },
    {
      "constant": true,
      "inputs": [
        {
          "name": "from",
          "type": "address"
        },
        {
          "name": "to",
          "type": "address"
        },
        {
          "name": "tokenId",
          "type": "uint256"
        }
      ],
      "name": "isAuthorizedTransferFrom",
      "outputs": [
        {
          "name": "",
          "type": "bool"
        }
      ],
      "payable": false,
      "stateMutability": "view",
      "type": "function"
    },
    {
      "constant": true,
      "inputs": [
        {
          "name": "from",
          "type": "address"
        },
        {
          "name": "to",
          "type": "address"
        },
        {
          "name": "tokenId",
          "type": "uint256"
        }
      ],
      "name": "isAuthorizedResale",
      "outputs": [
        {
          "name": "",
          "type": "bool"
        }
      ],
      "payable": false,
      "stateMutability": "view",
      "type": "function"
    },
    {
      "constant": false,
      "inputs": [],
      "name": "pause",
      "outputs": [],
      "payable": false,
      "stateMutability": "nonpayable",
      "type": "function"
    },
    {
      "constant": false,
      "inputs": [],
      "name": "unpause",
      "outputs": [],
      "payable": false,
      "stateMutability": "nonpayable",
      "type": "function"
    }
  ],
  "bytecode": "0x60806040526000600860006101000a81548160ff02191690831515021790555034801561002b57600080fd5b50336000806101000a81548173ffffffffffffffffffffffffffffffffffffffff021916908373ffffffffffffffffffffffffffffffffffffffff16021790555033600160006101000a81548173ffffffffffffffffffffffffffffffffffffffff021916908373ffffffffffffffffffffffffffffffffffffffff1602179055506145bf806100bc6000396000f3fe6080604052600436106101d85760003560e01c80637b97d03411610102578063da50246011610095578063ed5d0bcf11610064578063ed5d0bcf14610764578063f5ccddcc1461078d578063f9ce6eab146107b6578063fc7ee7ef146107f3576101d8565b8063da502460146106c0578063de08679a146106e9578063e2b375a914610712578063e982d5a91461073b576101d8565b8063a0d03526116100d1578063a0d03526146105cc578063aa271e1a14610609578063c183921e14610646578063ccc7ca2a14610683576101d8565b80637b97d034146105105780638456cb591461054d5780639568d29c146105645780639a108b791461058f576101d8565b806347ba747a1161017a5780635c975abb116101495780635c975abb14610440578063613fc0e01461046b5780636b805204146104a857806373688914146104e5576101d8565b806347ba747a1461037257806349816041146103af57806352709725146103ec5780635485bcf914610417576101d8565b80633af32abf116101b65780633af32abf146102b85780633f4ba83a146102f55780634039ad0d1461030c578063454439a914610349576101d8565b806301be6de9146102155780630cb2da071461025257806320a033bd1461028f575b600073ffffffffffffffffffffffffffffffffffffffff163373ffffffffffffffffffffffffffffffffffffffff1614151561021357600080fd5b005b34801561022157600080fd5b5061023c60048036036102379190810190613a25565b61081c565b60405161024991906141f8565b60405180910390f35b34801561025e57600080fd5b5061027960048036036102749190810190613cd1565b610a7b565b60405161028691906141dd565b60405180910390f35b34801561029b57600080fd5b506102b660048036036102b19190810190613a25565b610abe565b005b3480156102c457600080fd5b506102df60048036036102da9190810190613a25565b610e1c565b6040516102ec919061421a565b60405180910390f35b34801561030157600080fd5b5061030a610e3c565b005b34801561031857600080fd5b50610333600480360361032e9190810190613a25565b610f5d565b604051610340919061421a565b60405180910390f35b34801561035557600080fd5b50610370600480360361036b9190810190613a4e565b610ff6565b005b34801561037e57600080fd5b5061039960048036036103949190810190613c90565b6112c6565b6040516103a6919061421a565b60405180910390f35b3480156103bb57600080fd5b506103d660048036036103d19190810190613a25565b611413565b6040516103e391906141f8565b60405180910390f35b3480156103f857600080fd5b506104016116cd565b60405161040e91906141dd565b60405180910390f35b34801561042357600080fd5b5061043e60048036036104399190810190613a25565b6116f3565b005b34801561044c57600080fd5b50610455611a3c565b604051610462919061421a565b60405180910390f35b34801561047757600080fd5b50610492600480360361048d9190810190613a25565b611a4f565b60405161049f91906141dd565b60405180910390f35b3480156104b457600080fd5b506104cf60048036036104ca9190810190613c4b565b611a82565b6040516104dc91906141dd565b60405180910390f35b3480156104f157600080fd5b506104fa611b60565b60405161050791906141dd565b60405180910390f35b34801561051c57600080fd5b5061053760048036036105329190810190613c4b565b611b85565b60405161054491906141dd565b60405180910390f35b34801561055957600080fd5b50610562611cb9565b005b34801561057057600080fd5b50610579611ddb565b60405161058691906143b5565b60405180910390f35b34801561059b57600080fd5b506105b660048036036105b19190810190613cd1565b611de8565b6040516105c391906141dd565b60405180910390f35b3480156105d857600080fd5b506105f360048036036105ee9190810190613a25565b611ebe565b604051610600919061421a565b60405180910390f35b34801561061557600080fd5b50610630600480360361062b9190810190613a25565b611f68565b60405161063d919061421a565b60405180910390f35b34801561065257600080fd5b5061066d60048036036106689190810190613a8a565b612001565b60405161067a919061421a565b60405180910390f35b34801561068f57600080fd5b506106aa60048036036106a59190810190613a25565b61216f565b6040516106b791906143b5565b60405180910390f35b3480156106cc57600080fd5b506106e760048036036106e29190810190613c4b565b612187565b005b3480156106f557600080fd5b50610710600480360361070b9190810190613b69565b61260b565b005b34801561071e57600080fd5b5061073960048036036107349190810190613a25565b6129d3565b005b34801561074757600080fd5b50610762600480360361075d9190810190613a25565b612b37565b005b34801561077057600080fd5b5061078b60048036036107869190810190613b15565b612c9a565b005b34801561079957600080fd5b506107b460048036036107af9190810190613ad9565b613131565b005b3480156107c257600080fd5b506107dd60048036036107d89190810190613a8a565b613385565b6040516107ea919061421a565b60405180910390f35b3480156107ff57600080fd5b5061081a60048036036108159190810190613bd0565b6134f3565b005b6060600360008373ffffffffffffffffffffffffffffffffffffffff1673ffffffffffffffffffffffffffffffffffffffff16815260200190815260200160002060009054906101000a900460ff1615156108ac576040517f08c379a00000000000000000000000000000000000000000000000000000000081526004016108a390614235565b60405180910390fd5b6060600660008473ffffffffffffffffffffffffffffffffffffffff1673ffffffffffffffffffffffffffffffffffffffff168152602001908152602001600020805480602002602001604051908101604052809291908181526020016000905b828210156109dd57838290600052602060002001604051806020016040529081600082018054600181600116156101000203166002900480601f0160208091040260200160405190810160405280929190818152602001828054600181600116156101000203166002900480156109c55780601f1061099a576101008083540402835291602001916109c5565b820191906000526020600020905b8154815290600101906020018083116109a857829003601f168201915b5050505050815250508152602001906001019061090d565b50505050905060608151604051908082528060200260200182016040528015610a1a57816020015b6060815260200190600190039081610a055790505b50905060008090505b8251811015610a70578281815181101515610a3a57fe5b90602001906020020151600001518282815181101515610a5657fe5b906020019060200201819052508080600101915050610a23565b508092505050919050565b6000600282815481101515610a8c57fe5b9060005260206000200160009054906101000a900473ffffffffffffffffffffffffffffffffffffffff169050919050565b600860009054906101000a900460ff16151515610ada57600080fd5b600360003373ffffffffffffffffffffffffffffffffffffffff1673ffffffffffffffffffffffffffffffffffffffff16815260200190815260200160002060009054906101000a900460ff161515610b68576040517f08c379a0000000000000000000000000000000000000000000000000000000008152600401610b5f90614395565b60405180910390fd5b3373ffffffffffffffffffffffffffffffffffffffff168173ffffffffffffffffffffffffffffffffffffffff16141515610bd8576040517f08c379a0000000000000000000000000000000000000000000000000000000008152600401610bcf90614395565b60405180910390fd5b6060600660008373ffffffffffffffffffffffffffffffffffffffff1673ffffffffffffffffffffffffffffffffffffffff168152602001908152602001600020805480602002602001604051908101604052809291908181526020016000905b82821015610d0957838290600052602060002001604051806020016040529081600082018054600181600116156101000203166002900480601f016020809104026020016040519081016040528092919081815260200182805460018160011615610100020316600290048015610cf15780601f10610cc657610100808354040283529160200191610cf1565b820191906000526020600020905b815481529060010190602001808311610cd457829003601f168201915b50505050508152505081526020019060010190610c39565b50505050905060008090505b8151811015610dbf57604051806020016040528060405180602001604052806000815250815250600660008573ffffffffffffffffffffffffffffffffffffffff1673ffffffffffffffffffffffffffffffffffffffff16815260200190815260200160002082815481101515610d8857fe5b906000526020600020016000820151816000019080519060200190610dae9291906138a2565b509050508080600101915050610d15565b506000600360008473ffffffffffffffffffffffffffffffffffffffff1673ffffffffffffffffffffffffffffffffffffffff16815260200190815260200160002060006101000a81548160ff0219169083151502179055505050565b60036020528060005260406000206000915054906101000a900460ff1681565b6000809054906101000a900473ffffffffffffffffffffffffffffffffffffffff1673ffffffffffffffffffffffffffffffffffffffff163373ffffffffffffffffffffffffffffffffffffffff161480610ee45750600160009054906101000a900473ffffffffffffffffffffffffffffffffffffffff1673ffffffffffffffffffffffffffffffffffffffff163373ffffffffffffffffffffffffffffffffffffffff16145b1515610f25576040517f08c379a0000000000000000000000000000000000000000000000000000000008152600401610f1c90614315565b60405180910390fd5b600860009054906101000a900460ff161515610f4057600080fd5b6000600860006101000a81548160ff021916908315150217905550565b6000600360008373ffffffffffffffffffffffffffffffffffffffff1673ffffffffffffffffffffffffffffffffffffffff16815260200190815260200160002060009054906101000a900460ff161515610fed576040517f08c379a0000000000000000000000000000000000000000000000000000000008152600401610fe490614295565b60405180910390fd5b60019050919050565b6000809054906101000a900473ffffffffffffffffffffffffffffffffffffffff1673ffffffffffffffffffffffffffffffffffffffff163373ffffffffffffffffffffffffffffffffffffffff16148061109e5750600160009054906101000a900473ffffffffffffffffffffffffffffffffffffffff1673ffffffffffffffffffffffffffffffffffffffff163373ffffffffffffffffffffffffffffffffffffffff16145b15156110df576040517f08c379a00000000000000000000000000000000000000000000000000000000081526004016110d690614315565b60405180910390fd5b600860009054906101000a900460ff161515156110fb57600080fd5b61110482611ebe565b1515611145576040517f08c379a000000000000000000000000000000000000000000000000000000000815260040161113c90614375565b60405180910390fd5b600360008273ffffffffffffffffffffffffffffffffffffffff1673ffffffffffffffffffffffffffffffffffffffff16815260200190815260200160002060009054906101000a900460ff1615156111d3576040517f08c379a00000000000000000000000000000000000000000000000000000000081526004016111ca90614355565b60405180910390fd5b8073ffffffffffffffffffffffffffffffffffffffff168273ffffffffffffffffffffffffffffffffffffffff1614151515611244576040517f08c379a000000000000000000000000000000000000000000000000000000000815260040161123b90614355565b60405180910390fd5b80600560008473ffffffffffffffffffffffffffffffffffffffff1673ffffffffffffffffffffffffffffffffffffffff16815260200190815260200160002060006101000a81548173ffffffffffffffffffffffffffffffffffffffff021916908373ffffffffffffffffffffffffffffffffffffffff1602179055505050565b6000600360003273ffffffffffffffffffffffffffffffffffffffff1673ffffffffffffffffffffffffffffffffffffffff16815260200190815260200160002060009054906101000a900460ff161515611356576040517f08c379a000000000000000000000000000000000000000000000000000000000815260040161134d90614395565b60405180910390fd5b600060078360405161136891906141c6565b908152602001604051809103902060009054906101000a900473ffffffffffffffffffffffffffffffffffffffff1690503273ffffffffffffffffffffffffffffffffffffffff168173ffffffffffffffffffffffffffffffffffffffff16141515611409576040517f08c379a000000000000000000000000000000000000000000000000000000000815260040161140090614395565b60405180910390fd5b6001915050919050565b60606000809054906101000a900473ffffffffffffffffffffffffffffffffffffffff1673ffffffffffffffffffffffffffffffffffffffff163373ffffffffffffffffffffffffffffffffffffffff1614806114bd5750600160009054906101000a900473ffffffffffffffffffffffffffffffffffffffff1673ffffffffffffffffffffffffffffffffffffffff163373ffffffffffffffffffffffffffffffffffffffff16145b15156114fe576040517f08c379a00000000000000000000000000000000000000000000000000000000081526004016114f590614315565b60405180910390fd5b6060600660008473ffffffffffffffffffffffffffffffffffffffff1673ffffffffffffffffffffffffffffffffffffffff168152602001908152602001600020805480602002602001604051908101604052809291908181526020016000905b8282101561162f57838290600052602060002001604051806020016040529081600082018054600181600116156101000203166002900480601f0160208091040260200160405190810160405280929190818152602001828054600181600116156101000203166002900480156116175780601f106115ec57610100808354040283529160200191611617565b820191906000526020600020905b8154815290600101906020018083116115fa57829003601f168201915b5050505050815250508152602001906001019061155f565b5050505090506060815160405190808252806020026020018201604052801561166c57816020015b60608152602001906001900390816116575790505b50905060008090505b82518110156116c257828181518110151561168c57fe5b906020019060200201516000015182828151811015156116a857fe5b906020019060200201819052508080600101915050611675565b508092505050919050565b600160009054906101000a900473ffffffffffffffffffffffffffffffffffffffff1681565b6000809054906101000a900473ffffffffffffffffffffffffffffffffffffffff1673ffffffffffffffffffffffffffffffffffffffff163373ffffffffffffffffffffffffffffffffffffffff16148061179b5750600160009054906101000a900473ffffffffffffffffffffffffffffffffffffffff1673ffffffffffffffffffffffffffffffffffffffff163373ffffffffffffffffffffffffffffffffffffffff16145b15156117dc576040517f08c379a00000000000000000000000000000000000000000000000000000000081526004016117d390614315565b60405180910390fd5b600860009054906101000a900460ff161515156117f857600080fd5b6060600660008373ffffffffffffffffffffffffffffffffffffffff1673ffffffffffffffffffffffffffffffffffffffff168152602001908152602001600020805480602002602001604051908101604052809291908181526020016000905b8282101561192957838290600052602060002001604051806020016040529081600082018054600181600116156101000203166002900480601f0160208091040260200160405190810160405280929190818152602001828054600181600116156101000203166002900480156119115780601f106118e657610100808354040283529160200191611911565b820191906000526020600020905b8154815290600101906020018083116118f457829003601f168201915b50505050508152505081526020019060010190611859565b50505050905060008090505b81518110156119df57604051806020016040528060405180602001604052806000815250815250600660008573ffffffffffffffffffffffffffffffffffffffff1673ffffffffffffffffffffffffffffffffffffffff168152602001908152602001600020828154811015156119a857fe5b9060005260206000200160008201518160000190805190602001906119ce9291906138a2565b509050508080600101915050611935565b506000600360008473ffffffffffffffffffffffffffffffffffffffff1673ffffffffffffffffffffffffffffffffffffffff16815260200190815260200160002060006101000a81548160ff0219169083151502179055505050565b600860009054906101000a900460ff1681565b60056020528060005260406000206000915054906101000a900473ffffffffffffffffffffffffffffffffffffffff1681565b60008060078484604051611a979291906141ad565b908152602001604051809103902060009054906101000a900473ffffffffffffffffffffffffffffffffffffffff169050600360008273ffffffffffffffffffffffffffffffffffffffff1673ffffffffffffffffffffffffffffffffffffffff16815260200190815260200160002060009054906101000a900460ff161515611b56576040517f08c379a0000000000000000000000000000000000000000000000000000000008152600401611b4d90614235565b60405180910390fd5b8091505092915050565b6000809054906101000a900473ffffffffffffffffffffffffffffffffffffffff1681565b60008060009054906101000a900473ffffffffffffffffffffffffffffffffffffffff1673ffffffffffffffffffffffffffffffffffffffff163373ffffffffffffffffffffffffffffffffffffffff161480611c2f5750600160009054906101000a900473ffffffffffffffffffffffffffffffffffffffff1673ffffffffffffffffffffffffffffffffffffffff163373ffffffffffffffffffffffffffffffffffffffff16145b1515611c70576040517f08c379a0000000000000000000000000000000000000000000000000000000008152600401611c6790614315565b60405180910390fd5b60078383604051611c829291906141ad565b908152602001604051809103902060009054906101000a900473ffffffffffffffffffffffffffffffffffffffff16905092915050565b6000809054906101000a900473ffffffffffffffffffffffffffffffffffffffff1673ffffffffffffffffffffffffffffffffffffffff163373ffffffffffffffffffffffffffffffffffffffff161480611d615750600160009054906101000a900473ffffffffffffffffffffffffffffffffffffffff1673ffffffffffffffffffffffffffffffffffffffff163373ffffffffffffffffffffffffffffffffffffffff16145b1515611da2576040517f08c379a0000000000000000000000000000000000000000000000000000000008152600401611d9990614315565b60405180910390fd5b600860009054906101000a900460ff16151515611dbe57600080fd5b6001600860006101000a81548160ff021916908315150217905550565b6000600280549050905090565b600080600283815481101515611dfa57fe5b9060005260206000200160009054906101000a900473ffffffffffffffffffffffffffffffffffffffff169050600360008273ffffffffffffffffffffffffffffffffffffffff1673ffffffffffffffffffffffffffffffffffffffff16815260200190815260200160002060009054906101000a900460ff161515611eb5576040517f08c379a0000000000000000000000000000000000000000000000000000000008152600401611eac90614235565b60405180910390fd5b80915050919050565b6000806000905060008090505b600280549050811015611f60578373ffffffffffffffffffffffffffffffffffffffff16600282815481101515611efe57fe5b9060005260206000200160009054906101000a900473ffffffffffffffffffffffffffffffffffffffff1673ffffffffffffffffffffffffffffffffffffffff161415611f5357600191508192505050611f63565b8080600101915050611ecb565b50505b919050565b6000600360008373ffffffffffffffffffffffffffffffffffffffff1673ffffffffffffffffffffffffffffffffffffffff16815260200190815260200160002060009054906101000a900460ff161515611ff8576040517f08c379a0000000000000000000000000000000000000000000000000000000008152600401611fef906142f5565b60405180910390fd5b60019050919050565b6000600360008573ffffffffffffffffffffffffffffffffffffffff1673ffffffffffffffffffffffffffffffffffffffff16815260200190815260200160002060009054906101000a900460ff161515612091576040517f08c379a000000000000000000000000000000000000000000000000000000000815260040161208890614295565b60405180910390fd5b600360008473ffffffffffffffffffffffffffffffffffffffff1673ffffffffffffffffffffffffffffffffffffffff16815260200190815260200160002060009054906101000a900460ff16151561211f576040517f08c379a000000000000000000000000000000000000000000000000000000000815260040161211690614295565b60405180910390fd5b600082111515612164576040517f08c379a000000000000000000000000000000000000000000000000000000000815260040161215b906142d5565b60405180910390fd5b600190509392505050565b60046020528060005260406000206000915090505481565b600860009054906101000a900460ff161515156121a357600080fd5b600360003373ffffffffffffffffffffffffffffffffffffffff1673ffffffffffffffffffffffffffffffffffffffff16815260200190815260200160002060009054906101000a900460ff161515612231576040517f08c379a000000000000000000000000000000000000000000000000000000000815260040161222890614395565b60405180910390fd5b3373ffffffffffffffffffffffffffffffffffffffff166007838360405161225a9291906141ad565b908152602001604051809103902060009054906101000a900473ffffffffffffffffffffffffffffffffffffffff1673ffffffffffffffffffffffffffffffffffffffff161415156122e1576040517f08c379a00000000000000000000000000000000000000000000000000000000081526004016122d890614255565b60405180910390fd5b6000600783836040516122f59291906141ad565b908152602001604051809103902060006101000a81548173ffffffffffffffffffffffffffffffffffffffff021916908373ffffffffffffffffffffffffffffffffffffffff1602179055506060600660003373ffffffffffffffffffffffffffffffffffffffff1673ffffffffffffffffffffffffffffffffffffffff168152602001908152602001600020805480602002602001604051908101604052809291908181526020016000905b8282101561247257838290600052602060002001604051806020016040529081600082018054600181600116156101000203166002900480601f01602080910402602001604051908101604052809291908181526020018280546001816001161561010002031660029004801561245a5780601f1061242f5761010080835404028352916020019161245a565b820191906000526020600020905b81548152906001019060200180831161243d57829003601f168201915b505050505081525050815260200190600101906123a2565b50505050905060008090505b8151811015612597576124f084848080601f016020809104026020016040519081016040528093929190818152602001838380828437600081840152601f19601f8201169050808301925050505050505083838151811015156124dd57fe5b90602001906020020151600001516136a1565b1561258a57604051806020016040528060405180602001604052806000815250815250600660003373ffffffffffffffffffffffffffffffffffffffff1673ffffffffffffffffffffffffffffffffffffffff1681526020019081526020016000208281548110151561255f57fe5b9060005260206000200160008201518160000190805190602001906125859291906138a2565b509050505b808060010191505061247e565b5060006125a3336136fa565b61ffff161415612606576000600360003373ffffffffffffffffffffffffffffffffffffffff1673ffffffffffffffffffffffffffffffffffffffff16815260200190815260200160002060006101000a81548160ff0219169083151502179055505b505050565b6000809054906101000a900473ffffffffffffffffffffffffffffffffffffffff1673ffffffffffffffffffffffffffffffffffffffff163373ffffffffffffffffffffffffffffffffffffffff1614806126b35750600160009054906101000a900473ffffffffffffffffffffffffffffffffffffffff1673ffffffffffffffffffffffffffffffffffffffff163373ffffffffffffffffffffffffffffffffffffffff16145b15156126f4576040517f08c379a00000000000000000000000000000000000000000000000000000000081526004016126eb90614315565b60405180910390fd5b600860009054906101000a900460ff1615151561271057600080fd5b600060078360405161272291906141c6565b908152602001604051809103902060009054906101000a900473ffffffffffffffffffffffffffffffffffffffff1690508373ffffffffffffffffffffffffffffffffffffffff168173ffffffffffffffffffffffffffffffffffffffff161415156128bc57600073ffffffffffffffffffffffffffffffffffffffff168173ffffffffffffffffffffffffffffffffffffffff161415156127c9576127c88184612c9a565b5b600660008573ffffffffffffffffffffffffffffffffffffffff1673ffffffffffffffffffffffffffffffffffffffff168152602001908152602001600020604051806020016040528085815250908060018154018082558091505090600182039060005260206000200160009091929091909150600082015181600001908051906020019061285a9291906138a2565b505050508360078460405161286f91906141c6565b908152602001604051809103902060006101000a81548173ffffffffffffffffffffffffffffffffffffffff021916908373ffffffffffffffffffffffffffffffffffffffff1602179055505b6128c584611ebe565b15156129765760028490806001815401808255809150509060018203906000526020600020016000909192909190916101000a81548173ffffffffffffffffffffffffffffffffffffffff021916908373ffffffffffffffffffffffffffffffffffffffff1602179055505042600460008673ffffffffffffffffffffffffffffffffffffffff1673ffffffffffffffffffffffffffffffffffffffff168152602001908152602001600020819055505b81600360008673ffffffffffffffffffffffffffffffffffffffff1673ffffffffffffffffffffffffffffffffffffffff16815260200190815260200160002060006101000a81548160ff02191690831515021790555050505050565b6000809054906101000a900473ffffffffffffffffffffffffffffffffffffffff1673ffffffffffffffffffffffffffffffffffffffff163373ffffffffffffffffffffffffffffffffffffffff161480612a7b5750600160009054906101000a900473ffffffffffffffffffffffffffffffffffffffff1673ffffffffffffffffffffffffffffffffffffffff163373ffffffffffffffffffffffffffffffffffffffff16145b1515612abc576040517f08c379a0000000000000000000000000000000000000000000000000000000008152600401612ab390614315565b60405180910390fd5b600073ffffffffffffffffffffffffffffffffffffffff168173ffffffffffffffffffffffffffffffffffffffff16141515612b345780600160006101000a81548173ffffffffffffffffffffffffffffffffffffffff021916908373ffffffffffffffffffffffffffffffffffffffff1602179055505b50565b6000809054906101000a900473ffffffffffffffffffffffffffffffffffffffff1673ffffffffffffffffffffffffffffffffffffffff163373ffffffffffffffffffffffffffffffffffffffff161480612bdf5750600160009054906101000a900473ffffffffffffffffffffffffffffffffffffffff1673ffffffffffffffffffffffffffffffffffffffff163373ffffffffffffffffffffffffffffffffffffffff16145b1515612c20576040517f08c379a0000000000000000000000000000000000000000000000000000000008152600401612c1790614315565b60405180910390fd5b600073ffffffffffffffffffffffffffffffffffffffff168173ffffffffffffffffffffffffffffffffffffffff16141515612c9757806000806101000a81548173ffffffffffffffffffffffffffffffffffffffff021916908373ffffffffffffffffffffffffffffffffffffffff1602179055505b50565b6000809054906101000a900473ffffffffffffffffffffffffffffffffffffffff1673ffffffffffffffffffffffffffffffffffffffff163373ffffffffffffffffffffffffffffffffffffffff161480612d425750600160009054906101000a900473ffffffffffffffffffffffffffffffffffffffff1673ffffffffffffffffffffffffffffffffffffffff163373ffffffffffffffffffffffffffffffffffffffff16145b1515612d83576040517f08c379a0000000000000000000000000000000000000000000000000000000008152600401612d7a90614315565b60405180910390fd5b600860009054906101000a900460ff16151515612d9f57600080fd5b8173ffffffffffffffffffffffffffffffffffffffff16600782604051612dc691906141c6565b908152602001604051809103902060009054906101000a900473ffffffffffffffffffffffffffffffffffffffff1673ffffffffffffffffffffffffffffffffffffffff16141515612e4d576040517f08c379a0000000000000000000000000000000000000000000000000000000008152600401612e4490614335565b60405180910390fd5b6000600782604051612e5f91906141c6565b908152602001604051809103902060006101000a81548173ffffffffffffffffffffffffffffffffffffffff021916908373ffffffffffffffffffffffffffffffffffffffff1602179055506060600660008473ffffffffffffffffffffffffffffffffffffffff1673ffffffffffffffffffffffffffffffffffffffff168152602001908152602001600020805480602002602001604051908101604052809291908181526020016000905b82821015612fdc57838290600052602060002001604051806020016040529081600082018054600181600116156101000203166002900480601f016020809104026020016040519081016040528092919081815260200182805460018160011615610100020316600290048015612fc45780601f10612f9957610100808354040283529160200191612fc4565b820191906000526020600020905b815481529060010190602001808311612fa757829003601f168201915b50505050508152505081526020019060010190612f0c565b50505050905060008090505b81518110156130bd5761301683838381518110151561300357fe5b90602001906020020151600001516136a1565b156130b057604051806020016040528060405180602001604052806000815250815250600660008673ffffffffffffffffffffffffffffffffffffffff1673ffffffffffffffffffffffffffffffffffffffff1681526020019081526020016000208281548110151561308557fe5b9060005260206000200160008201518160000190805190602001906130ab9291906138a2565b509050505b8080600101915050612fe8565b5060006130c9846136fa565b61ffff16141561312c576000600360008573ffffffffffffffffffffffffffffffffffffffff1673ffffffffffffffffffffffffffffffffffffffff16815260200190815260200160002060006101000a81548160ff0219169083151502179055505b505050565b6000809054906101000a900473ffffffffffffffffffffffffffffffffffffffff1673ffffffffffffffffffffffffffffffffffffffff163373ffffffffffffffffffffffffffffffffffffffff1614806131d95750600160009054906101000a900473ffffffffffffffffffffffffffffffffffffffff1673ffffffffffffffffffffffffffffffffffffffff163373ffffffffffffffffffffffffffffffffffffffff16145b151561321a576040517f08c379a000000000000000000000000000000000000000000000000000000000815260040161321190614315565b60405180910390fd5b600860009054906101000a900460ff1615151561323657600080fd5b600360008373ffffffffffffffffffffffffffffffffffffffff1673ffffffffffffffffffffffffffffffffffffffff16815260200190815260200160002060009054906101000a900460ff161515811515141515156132cb576040517f08c379a00000000000000000000000000000000000000000000000000000000081526004016132c290614275565b60405180910390fd5b60011515811515141561332a5760006132e3836136fa565b61ffff16111515613329576040517f08c379a0000000000000000000000000000000000000000000000000000000008152600401613320906142b5565b60405180910390fd5b5b80600360008473ffffffffffffffffffffffffffffffffffffffff1673ffffffffffffffffffffffffffffffffffffffff16815260200190815260200160002060006101000a81548160ff0219169083151502179055505050565b6000600360008573ffffffffffffffffffffffffffffffffffffffff1673ffffffffffffffffffffffffffffffffffffffff16815260200190815260200160002060009054906101000a900460ff161515613415576040517f08c379a000000000000000000000000000000000000000000000000000000000815260040161340c90614295565b60405180910390fd5b600360008473ffffffffffffffffffffffffffffffffffffffff1673ffffffffffffffffffffffffffffffffffffffff16815260200190815260200160002060009054906101000a900460ff1615156134a3576040517f08c379a000000000000000000000000000000000000000000000000000000000815260040161349a90614295565b60405180910390fd5b6000821115156134e8576040517f08c379a00000000000000000000000000000000000000000000000000000000081526004016134df906142d5565b60405180910390fd5b600190509392505050565b6000809054906101000a900473ffffffffffffffffffffffffffffffffffffffff1673ffffffffffffffffffffffffffffffffffffffff163373ffffffffffffffffffffffffffffffffffffffff16148061359b5750600160009054906101000a900473ffffffffffffffffffffffffffffffffffffffff1673ffffffffffffffffffffffffffffffffffffffff163373ffffffffffffffffffffffffffffffffffffffff16145b15156135dc576040517f08c379a00000000000000000000000000000000000000000000000000000000081526004016135d390614315565b60405180910390fd5b600860009054906101000a900460ff161515156135f857600080fd5b600360008273ffffffffffffffffffffffffffffffffffffffff1673ffffffffffffffffffffffffffffffffffffffff16815260200190815260200160002060009054906101000a900460ff161515613686576040517f08c379a000000000000000000000000000000000000000000000000000000000815260040161367d90614355565b60405180910390fd5b61369184848461260b565b61369b8482610ff6565b50505050565b6000816040516020016136b491906141c6565b60405160208183030381529060405280519060200120836040516020016136db91906141c6565b6040516020818303038152906040528051906020012014905092915050565b60006060600660008473ffffffffffffffffffffffffffffffffffffffff1673ffffffffffffffffffffffffffffffffffffffff168152602001908152602001600020805480602002602001604051908101604052809291908181526020016000905b8282101561382d57838290600052602060002001604051806020016040529081600082018054600181600116156101000203166002900480601f0160208091040260200160405190810160405280929190818152602001828054600181600116156101000203166002900480156138155780601f106137ea57610100808354040283529160200191613815565b820191906000526020600020905b8154815290600101906020018083116137f857829003601f168201915b5050505050815250508152602001906001019061375d565b505050509050600080905060008090505b82518110156138975761387b60405180602001604052806000815250848381518110151561386857fe5b90602001906020020151600001516136a1565b151561388a5781806001019250505b808060010191505061383e565b508092505050919050565b828054600181600116156101000203166002900490600052602060002090601f016020900481019282601f106138e357805160ff1916838001178555613911565b82800160010185558215613911579182015b828111156139105782518255916020019190600101906138f5565b5b50905061391e9190613922565b5090565b61394491905b80821115613940576000816000905550600101613928565b5090565b90565b600061395382356144ea565b905092915050565b600061396782356144fc565b905092915050565b60008083601f840112151561398357600080fd5b8235905067ffffffffffffffff81111561399c57600080fd5b6020830191508360018202830111156139b457600080fd5b9250929050565b600082601f83011215156139ce57600080fd5b81356139e16139dc826143fd565b6143d0565b915080825260208301602083018583830111156139fd57600080fd5b613a08838284614532565b50505092915050565b6000613a1d8235614528565b905092915050565b600060208284031215613a3757600080fd5b6000613a4584828501613947565b91505092915050565b60008060408385031215613a6157600080fd5b6000613a6f85828601613947565b9250506020613a8085828601613947565b9150509250929050565b600080600060608486031215613a9f57600080fd5b6000613aad86828701613947565b9350506020613abe86828701613947565b9250506040613acf86828701613a11565b9150509250925092565b60008060408385031215613aec57600080fd5b6000613afa85828601613947565b9250506020613b0b8582860161395b565b9150509250929050565b60008060408385031215613b2857600080fd5b6000613b3685828601613947565b925050602083013567ffffffffffffffff811115613b5357600080fd5b613b5f858286016139bb565b9150509250929050565b600080600060608486031215613b7e57600080fd5b6000613b8c86828701613947565b935050602084013567ffffffffffffffff811115613ba957600080fd5b613bb5868287016139bb565b9250506040613bc68682870161395b565b9150509250925092565b60008060008060808587031215613be657600080fd5b6000613bf487828801613947565b945050602085013567ffffffffffffffff811115613c1157600080fd5b613c1d878288016139bb565b9350506040613c2e8782880161395b565b9250506060613c3f87828801613947565b91505092959194509250565b60008060208385031215613c5e57600080fd5b600083013567ffffffffffffffff811115613c7857600080fd5b613c848582860161396f565b92509250509250929050565b600060208284031215613ca257600080fd5b600082013567ffffffffffffffff811115613cbc57600080fd5b613cc8848285016139bb565b91505092915050565b600060208284031215613ce357600080fd5b6000613cf184828501613a11565b91505092915050565b6000613d068383613df3565b905092915050565b613d17816144a2565b82525050565b6000613d2882614436565b613d328185614464565b935083602082028501613d4485614429565b60005b84811015613d7d578383038852613d5f838351613cfa565b9250613d6a82614457565b9150602088019750600181019050613d47565b508196508694505050505092915050565b613d97816144b4565b82525050565b6000613da98385614497565b9350613db6838584614532565b82840190509392505050565b6000613dcd8261444c565b613dd78185614497565b9350613de7818560208601614541565b80840191505092915050565b6000613dfe82614441565b613e088185614475565b9350613e18818560208601614541565b613e2181614574565b840191505092915050565b6000613e39600f83614486565b91507f494e56414c49445f4144445245535300000000000000000000000000000000006000830152602082019050919050565b6000613e79602483614486565b91507f434f4e54454e545f49445f444f45535f4e4f545f42454c4f4e475f544f5f534560008301527f4e444552000000000000000000000000000000000000000000000000000000006020830152604082019050919050565b6000613edf601983614486565b91507f4e4f5f5354415455535f5550444154455f5245515549524544000000000000006000830152602082019050919050565b6000613f1f600e83614486565b91507f494e56414c49445f5452414445520000000000000000000000000000000000006000830152602082019050919050565b6000613f5f602583614486565b91507f414444524553535f4841535f4e4f5f4153534f4349415445445f434f4e54454e60008301527f545f4944530000000000000000000000000000000000000000000000000000006020830152604082019050919050565b6000613fc5601083614486565b91507f494e56414c49445f544f4b454e5f4944000000000000000000000000000000006000830152602082019050919050565b6000614005600e83614486565b91507f494e56414c49445f4d494e5445520000000000000000000000000000000000006000830152602082019050919050565b6000614045601383614486565b91507f4f4e4c595f434f4e54524143545f4f574e4552000000000000000000000000006000830152602082019050919050565b6000614085602583614486565b91507f434f4e54454e545f49445f444f45535f4e4f545f42454c4f4e475f544f5f414460008301527f44524553530000000000000000000000000000000000000000000000000000006020830152604082019050919050565b60006140eb601083614486565b91507f494e56414c49445f5245464552524552000000000000000000000000000000006000830152602082019050919050565b600061412b600e83614486565b91507f494e56414c49445f5441524745540000000000000000000000000000000000006000830152602082019050919050565b600061416b600e83614486565b91507f494e56414c49445f53454e4445520000000000000000000000000000000000006000830152602082019050919050565b6141a7816144e0565b82525050565b60006141ba828486613d9d565b91508190509392505050565b60006141d28284613dc2565b915081905092915050565b60006020820190506141f26000830184613d0e565b92915050565b600060208201905081810360008301526142128184613d1d565b905092915050565b600060208201905061422f6000830184613d8e565b92915050565b6000602082019050818103600083015261424e81613e2c565b9050919050565b6000602082019050818103600083015261426e81613e6c565b9050919050565b6000602082019050818103600083015261428e81613ed2565b9050919050565b600060208201905081810360008301526142ae81613f12565b9050919050565b600060208201905081810360008301526142ce81613f52565b9050919050565b600060208201905081810360008301526142ee81613fb8565b9050919050565b6000602082019050818103600083015261430e81613ff8565b9050919050565b6000602082019050818103600083015261432e81614038565b9050919050565b6000602082019050818103600083015261434e81614078565b9050919050565b6000602082019050818103600083015261436e816140de565b9050919050565b6000602082019050818103600083015261438e8161411e565b9050919050565b600060208201905081810360008301526143ae8161415e565b9050919050565b60006020820190506143ca600083018461419e565b92915050565b6000604051905081810181811067ffffffffffffffff821117156143f357600080fd5b8060405250919050565b600067ffffffffffffffff82111561441457600080fd5b601f19601f8301169050602081019050919050565b6000602082019050919050565b600081519050919050565b600081519050919050565b600081519050919050565b6000602082019050919050565b600082825260208201905092915050565b600082825260208201905092915050565b600082825260208201905092915050565b600081905092915050565b60006144ad826144c0565b9050919050565b60008115159050919050565b600073ffffffffffffffffffffffffffffffffffffffff82169050919050565b6000819050919050565b60006144f582614508565b9050919050565b60008115159050919050565b600073ffffffffffffffffffffffffffffffffffffffff82169050919050565b6000819050919050565b82818337600083830152505050565b60005b8381101561455f578082015181840152602081019050614544565b8381111561456e576000848401525b50505050565b6000601f19601f830116905091905056fea265627a7a7230582081dc64664ef35ecc00457fe25bf4013075d8c2566434c6e9e78faf96800f36fa6c6578706572696d656e74616cf50037",
  "source": "/*\n\n  Copyright 2020 Niche Networks, Inc. (owns & operates Microsponsors.io)\n\n  Licensed under the Apache License, Version 2.0 (the \"License\");\n  you may not use this file except in compliance with the License.\n  You may obtain a copy of the License at\n\n    http://www.apache.org/licenses/LICENSE-2.0\n\n  Unless required by applicable law or agreed to in writing, software\n  distributed under the License is distributed on an \"AS IS\" BASIS,\n  WITHOUT WARRANTIES OR CONDITIONS OF ANY KIND, either express or implied.\n  See the License for the specific language governing permissions and\n  limitations under the License.\n\n*/\n\npragma solidity ^0.5.5;\npragma experimental ABIEncoderV2;\n\nimport \"./Ownable.sol\";\n\n\ncontract Registry is\n    Ownable\n{\n\n\n    /***  Microsponsors Registry Data:  ***/\n\n\n    // Array of registrant addresses,\n    // regardless of isWhitelisted status\n    address[] private registrants;\n\n    // Map registrant's address => isWhitelisted status.\n    // Addresses authorized to transact.\n    mapping (address => bool) public isWhitelisted;\n\n    // Map each registrant's address to the `block.timestamp`\n    // when the address was first registered\n    mapping (address => uint) public registrantTimestamp;\n\n    // Map each registrant's address to the address that referred them.\n    mapping (address => address) public registrantToReferrer;\n\n    // Map address => array of ContentId structs.\n    // Using struct because there is not mapping to an array of strings in Solidity at this time.\n    struct ContentIdStruct {\n        string contentId;\n    }\n    mapping (address => ContentIdStruct[]) private addressToContentIds;\n\n    // Map contentId => address (for reverse-lookups)\n    mapping (string => address) private contentIdToAddress;\n\n    // Pause. When true, Registry state updates and 0x order fills are blocked.\n    bool public paused = false;\n\n\n    /***  Constructor  ***/\n\n    constructor ()\n        public\n    {\n\n    }\n\n\n    /***  Admin functions (onlyOwner) that mutate registry state  ***/\n\n\n    /// @dev Admin registers an address with a contentId.\n    /// @param target Address to add or remove from whitelist.\n    /// @param contentId To map the target's address to. UTF8-encoded SRN (a string).\n    /// @param isApproved Whitelist status to assign to the address.\n    function adminUpdate(\n        address target,\n        string memory contentId,\n        bool isApproved\n    )\n        public\n        onlyOwner\n        whenNotPaused\n    {\n\n        address previousOwner = contentIdToAddress[contentId];\n\n        if (previousOwner != target) {\n\n            // If contentId already belongs to another owner address\n            // it must be explicitly removed by admin remove fn\n            // which will also remove that address from whitelist\n            // if this was its only contentId\n            if (previousOwner != 0x0000000000000000000000000000000000000000) {\n                adminRemoveContentIdFromAddress(previousOwner, contentId);\n            }\n\n            // Assign content id to new registrant address\n            addressToContentIds[target].push( ContentIdStruct(contentId) );\n            contentIdToAddress[contentId] = target;\n\n        }\n\n        if (!hasRegistered(target)) {\n            registrants.push(target);\n            registrantTimestamp[target] = block.timestamp;\n        }\n\n        isWhitelisted[target] = isApproved;\n\n    }\n\n\n    function adminUpdateWithReferrer(\n        address target,\n        string memory contentId,\n        bool isApproved,\n        address referrer\n    )\n        public\n        onlyOwner\n        whenNotPaused\n    {\n\n        // Revert transaction (refund gas) if\n        // the referrer is not whitelisted\n        require(\n            isWhitelisted[referrer],\n            'INVALID_REFERRER'\n        );\n\n        adminUpdate(target, contentId, isApproved);\n\n        adminUpdateRegistrantToReferrer(target, referrer);\n\n    }\n\n\n    function adminUpdateRegistrantToReferrer(\n        address target,\n        address referrer\n    )\n        public\n        onlyOwner\n        whenNotPaused\n    {\n\n        // Revert transaction (refund gas) if\n        // the target address has never registered\n        require(\n            hasRegistered(target),\n            'INVALID_TARGET'\n        );\n\n        // Revert transaction (refund gas) if\n        // the referrer is not whitelisted\n        require(\n            isWhitelisted[referrer],\n            'INVALID_REFERRER'\n        );\n\n        // Revert transaction (refund gas) if\n        // the target and referrer are the same\n        require(\n            target != referrer,\n            'INVALID_REFERRER'\n        );\n\n        registrantToReferrer[target] = referrer;\n\n    }\n\n    /// @dev Admin updates whitelist status for a given address.\n    /// @param target Address to update.\n    /// @param isApproved Whitelist status to assign to address.\n    function adminUpdateWhitelistStatus(\n        address target,\n        bool isApproved\n    )\n        external\n        onlyOwner\n        whenNotPaused\n    {\n\n        // Revert transaction (refund gas) if\n        // the requested whitelist status update is redundant\n        require(\n            isApproved != isWhitelisted[target],\n            'NO_STATUS_UPDATE_REQUIRED'\n        );\n\n        // Disallow users with no associated content ids\n        // (ex: admin or user themselves may have removed content ids)\n        if (isApproved == true) {\n            require(\n                getNumContentIds(target) > 0,\n                'ADDRESS_HAS_NO_ASSOCIATED_CONTENT_IDS'\n            );\n        }\n\n        isWhitelisted[target] = isApproved;\n\n    }\n\n    /// @dev Admin removes a contentId from a given address.\n    function adminRemoveContentIdFromAddress(\n        address target,\n        string memory contentId\n    )\n        public\n        onlyOwner\n        whenNotPaused\n    {\n\n        require(\n            contentIdToAddress[contentId] == target,\n            'CONTENT_ID_DOES_NOT_BELONG_TO_ADDRESS'\n        );\n\n        contentIdToAddress[contentId] = address(0x0000000000000000000000000000000000000000);\n\n        // Remove content id from addressToContentIds mapping\n        // by replacing it with empty string\n        ContentIdStruct[] memory m = addressToContentIds[target];\n        for (uint i = 0; i < m.length; i++) {\n            if (stringsMatch(contentId, m[i].contentId)) {\n                addressToContentIds[target][i] = ContentIdStruct('');\n            }\n        }\n\n        // If address has no valid content ids left, remove from Whitelist\n        if (getNumContentIds(target) == 0) {\n            isWhitelisted[target] = false;\n        }\n\n    }\n\n    /// @dev Admin removes *all* contentIds from a given address.\n    function adminRemoveAllContentIdsFromAddress(\n        address target\n    )\n        public\n        onlyOwner\n        whenNotPaused\n    {\n\n        // Loop thru content ids from addressToContentIds mapping\n        // by replacing each with empty string\n        ContentIdStruct[] memory m = addressToContentIds[target];\n        for (uint i = 0; i < m.length; i++) {\n            addressToContentIds[target][i] = ContentIdStruct('');\n        }\n\n        // Remove from whitelist\n        isWhitelisted[target] = false;\n\n    }\n\n\n    /*** Admin read-only functions ***/\n\n\n    /// @dev Admin gets address mapped to a contentId,\n    ///      regardless of isWhitelist status.\n    function adminGetAddressByContentId(\n        string calldata contentId\n    )\n        external\n        view\n        onlyOwner\n        returns (address target)\n    {\n\n        return contentIdToAddress[contentId];\n\n    }\n\n    /// @dev Admin gets contentIds mapped to any address,\n    ///      regardless of whitelist status. There is a\n    ///      public-facing version of this below that only returns\n    ///      content ids for whitelisted accounts.\n    /// @param target Ethereum address to return contentIds for.\n    function adminGetContentIdsByAddress(\n        address target\n    )\n        external\n        view\n        onlyOwner\n        returns (string[] memory)\n    {\n\n        ContentIdStruct[] memory m = addressToContentIds[target];\n        string[] memory r = new string[](m.length);\n\n        for (uint i = 0; i < m.length; i++) {\n            r[i] =  m[i].contentId;\n        }\n\n        return r;\n\n    }\n\n\n    /// @dev Returns valid whitelisted account address by registrant index number,\n    ///      regardless of whitelist status.\n    function adminGetRegistrantByIndex (\n        uint index\n    )\n        external\n        view\n        returns (address)\n    {\n\n        // Will throw error if specified index does not exist\n        return registrants[index];\n\n    }\n\n\n    /*** User-facing functions for reading registry status ***/\n\n\n    /// @dev Any address can check if an address has *ever* registered,\n    /// regardless of isWhitelisted status\n    function hasRegistered (\n        address target\n    )\n        public\n        view\n        returns(bool)\n    {\n\n        bool _hasRegistered = false;\n        for (uint i=0; i<registrants.length; i++) {\n            if (registrants[i] == target) {\n                return _hasRegistered = true;\n            }\n        }\n\n    }\n\n\n    /// @dev Returns count of all addresses that have *ever* registered,\n    /// regardless of their isWhitelisted status\n    function getRegistrantCount ()\n        external\n        view\n        returns (uint)\n    {\n\n        return registrants.length;\n\n    }\n\n\n    /// @dev Returns valid whitelisted account address by registrant index number.\n    function getRegistrantByIndex (\n        uint index\n    )\n        external\n        view\n        returns (address)\n    {\n\n        // Will throw error if specified index does not exist\n        address target = registrants[index];\n\n        require(\n            isWhitelisted[target],\n            'INVALID_ADDRESS'\n        );\n\n        return target;\n    }\n\n\n    /// @dev *Any* address can get a valid whitelisted account's contentIds.\n    ///      In practice, this is called from dapp(s).\n    function getContentIdsByAddress(\n        address target\n    )\n        external\n        view\n        returns (string[] memory)\n    {\n\n        require(\n            isWhitelisted[target],\n            'INVALID_ADDRESS'\n        );\n\n        ContentIdStruct[] memory m = addressToContentIds[target];\n        string[] memory r = new string[](m.length);\n\n        for (uint i = 0; i < m.length; i++) {\n            r[i] =  m[i].contentId;\n        }\n\n        return r;\n\n    }\n\n    /// @dev *Any* address can get a valid whitelisted account's\n    ///      address if they pass in (one of) its contentId(s).\n    function getAddressByContentId(\n        string calldata contentId\n    )\n        external\n        view\n        returns (address)\n    {\n\n        address target = contentIdToAddress[contentId];\n\n        require(\n            isWhitelisted[target],\n            'INVALID_ADDRESS'\n        );\n\n        return target;\n    }\n\n\n    /*** User-facing functions to update an account's own registry status ***/\n\n\n    /// @dev Valid whitelisted address can remove its own content id.\n    function removeContentIdFromAddress(\n        string calldata contentId\n    )\n        external\n        whenNotPaused\n    {\n\n        require(\n            isWhitelisted[msg.sender],\n            'INVALID_SENDER'\n        );\n\n        require(\n            contentIdToAddress[contentId] == msg.sender,\n            'CONTENT_ID_DOES_NOT_BELONG_TO_SENDER'\n        );\n\n        contentIdToAddress[contentId] = address(0x0000000000000000000000000000000000000000);\n\n        // Remove content id from addressToContentIds mapping\n        // by replacing it with empty string\n        ContentIdStruct[] memory m = addressToContentIds[msg.sender];\n        for (uint i = 0; i < m.length; i++) {\n            if (stringsMatch(contentId, m[i].contentId)) {\n                addressToContentIds[msg.sender][i] = ContentIdStruct('');\n            }\n        }\n\n        // If address has no valid content ids left, remove from Whitelist\n        if (getNumContentIds(msg.sender) == 0) {\n            isWhitelisted[msg.sender] = false;\n        }\n\n    }\n\n\n    /// @dev Valid whitelisted address can remove *all* contentIds from itself.\n    function removeAllContentIdsFromAddress(\n        address target\n    )\n        external\n        whenNotPaused\n    {\n\n        require(\n            isWhitelisted[msg.sender],\n            'INVALID_SENDER'\n        );\n\n        require(\n            target == msg.sender,\n            'INVALID_SENDER'\n        );\n\n        // Loop thru content ids from addressToContentIds mapping\n        // by replacing each with empty string\n        ContentIdStruct[] memory m = addressToContentIds[target];\n        for (uint i = 0; i < m.length; i++) {\n            addressToContentIds[target][i] = ContentIdStruct('');\n        }\n\n        // Remove from whitelist\n        isWhitelisted[target] = false;\n\n    }\n\n\n    /*** User roles and authorizations: Contract-to-contract read functions  ***/\n\n\n    /**\n     * The following functions check user Roles and Authorizations.\n     * For now, most of them simply check `isWhitelisted()` in this contract.\n     * But the long-term idea here is to create a path for Microsponsors\n     * to federate: allowing other organizations to create their own\n     * exchange front-ends with their own set of granular rules about minting,\n     * selling and re-selling tokens, cross-exchange arbitrage, etc etc.\n     */\n\n\n    /// @dev Valid whitelisted address validates registration of its own\n    ///      Content ID. In practice, this will be used by Microsponsors'\n    ///      ERC-721 for validating that an address is authorized to mint()\n    ///      a time slot for a given content id.\n    function isContentIdRegisteredToCaller(\n        string memory contentId\n    )\n        public\n        view\n        returns (bool)\n    {\n\n        // Check tx.origin (vs msg.sender) since this *is likely* invoked by\n        // another contract\n        require(\n            isWhitelisted[tx.origin],\n            'INVALID_SENDER'\n        );\n\n        address registrantAddress = contentIdToAddress[contentId];\n\n        require(\n            registrantAddress == tx.origin,\n            'INVALID_SENDER'\n        );\n\n        return true;\n\n    }\n\n    function isMinter(address account)\n        public\n        view\n        returns (bool)\n    {\n\n        require(\n            isWhitelisted[account],\n            'INVALID_MINTER'\n        );\n\n        return true;\n\n    }\n\n    function isTrader(address account)\n        public\n        view\n        returns (bool)\n    {\n\n        require(\n            isWhitelisted[account],\n            'INVALID_TRADER'\n        );\n\n        return true;\n\n    }\n\n    function isAuthorizedTransferFrom(address from, address to, uint256 tokenId)\n        public\n        view\n        returns (bool)\n    {\n\n        require(\n            isWhitelisted[from],\n            'INVALID_TRADER'\n        );\n\n        require(\n            isWhitelisted[to],\n            'INVALID_TRADER'\n        );\n\n        require(\n            tokenId > 0,\n            'INVALID_TOKEN_ID'\n        );\n\n        return true;\n\n    }\n\n    function isAuthorizedResale(address from, address to, uint256 tokenId)\n        public\n        view\n        returns (bool)\n    {\n\n        require(\n            isWhitelisted[from],\n            'INVALID_TRADER'\n        );\n\n        require(\n            isWhitelisted[to],\n            'INVALID_TRADER'\n        );\n\n        require(\n            tokenId > 0,\n            'INVALID_TOKEN_ID'\n        );\n\n        return true;\n\n    }\n\n\n    /*** Pausable: Adapted from OpenZeppelin (via Cryptokitties) ***/\n\n\n    /// @dev Modifier to allow actions only when the contract IS NOT paused\n    modifier whenNotPaused() {\n        require(!paused);\n        _;\n    }\n\n    /// @dev Modifier to allow actions only when the contract IS paused\n    modifier whenPaused {\n        require(paused);\n        _;\n    }\n\n    /// @dev Called by contract owner to pause actions on this contract\n    function pause() external onlyOwner whenNotPaused {\n        paused = true;\n    }\n\n    /// @dev Called by contract owner to unpause the smart contract.\n    /// @notice This is public rather than external so it can be called by\n    ///  derived contracts.\n    function unpause() public onlyOwner whenPaused {\n        // can't unpause if contract was upgraded\n        paused = false;\n    }\n\n\n    /*** Prevent Accidents! ***/\n\n\n    /// @notice No tipping!\n    /// @dev Reject all Ether from being sent here.\n    /// (Hopefully, we can prevent user accidents.)\n    ///  Hat-tip to Cryptokitties.\n    function() external payable {\n        require(\n            msg.sender == address(0)\n        );\n    }\n\n\n    /***  Helpers  ***/\n\n\n    function stringsMatch (\n        string memory a,\n        string memory b\n    )\n        private\n        pure\n        returns (bool)\n    {\n        return (keccak256(abi.encodePacked((a))) == keccak256(abi.encodePacked((b))) );\n    }\n\n\n    function getNumContentIds (\n        address target\n    )\n        private\n        view\n        returns (uint16)\n    {\n\n        ContentIdStruct[] memory m = addressToContentIds[target];\n        uint16 counter = 0;\n        for (uint i = 0; i < m.length; i++) {\n            // Omit entries that are empty strings\n            // (from contentIds that were removed by admin or user)\n            if (!stringsMatch('', m[i].contentId)) {\n                counter++;\n            }\n        }\n\n        return counter;\n\n    }\n\n\n}\n",
  "sourcePath": "/Users/lauren/github/registry-contract/contracts/Registry.sol",
  "compiler": {
    "name": "solc",
    "version": "0.5.5+commit.47a71e8f.Emscripten.clang"
  },
  "schemaVersion": "3.0.10",
  "updatedAt": "2020-01-03T02:19:58.120Z",
  "devdoc": {
    "methods": {
      "adminGetAddressByContentId(string)": {
        "details": "Admin gets address mapped to a contentId,      regardless of isWhitelist status."
      },
      "adminGetContentIdsByAddress(address)": {
        "details": "Admin gets contentIds mapped to any address,      regardless of whitelist status. There is a      public-facing version of this below that only returns      content ids for whitelisted accounts.",
        "params": {
          "target": "Ethereum address to return contentIds for."
        }
      },
      "adminGetRegistrantByIndex(uint256)": {
        "details": "Returns valid whitelisted account address by registrant index number,      regardless of whitelist status."
      },
      "adminRemoveAllContentIdsFromAddress(address)": {
        "details": "Admin removes *all* contentIds from a given address."
      },
      "adminRemoveContentIdFromAddress(address,string)": {
        "details": "Admin removes a contentId from a given address."
      },
      "adminUpdate(address,string,bool)": {
        "details": "Admin registers an address with a contentId.",
        "params": {
          "contentId": "To map the target's address to. UTF8-encoded SRN (a string).",
          "isApproved": "Whitelist status to assign to the address.",
          "target": "Address to add or remove from whitelist."
        }
      },
      "adminUpdateWhitelistStatus(address,bool)": {
        "details": "Admin updates whitelist status for a given address.",
        "params": {
          "isApproved": "Whitelist status to assign to address.",
          "target": "Address to update."
        }
      },
      "getAddressByContentId(string)": {
        "details": "*Any* address can get a valid whitelisted account's      address if they pass in (one of) its contentId(s)."
      },
      "getContentIdsByAddress(address)": {
        "details": "*Any* address can get a valid whitelisted account's contentIds.      In practice, this is called from dapp(s)."
      },
      "getRegistrantByIndex(uint256)": {
        "details": "Returns valid whitelisted account address by registrant index number."
      },
      "getRegistrantCount()": {
        "details": "Returns count of all addresses that have *ever* registered, regardless of their isWhitelisted status"
      },
      "hasRegistered(address)": {
        "details": "Any address can check if an address has *ever* registered, regardless of isWhitelisted status"
      },
      "isContentIdRegisteredToCaller(string)": {
        "details": "Valid whitelisted address validates registration of its own      Content ID. In practice, this will be used by Microsponsors'      ERC-721 for validating that an address is authorized to mint()      a time slot for a given content id."
      },
      "pause()": {
        "details": "Called by contract owner to pause actions on this contract"
      },
      "removeAllContentIdsFromAddress(address)": {
        "details": "Valid whitelisted address can remove *all* contentIds from itself."
      },
      "removeContentIdFromAddress(string)": {
        "details": "Valid whitelisted address can remove its own content id."
      },
      "unpause()": {
        "details": "Called by contract owner to unpause the smart contract."
      }
    }
  },
  "userdoc": {
    "methods": {
      "constructor": "*  Constructor  **",
      "unpause()": {
        "notice": "This is public rather than external so it can be called by  derived contracts."
      }
    }
  }
}