{
  "contractName": "Registry",
  "abi": [
    {
      "constant": true,
      "inputs": [
        {
          "name": "",
          "type": "address"
        }
      ],
      "name": "isWhitelisted",
      "outputs": [
        {
          "name": "",
          "type": "bool"
        }
      ],
      "payable": false,
      "stateMutability": "view",
      "type": "function"
    },
    {
      "constant": true,
      "inputs": [],
      "name": "paused",
      "outputs": [
        {
          "name": "",
          "type": "bool"
        }
      ],
      "payable": false,
      "stateMutability": "view",
      "type": "function"
    },
    {
      "constant": true,
      "inputs": [],
      "name": "owner",
      "outputs": [
        {
          "name": "",
          "type": "address"
        }
      ],
      "payable": false,
      "stateMutability": "view",
      "type": "function"
    },
    {
      "constant": false,
      "inputs": [
        {
          "name": "newOwner",
          "type": "address"
        }
      ],
      "name": "transferOwnership",
      "outputs": [],
      "payable": false,
      "stateMutability": "nonpayable",
      "type": "function"
    },
    {
      "inputs": [],
      "payable": false,
      "stateMutability": "nonpayable",
      "type": "constructor"
    },
    {
      "constant": false,
      "inputs": [
        {
          "name": "target",
          "type": "address"
        },
        {
          "name": "contentId",
          "type": "string"
        },
        {
          "name": "isApproved",
          "type": "bool"
        }
      ],
      "name": "adminUpdate",
      "outputs": [],
      "payable": false,
      "stateMutability": "nonpayable",
      "type": "function"
    },
    {
      "constant": false,
      "inputs": [
        {
          "name": "target",
          "type": "address"
        },
        {
          "name": "isApproved",
          "type": "bool"
        }
      ],
      "name": "adminUpdateWhitelistStatus",
      "outputs": [],
      "payable": false,
      "stateMutability": "nonpayable",
      "type": "function"
    },
    {
      "constant": false,
      "inputs": [
        {
          "name": "target",
          "type": "address"
        },
        {
          "name": "contentId",
          "type": "string"
        }
      ],
      "name": "adminRemoveContentIdFromAddress",
      "outputs": [],
      "payable": false,
      "stateMutability": "nonpayable",
      "type": "function"
    },
    {
      "constant": true,
      "inputs": [],
      "name": "adminGetRegistrantCount",
      "outputs": [
        {
          "name": "",
          "type": "uint256"
        }
      ],
      "payable": false,
      "stateMutability": "view",
      "type": "function"
    },
    {
      "constant": true,
      "inputs": [
        {
          "name": "index",
          "type": "uint256"
        }
      ],
      "name": "adminGetRegistrantByIndex",
      "outputs": [
        {
          "name": "",
          "type": "address"
        }
      ],
      "payable": false,
      "stateMutability": "view",
      "type": "function"
    },
    {
      "constant": true,
      "inputs": [
        {
          "name": "contentId",
          "type": "string"
        }
      ],
      "name": "adminGetAddressByContentId",
      "outputs": [
        {
          "name": "target",
          "type": "address"
        }
      ],
      "payable": false,
      "stateMutability": "view",
      "type": "function"
    },
    {
      "constant": true,
      "inputs": [
        {
          "name": "target",
          "type": "address"
        }
      ],
      "name": "adminGetContentIdsByAddress",
      "outputs": [
        {
          "name": "",
          "type": "string[]"
        }
      ],
      "payable": false,
      "stateMutability": "view",
      "type": "function"
    },
    {
      "constant": true,
      "inputs": [],
      "name": "getContentIdsByAddress",
      "outputs": [
        {
          "name": "",
          "type": "string[]"
        }
      ],
      "payable": false,
      "stateMutability": "view",
      "type": "function"
    },
    {
      "constant": true,
      "inputs": [
        {
          "name": "contentId",
          "type": "string"
        }
      ],
      "name": "isContentIdRegisteredToCaller",
      "outputs": [
        {
          "name": "",
          "type": "bool"
        }
      ],
      "payable": false,
      "stateMutability": "view",
      "type": "function"
    },
    {
      "constant": false,
      "inputs": [
        {
          "name": "contentId",
          "type": "string"
        }
      ],
      "name": "removeContentIdFromAddress",
      "outputs": [],
      "payable": false,
      "stateMutability": "nonpayable",
      "type": "function"
    },
    {
      "constant": false,
      "inputs": [],
      "name": "pause",
      "outputs": [],
      "payable": false,
      "stateMutability": "nonpayable",
      "type": "function"
    },
    {
      "constant": false,
      "inputs": [],
      "name": "unpause",
      "outputs": [],
      "payable": false,
      "stateMutability": "nonpayable",
      "type": "function"
    },
    {
      "constant": true,
      "inputs": [
        {
          "name": "target",
          "type": "address"
        }
      ],
      "name": "hasRegistered",
      "outputs": [
        {
          "name": "",
          "type": "bool"
        }
      ],
      "payable": false,
      "stateMutability": "view",
      "type": "function"
    }
  ],
  "bytecode": "0x60806040526000600560006101000a81548160ff02191690831515021790555034801561002b57600080fd5b50336000806101000a81548173ffffffffffffffffffffffffffffffffffffffff021916908373ffffffffffffffffffffffffffffffffffffffff1602179055506129598061007b6000396000f3fe608060405234801561001057600080fd5b506004361061010b5760003560e01c80638456cb59116100a2578063da50246011610071578063da502460146102bc578063de08679a146102d8578063ed5d0bcf146102f4578063f2fde38b14610310578063f5ccddcc1461032c5761010b565b80638456cb59146102465780638da5cb5b1461025057806396743b261461026e578063a0d035261461028c5761010b565b806349816041116100de57806349816041146101aa5780635c975abb146101da57806365d9abbb146101f85780637b97d034146102165761010b565b80630cb2da07146101105780633af32abf146101405780633f4ba83a1461017057806347ba747a1461017a575b600080fd5b61012a600480360361012591908101906122ab565b610348565b6040516101379190612637565b60405180910390f35b61015a60048036036101559190810190612141565b61041c565b6040516101679190612674565b60405180910390f35b61017861043c565b005b610194600480360361018f9190810190612266565b610505565b6040516101a19190612674565b60405180910390f35b6101c460048036036101bf9190810190612141565b610655565b6040516101d19190612652565b60405180910390f35b6101e26108b7565b6040516101ef9190612674565b60405180910390f35b6102006108ca565b60405161020d9190612652565b60405180910390f35b610230600480360361022b9190810190612266565b610b27565b60405161023d9190612637565b60405180910390f35b61024e610c03565b005b610258610ccd565b6040516102659190612637565b60405180910390f35b610276610cf2565b604051610283919061274f565b60405180910390f35b6102a660048036036102a19190810190612141565b610d90565b6040516102b39190612674565b60405180910390f35b6102d660048036036102d19190810190612266565b610e3a565b005b6102f260048036036102ed91908101906121a6565b6112be565b005b61030e60048036036103099190810190612212565b611677565b005b61032a60048036036103259190810190612141565b611ab6565b005b6103466004803603610341919081019061216a565b611bc1565b005b60008060009054906101000a900473ffffffffffffffffffffffffffffffffffffffff1673ffffffffffffffffffffffffffffffffffffffff163373ffffffffffffffffffffffffffffffffffffffff161415156103db576040517f08c379a00000000000000000000000000000000000000000000000000000000081526004016103d2906126ef565b60405180910390fd5b6001828154811015156103ea57fe5b9060005260206000200160009054906101000a900473ffffffffffffffffffffffffffffffffffffffff169050919050565b60026020528060005260406000206000915054906101000a900460ff1681565b6000809054906101000a900473ffffffffffffffffffffffffffffffffffffffff1673ffffffffffffffffffffffffffffffffffffffff163373ffffffffffffffffffffffffffffffffffffffff161415156104cd576040517f08c379a00000000000000000000000000000000000000000000000000000000081526004016104c4906126ef565b60405180910390fd5b600560009054906101000a900460ff1615156104e857600080fd5b6000600560006101000a81548160ff021916908315150217905550565b6000600260003273ffffffffffffffffffffffffffffffffffffffff1673ffffffffffffffffffffffffffffffffffffffff16815260200190815260200160002060009054906101000a900460ff161515610595576040517f08c379a000000000000000000000000000000000000000000000000000000000815260040161058c9061272f565b60405180910390fd5b6000600484846040516105a9929190612607565b908152602001604051809103902060009054906101000a900473ffffffffffffffffffffffffffffffffffffffff1690503273ffffffffffffffffffffffffffffffffffffffff168173ffffffffffffffffffffffffffffffffffffffff1614151561064a576040517f08c379a00000000000000000000000000000000000000000000000000000000081526004016106419061272f565b60405180910390fd5b600191505092915050565b60606000809054906101000a900473ffffffffffffffffffffffffffffffffffffffff1673ffffffffffffffffffffffffffffffffffffffff163373ffffffffffffffffffffffffffffffffffffffff161415156106e8576040517f08c379a00000000000000000000000000000000000000000000000000000000081526004016106df906126ef565b60405180910390fd5b6060600360008473ffffffffffffffffffffffffffffffffffffffff1673ffffffffffffffffffffffffffffffffffffffff168152602001908152602001600020805480602002602001604051908101604052809291908181526020016000905b8282101561081957838290600052602060002001604051806020016040529081600082018054600181600116156101000203166002900480601f0160208091040260200160405190810160405280929190818152602001828054600181600116156101000203166002900480156108015780601f106107d657610100808354040283529160200191610801565b820191906000526020600020905b8154815290600101906020018083116107e457829003601f168201915b50505050508152505081526020019060010190610749565b5050505090506060815160405190808252806020026020018201604052801561085657816020015b60608152602001906001900390816108415790505b50905060008090505b82518110156108ac57828181518110151561087657fe5b9060200190602002015160000151828281518110151561089257fe5b90602001906020020181905250808060010191505061085f565b508092505050919050565b600560009054906101000a900460ff1681565b6060600260003373ffffffffffffffffffffffffffffffffffffffff1673ffffffffffffffffffffffffffffffffffffffff16815260200190815260200160002060009054906101000a900460ff16151561095a576040517f08c379a00000000000000000000000000000000000000000000000000000000081526004016109519061272f565b60405180910390fd5b6060600360003373ffffffffffffffffffffffffffffffffffffffff1673ffffffffffffffffffffffffffffffffffffffff168152602001908152602001600020805480602002602001604051908101604052809291908181526020016000905b82821015610a8b57838290600052602060002001604051806020016040529081600082018054600181600116156101000203166002900480601f016020809104026020016040519081016040528092919081815260200182805460018160011615610100020316600290048015610a735780601f10610a4857610100808354040283529160200191610a73565b820191906000526020600020905b815481529060010190602001808311610a5657829003601f168201915b505050505081525050815260200190600101906109bb565b50505050905060608151604051908082528060200260200182016040528015610ac857816020015b6060815260200190600190039081610ab35790505b50905060008090505b8251811015610b1e578281815181101515610ae857fe5b90602001906020020151600001518282815181101515610b0457fe5b906020019060200201819052508080600101915050610ad1565b50809250505090565b60008060009054906101000a900473ffffffffffffffffffffffffffffffffffffffff1673ffffffffffffffffffffffffffffffffffffffff163373ffffffffffffffffffffffffffffffffffffffff16141515610bba576040517f08c379a0000000000000000000000000000000000000000000000000000000008152600401610bb1906126ef565b60405180910390fd5b60048383604051610bcc929190612607565b908152602001604051809103902060009054906101000a900473ffffffffffffffffffffffffffffffffffffffff16905092915050565b6000809054906101000a900473ffffffffffffffffffffffffffffffffffffffff1673ffffffffffffffffffffffffffffffffffffffff163373ffffffffffffffffffffffffffffffffffffffff16141515610c94576040517f08c379a0000000000000000000000000000000000000000000000000000000008152600401610c8b906126ef565b60405180910390fd5b600560009054906101000a900460ff16151515610cb057600080fd5b6001600560006101000a81548160ff021916908315150217905550565b6000809054906101000a900473ffffffffffffffffffffffffffffffffffffffff1681565b60008060009054906101000a900473ffffffffffffffffffffffffffffffffffffffff1673ffffffffffffffffffffffffffffffffffffffff163373ffffffffffffffffffffffffffffffffffffffff16141515610d85576040517f08c379a0000000000000000000000000000000000000000000000000000000008152600401610d7c906126ef565b60405180910390fd5b600180549050905090565b6000806000905060008090505b600180549050811015610e32578373ffffffffffffffffffffffffffffffffffffffff16600182815481101515610dd057fe5b9060005260206000200160009054906101000a900473ffffffffffffffffffffffffffffffffffffffff1673ffffffffffffffffffffffffffffffffffffffff161415610e2557600191508192505050610e35565b8080600101915050610d9d565b50505b919050565b600560009054906101000a900460ff16151515610e5657600080fd5b600260003373ffffffffffffffffffffffffffffffffffffffff1673ffffffffffffffffffffffffffffffffffffffff16815260200190815260200160002060009054906101000a900460ff161515610ee4576040517f08c379a0000000000000000000000000000000000000000000000000000000008152600401610edb9061272f565b60405180910390fd5b3373ffffffffffffffffffffffffffffffffffffffff1660048383604051610f0d929190612607565b908152602001604051809103902060009054906101000a900473ffffffffffffffffffffffffffffffffffffffff1673ffffffffffffffffffffffffffffffffffffffff16141515610f94576040517f08c379a0000000000000000000000000000000000000000000000000000000008152600401610f8b9061268f565b60405180910390fd5b600060048383604051610fa8929190612607565b908152602001604051809103902060006101000a81548173ffffffffffffffffffffffffffffffffffffffff021916908373ffffffffffffffffffffffffffffffffffffffff1602179055506060600360003373ffffffffffffffffffffffffffffffffffffffff1673ffffffffffffffffffffffffffffffffffffffff168152602001908152602001600020805480602002602001604051908101604052809291908181526020016000905b8282101561112557838290600052602060002001604051806020016040529081600082018054600181600116156101000203166002900480601f01602080910402602001604051908101604052809291908181526020018280546001816001161561010002031660029004801561110d5780601f106110e25761010080835404028352916020019161110d565b820191906000526020600020905b8154815290600101906020018083116110f057829003601f168201915b50505050508152505081526020019060010190611055565b50505050905060008090505b815181101561124a576111a384848080601f016020809104026020016040519081016040528093929190818152602001838380828437600081840152601f19601f82011690508083019250505050505050838381518110151561119057fe5b9060200190602002015160000151611dbd565b1561123d57604051806020016040528060405180602001604052806000815250815250600360003373ffffffffffffffffffffffffffffffffffffffff1673ffffffffffffffffffffffffffffffffffffffff1681526020019081526020016000208281548110151561121257fe5b906000526020600020016000820151816000019080519060200190611238929190611fbe565b509050505b8080600101915050611131565b50600061125633611e16565b61ffff1614156112b9576000600260003373ffffffffffffffffffffffffffffffffffffffff1673ffffffffffffffffffffffffffffffffffffffff16815260200190815260200160002060006101000a81548160ff0219169083151502179055505b505050565b6000809054906101000a900473ffffffffffffffffffffffffffffffffffffffff1673ffffffffffffffffffffffffffffffffffffffff163373ffffffffffffffffffffffffffffffffffffffff1614151561134f576040517f08c379a0000000000000000000000000000000000000000000000000000000008152600401611346906126ef565b60405180910390fd5b600560009054906101000a900460ff1615151561136b57600080fd5b60006004848460405161137f929190612607565b908152602001604051809103902060009054906101000a900473ffffffffffffffffffffffffffffffffffffffff1690508473ffffffffffffffffffffffffffffffffffffffff168173ffffffffffffffffffffffffffffffffffffffff161415156115a357600073ffffffffffffffffffffffffffffffffffffffff168173ffffffffffffffffffffffffffffffffffffffff1614151561146a576114698185858080601f016020809104026020016040519081016040528093929190818152602001838380828437600081840152601f19601f82011690508083019250505050505050611677565b5b600360008673ffffffffffffffffffffffffffffffffffffffff1673ffffffffffffffffffffffffffffffffffffffff168152602001908152602001600020604051806020016040528086868080601f016020809104026020016040519081016040528093929190818152602001838380828437600081840152601f19601f82011690508083019250505050505050815250908060018154018082558091505090600182039060005260206000200160009091929091909150600082015181600001908051906020019061153f929190611fbe565b505050508460048585604051611556929190612607565b908152602001604051809103902060006101000a81548173ffffffffffffffffffffffffffffffffffffffff021916908373ffffffffffffffffffffffffffffffffffffffff1602179055505b6115ac85610d90565b15156116195760018590806001815401808255809150509060018203906000526020600020016000909192909190916101000a81548173ffffffffffffffffffffffffffffffffffffffff021916908373ffffffffffffffffffffffffffffffffffffffff160217905550505b81600260008773ffffffffffffffffffffffffffffffffffffffff1673ffffffffffffffffffffffffffffffffffffffff16815260200190815260200160002060006101000a81548160ff0219169083151502179055505050505050565b6000809054906101000a900473ffffffffffffffffffffffffffffffffffffffff1673ffffffffffffffffffffffffffffffffffffffff163373ffffffffffffffffffffffffffffffffffffffff16141515611708576040517f08c379a00000000000000000000000000000000000000000000000000000000081526004016116ff906126ef565b60405180910390fd5b600560009054906101000a900460ff1615151561172457600080fd5b8173ffffffffffffffffffffffffffffffffffffffff1660048260405161174b9190612620565b908152602001604051809103902060009054906101000a900473ffffffffffffffffffffffffffffffffffffffff1673ffffffffffffffffffffffffffffffffffffffff161415156117d2576040517f08c379a00000000000000000000000000000000000000000000000000000000081526004016117c99061270f565b60405180910390fd5b60006004826040516117e49190612620565b908152602001604051809103902060006101000a81548173ffffffffffffffffffffffffffffffffffffffff021916908373ffffffffffffffffffffffffffffffffffffffff1602179055506060600360008473ffffffffffffffffffffffffffffffffffffffff1673ffffffffffffffffffffffffffffffffffffffff168152602001908152602001600020805480602002602001604051908101604052809291908181526020016000905b8282101561196157838290600052602060002001604051806020016040529081600082018054600181600116156101000203166002900480601f0160208091040260200160405190810160405280929190818152602001828054600181600116156101000203166002900480156119495780601f1061191e57610100808354040283529160200191611949565b820191906000526020600020905b81548152906001019060200180831161192c57829003601f168201915b50505050508152505081526020019060010190611891565b50505050905060008090505b8151811015611a425761199b83838381518110151561198857fe5b9060200190602002015160000151611dbd565b15611a3557604051806020016040528060405180602001604052806000815250815250600360008673ffffffffffffffffffffffffffffffffffffffff1673ffffffffffffffffffffffffffffffffffffffff16815260200190815260200160002082815481101515611a0a57fe5b906000526020600020016000820151816000019080519060200190611a30929190611fbe565b509050505b808060010191505061196d565b506000611a4e84611e16565b61ffff161415611ab1576000600260008573ffffffffffffffffffffffffffffffffffffffff1673ffffffffffffffffffffffffffffffffffffffff16815260200190815260200160002060006101000a81548160ff0219169083151502179055505b505050565b6000809054906101000a900473ffffffffffffffffffffffffffffffffffffffff1673ffffffffffffffffffffffffffffffffffffffff163373ffffffffffffffffffffffffffffffffffffffff16141515611b47576040517f08c379a0000000000000000000000000000000000000000000000000000000008152600401611b3e906126ef565b60405180910390fd5b600073ffffffffffffffffffffffffffffffffffffffff168173ffffffffffffffffffffffffffffffffffffffff16141515611bbe57806000806101000a81548173ffffffffffffffffffffffffffffffffffffffff021916908373ffffffffffffffffffffffffffffffffffffffff1602179055505b50565b6000809054906101000a900473ffffffffffffffffffffffffffffffffffffffff1673ffffffffffffffffffffffffffffffffffffffff163373ffffffffffffffffffffffffffffffffffffffff16141515611c52576040517f08c379a0000000000000000000000000000000000000000000000000000000008152600401611c49906126ef565b60405180910390fd5b600560009054906101000a900460ff16151515611c6e57600080fd5b600260008373ffffffffffffffffffffffffffffffffffffffff1673ffffffffffffffffffffffffffffffffffffffff16815260200190815260200160002060009054906101000a900460ff16151581151514151515611d03576040517f08c379a0000000000000000000000000000000000000000000000000000000008152600401611cfa906126af565b60405180910390fd5b600115158115151415611d62576000611d1b83611e16565b61ffff16111515611d61576040517f08c379a0000000000000000000000000000000000000000000000000000000008152600401611d58906126cf565b60405180910390fd5b5b80600260008473ffffffffffffffffffffffffffffffffffffffff1673ffffffffffffffffffffffffffffffffffffffff16815260200190815260200160002060006101000a81548160ff0219169083151502179055505050565b600081604051602001611dd09190612620565b6040516020818303038152906040528051906020012083604051602001611df79190612620565b6040516020818303038152906040528051906020012014905092915050565b60006060600360008473ffffffffffffffffffffffffffffffffffffffff1673ffffffffffffffffffffffffffffffffffffffff168152602001908152602001600020805480602002602001604051908101604052809291908181526020016000905b82821015611f4957838290600052602060002001604051806020016040529081600082018054600181600116156101000203166002900480601f016020809104026020016040519081016040528092919081815260200182805460018160011615610100020316600290048015611f315780601f10611f0657610100808354040283529160200191611f31565b820191906000526020600020905b815481529060010190602001808311611f1457829003601f168201915b50505050508152505081526020019060010190611e79565b505050509050600080905060008090505b8251811015611fb357611f97604051806020016040528060008152508483815181101515611f8457fe5b9060200190602002015160000151611dbd565b1515611fa65781806001019250505b8080600101915050611f5a565b508092505050919050565b828054600181600116156101000203166002900490600052602060002090601f016020900481019282601f10611fff57805160ff191683800117855561202d565b8280016001018555821561202d579182015b8281111561202c578251825591602001919060010190612011565b5b50905061203a919061203e565b5090565b61206091905b8082111561205c576000816000905550600101612044565b5090565b90565b600061206f8235612884565b905092915050565b60006120838235612896565b905092915050565b60008083601f840112151561209f57600080fd5b8235905067ffffffffffffffff8111156120b857600080fd5b6020830191508360018202830111156120d057600080fd5b9250929050565b600082601f83011215156120ea57600080fd5b81356120fd6120f882612797565b61276a565b9150808252602083016020830185838301111561211957600080fd5b6121248382846128cc565b50505092915050565b600061213982356128c2565b905092915050565b60006020828403121561215357600080fd5b600061216184828501612063565b91505092915050565b6000806040838503121561217d57600080fd5b600061218b85828601612063565b925050602061219c85828601612077565b9150509250929050565b600080600080606085870312156121bc57600080fd5b60006121ca87828801612063565b945050602085013567ffffffffffffffff8111156121e757600080fd5b6121f38782880161208b565b9350935050604061220687828801612077565b91505092959194509250565b6000806040838503121561222557600080fd5b600061223385828601612063565b925050602083013567ffffffffffffffff81111561225057600080fd5b61225c858286016120d7565b9150509250929050565b6000806020838503121561227957600080fd5b600083013567ffffffffffffffff81111561229357600080fd5b61229f8582860161208b565b92509250509250929050565b6000602082840312156122bd57600080fd5b60006122cb8482850161212d565b91505092915050565b60006122e083836123cd565b905092915050565b6122f18161283c565b82525050565b6000612302826127d0565b61230c81856127fe565b93508360208202850161231e856127c3565b60005b848110156123575783830388526123398383516122d4565b9250612344826127f1565b9150602088019750600181019050612321565b508196508694505050505092915050565b6123718161284e565b82525050565b60006123838385612831565b93506123908385846128cc565b82840190509392505050565b60006123a7826127e6565b6123b18185612831565b93506123c18185602086016128db565b80840191505092915050565b60006123d8826127db565b6123e2818561280f565b93506123f28185602086016128db565b6123fb8161290e565b840191505092915050565b6000612413602483612820565b91507f434f4e54454e545f49445f444f45535f4e4f545f42454c4f4e475f544f5f534560008301527f4e444552000000000000000000000000000000000000000000000000000000006020830152604082019050919050565b6000612479601983612820565b91507f4e4f5f5354415455535f5550444154455f5245515549524544000000000000006000830152602082019050919050565b60006124b9602583612820565b91507f414444524553535f4841535f4e4f5f4153534f4349415445445f434f4e54454e60008301527f545f4944530000000000000000000000000000000000000000000000000000006020830152604082019050919050565b600061251f601383612820565b91507f4f4e4c595f434f4e54524143545f4f574e4552000000000000000000000000006000830152602082019050919050565b600061255f602583612820565b91507f434f4e54454e545f49445f444f45535f4e4f545f42454c4f4e475f544f5f414460008301527f44524553530000000000000000000000000000000000000000000000000000006020830152604082019050919050565b60006125c5600e83612820565b91507f494e56414c49445f53454e4445520000000000000000000000000000000000006000830152602082019050919050565b6126018161287a565b82525050565b6000612614828486612377565b91508190509392505050565b600061262c828461239c565b915081905092915050565b600060208201905061264c60008301846122e8565b92915050565b6000602082019050818103600083015261266c81846122f7565b905092915050565b60006020820190506126896000830184612368565b92915050565b600060208201905081810360008301526126a881612406565b9050919050565b600060208201905081810360008301526126c88161246c565b9050919050565b600060208201905081810360008301526126e8816124ac565b9050919050565b6000602082019050818103600083015261270881612512565b9050919050565b6000602082019050818103600083015261272881612552565b9050919050565b60006020820190508181036000830152612748816125b8565b9050919050565b600060208201905061276460008301846125f8565b92915050565b6000604051905081810181811067ffffffffffffffff8211171561278d57600080fd5b8060405250919050565b600067ffffffffffffffff8211156127ae57600080fd5b601f19601f8301169050602081019050919050565b6000602082019050919050565b600081519050919050565b600081519050919050565b600081519050919050565b6000602082019050919050565b600082825260208201905092915050565b600082825260208201905092915050565b600082825260208201905092915050565b600081905092915050565b60006128478261285a565b9050919050565b60008115159050919050565b600073ffffffffffffffffffffffffffffffffffffffff82169050919050565b6000819050919050565b600061288f826128a2565b9050919050565b60008115159050919050565b600073ffffffffffffffffffffffffffffffffffffffff82169050919050565b6000819050919050565b82818337600083830152505050565b60005b838110156128f95780820151818401526020810190506128de565b83811115612908576000848401525b50505050565b6000601f19601f830116905091905056fea265627a7a72305820d0bfee07c2ae79d2f710e890787aadf0327e436a6d9dd4cac7812708444a4d196c6578706572696d656e74616cf50037",
  "source": "/*\n\n  Copyright 2019 Niche Networks, Inc. (owns & operates Microsponsors.io)\n\n  Licensed under the Apache License, Version 2.0 (the \"License\");\n  you may not use this file except in compliance with the License.\n  You may obtain a copy of the License at\n\n    http://www.apache.org/licenses/LICENSE-2.0\n\n  Unless required by applicable law or agreed to in writing, software\n  distributed under the License is distributed on an \"AS IS\" BASIS,\n  WITHOUT WARRANTIES OR CONDITIONS OF ANY KIND, either express or implied.\n  See the License for the specific language governing permissions and\n  limitations under the License.\n\n*/\n\npragma solidity ^0.5.5;\npragma experimental ABIEncoderV2;\n\nimport \"@0x/contracts-utils/contracts/src/Ownable.sol\";\n\n\ncontract Registry is\n    Ownable\n{\n\n\n    /***  Microsponsors Registry Data:  ***/\n\n\n    // Array of registrant addresses,\n    // regardless of isWhitelisted status\n    address[] private registrants;\n\n    // Map address => whitelist status.\n    // Addresses authorized to transact.\n    mapping (address => bool) public isWhitelisted;\n\n    // Map address => array of ContentId structs.\n    // Using struct because there is not mapping to an array of strings in Solidity at this time.\n    struct ContentIdStruct {\n        string contentId;\n    }\n    mapping (address => ContentIdStruct[]) private addressToContentIds;\n\n    // Map contentId => address (for reverse-lookups)\n    mapping (string => address) private contentIdToAddress;\n\n    // Pause. When true, Registry state updates and 0x order fills are blocked.\n    bool public paused = false;\n\n\n    /***  Constructor  ***/\n\n    constructor ()\n        public\n    {\n\n    }\n\n\n    /***  Admin functions (onlyOwner) that mutate contract state  ***/\n\n\n    /// @dev Admin registers an address with a contentId.\n    /// @param target Address to add or remove from whitelist.\n    /// @param contentId To map the address to. Hex-encoded UTF8 string.\n    /// @param isApproved Whitelist status to assign to the address.\n    function adminUpdate(\n        address target,\n        string calldata contentId,\n        bool isApproved\n    )\n        external\n        onlyOwner\n        whenNotPaused\n    {\n\n        address previousOwner = contentIdToAddress[contentId];\n\n        if (previousOwner != target) {\n\n            // If contentId already belongs to another owner address\n            // it must be explicitly removed by admin remove fn\n            // which will also remove that address from whitelist\n            // if this was its only contentId\n            if (previousOwner != 0x0000000000000000000000000000000000000000) {\n                adminRemoveContentIdFromAddress(previousOwner, contentId);\n            }\n\n            // Assign content id to new registrant address\n            addressToContentIds[target].push( ContentIdStruct(contentId) );\n            contentIdToAddress[contentId] = target;\n\n        }\n\n        if (!hasRegistered(target)) {\n            registrants.push(target);\n        }\n\n        isWhitelisted[target] = isApproved;\n\n    }\n\n\n    /// @dev Admin updates whitelist status for a given address.\n    /// @param target Address to update.\n    /// @param isApproved Whitelist status to assign to address.\n    function adminUpdateWhitelistStatus(\n        address target,\n        bool isApproved\n    )\n        external\n        onlyOwner\n        whenNotPaused\n    {\n\n        // Revert transaction (refund gas) if\n        // the requested whitelist status update is redundant\n        require(\n            isApproved != isWhitelisted[target],\n            'NO_STATUS_UPDATE_REQUIRED'\n        );\n\n        // Disallow users with no associated content ids\n        // (ex: admin or user themselves may have removed content ids)\n        if (isApproved == true) {\n            require(\n                getNumContentIds(target) > 0,\n                'ADDRESS_HAS_NO_ASSOCIATED_CONTENT_IDS'\n            );\n        }\n\n        isWhitelisted[target] = isApproved;\n\n    }\n\n    /// @dev Admin removes a contentId from a given address.\n    function adminRemoveContentIdFromAddress(\n        address target,\n        string memory contentId\n    )\n        public\n        onlyOwner\n        whenNotPaused\n    {\n\n        require(\n            contentIdToAddress[contentId] == target,\n            'CONTENT_ID_DOES_NOT_BELONG_TO_ADDRESS'\n        );\n\n        contentIdToAddress[contentId] = address(0x0000000000000000000000000000000000000000);\n\n        // Remove content id from addressToContentIds mapping\n        // by replacing it with empty string\n        ContentIdStruct[] memory m = addressToContentIds[target];\n        for (uint i = 0; i < m.length; i++) {\n            if (stringsMatch(contentId, m[i].contentId)) {\n                addressToContentIds[target][i] = ContentIdStruct('');\n            }\n        }\n\n        // If address has no valid content ids left, remove from Whitelist\n        if (getNumContentIds(target) == 0) {\n            isWhitelisted[target] = false;\n        }\n\n    }\n\n\n    /*** Admin read-only functions ***/\n\n\n    function adminGetRegistrantCount ()\n        external\n        view\n        onlyOwner\n        returns (uint)\n    {\n\n        return registrants.length;\n\n    }\n\n    function adminGetRegistrantByIndex (\n        uint index\n    )\n        external\n        view\n        onlyOwner\n        returns (address)\n    {\n\n        // Will throw error if specified index does not exist\n        return registrants[index];\n\n    }\n\n\n    function adminGetAddressByContentId(\n        string calldata contentId\n    )\n        external\n        view\n        onlyOwner\n        returns (address target)\n    {\n\n        return contentIdToAddress[contentId];\n\n    }\n\n\n    /// @dev Admin gets contentIds mapped to a valid whitelisted address.\n    /// @param target Ethereum address to validate & return contentIds for.\n    function adminGetContentIdsByAddress(\n        address target\n    )\n        external\n        view\n        onlyOwner\n        returns (string[] memory)\n    {\n\n        ContentIdStruct[] memory m = addressToContentIds[target];\n        string[] memory r = new string[](m.length);\n\n        for (uint i = 0; i < m.length; i++) {\n            r[i] =  m[i].contentId;\n        }\n\n        return r;\n\n    }\n\n\n    /*** User-facing functions ***/\n\n\n    /// @dev Valid whitelisted address can query its own contentIds.\n    ///      In practice, this is called from the Microsponsors dapp so a\n    ///      user can view their own content ids.\n    function getContentIdsByAddress()\n        external\n        view\n        returns (string[] memory)\n    {\n\n        require(\n            isWhitelisted[msg.sender],\n            'INVALID_SENDER'\n        );\n\n        ContentIdStruct[] memory m = addressToContentIds[msg.sender];\n        string[] memory r = new string[](m.length);\n\n        for (uint i = 0; i < m.length; i++) {\n            r[i] =  m[i].contentId;\n        }\n\n        return r;\n\n    }\n\n    /// @dev Valid whitelisted address validates registration of its own\n    ///      single contentId.\n    ///      In practice, this will be used by Microsponsors' ERC-721 for\n    ///      validating that an address is authorized to mint() a time slot\n    ///      for a given content id.\n    function isContentIdRegisteredToCaller(string calldata contentId)\n        external\n        view\n        returns(bool)\n    {\n\n        // Check tx.origin vs msg.sender since this will be invoked by\n        // Microsponsors' ERC-721 contract\n        require(\n            isWhitelisted[tx.origin],\n            'INVALID_SENDER'\n        );\n\n        address registrantAddress = contentIdToAddress[contentId];\n\n        require(\n            registrantAddress == tx.origin,\n            'INVALID_SENDER'\n        );\n\n        return true;\n\n    }\n\n\n    /// @dev Valid whitelisted address can remove its own content id.\n    function removeContentIdFromAddress(\n        string calldata contentId\n    )\n        external\n        whenNotPaused\n    {\n\n        require(\n            isWhitelisted[msg.sender],\n            'INVALID_SENDER'\n        );\n\n        require(\n            contentIdToAddress[contentId] == msg.sender,\n            'CONTENT_ID_DOES_NOT_BELONG_TO_SENDER'\n        );\n\n        contentIdToAddress[contentId] = address(0x0000000000000000000000000000000000000000);\n\n        // Remove content id from addressToContentIds mapping\n        // by replacing it with empty string\n        ContentIdStruct[] memory m = addressToContentIds[msg.sender];\n        for (uint i = 0; i < m.length; i++) {\n            if (stringsMatch(contentId, m[i].contentId)) {\n                addressToContentIds[msg.sender][i] = ContentIdStruct('');\n            }\n        }\n\n        // If address has no valid content ids left, remove from Whitelist\n        if (getNumContentIds(msg.sender) == 0) {\n            isWhitelisted[msg.sender] = false;\n        }\n\n    }\n\n\n    /*** Pausable: Adapted from OpenZeppelin (via Cryptokitties) ***/\n\n\n    /// @dev Modifier to allow actions only when the contract IS NOT paused\n    modifier whenNotPaused() {\n        require(!paused);\n        _;\n    }\n\n    /// @dev Modifier to allow actions only when the contract IS paused\n    modifier whenPaused {\n        require(paused);\n        _;\n    }\n\n    /// @dev Called by contract owner to pause actions on this contract\n    function pause() external onlyOwner whenNotPaused {\n        paused = true;\n    }\n\n    /// @dev Called by contract owner to unpause the smart contract.\n    /// @notice This is public rather than external so it can be called by\n    ///  derived contracts.\n    function unpause() public onlyOwner whenPaused {\n        // can't unpause if contract was upgraded\n        paused = false;\n    }\n\n\n    /***  Helpers  ***/\n\n\n    /// @dev Check if an address has *ever* registered,\n    /// regardless of isWhitelisted status\n    function hasRegistered (\n        address target\n    )\n        public\n        view\n        returns(bool)\n    {\n\n        bool _hasRegistered = false;\n        for (uint i=0; i<registrants.length; i++) {\n            if (registrants[i] == target) {\n                return _hasRegistered = true;\n            }\n        }\n\n    }\n\n\n    function stringsMatch (\n        string memory a,\n        string memory b\n    )\n        private\n        pure\n        returns (bool)\n    {\n        return (keccak256(abi.encodePacked((a))) == keccak256(abi.encodePacked((b))) );\n    }\n\n\n    function getNumContentIds (\n        address target\n    )\n        private\n        view\n        returns (uint16)\n    {\n\n        ContentIdStruct[] memory m = addressToContentIds[target];\n        uint16 counter = 0;\n        for (uint i = 0; i < m.length; i++) {\n            // Omit entries that are empty strings\n            // (from contentIds that were removed by admin or user)\n            if (!stringsMatch('', m[i].contentId)) {\n                counter++;\n            }\n        }\n\n        return counter;\n\n    }\n\n\n}\n",
  "sourcePath": "/Users/lauren/github/registry-contract/contracts/Registry.sol",
  "compiler": {
    "name": "solc",
    "version": "0.5.5+commit.47a71e8f.Emscripten.clang"
  },
  "schemaVersion": "3.0.10",
  "updatedAt": "2019-12-23T20:36:04.384Z",
  "devdoc": {
    "methods": {
      "adminGetContentIdsByAddress(address)": {
        "details": "Admin gets contentIds mapped to a valid whitelisted address.",
        "params": {
          "target": "Ethereum address to validate & return contentIds for."
        }
      },
      "adminRemoveContentIdFromAddress(address,string)": {
        "details": "Admin removes a contentId from a given address."
      },
      "adminUpdate(address,string,bool)": {
        "details": "Admin registers an address with a contentId.",
        "params": {
          "contentId": "To map the address to. Hex-encoded UTF8 string.",
          "isApproved": "Whitelist status to assign to the address.",
          "target": "Address to add or remove from whitelist."
        }
      },
      "adminUpdateWhitelistStatus(address,bool)": {
        "details": "Admin updates whitelist status for a given address.",
        "params": {
          "isApproved": "Whitelist status to assign to address.",
          "target": "Address to update."
        }
      },
      "getContentIdsByAddress()": {
        "details": "Valid whitelisted address can query its own contentIds.      In practice, this is called from the Microsponsors dapp so a      user can view their own content ids."
      },
      "hasRegistered(address)": {
        "details": "Check if an address has *ever* registered, regardless of isWhitelisted status"
      },
      "isContentIdRegisteredToCaller(string)": {
        "details": "Valid whitelisted address validates registration of its own      single contentId.      In practice, this will be used by Microsponsors' ERC-721 for      validating that an address is authorized to mint() a time slot      for a given content id."
      },
      "pause()": {
        "details": "Called by contract owner to pause actions on this contract"
      },
      "removeContentIdFromAddress(string)": {
        "details": "Valid whitelisted address can remove its own content id."
      },
      "unpause()": {
        "details": "Called by contract owner to unpause the smart contract."
      }
    }
  },
  "userdoc": {
    "methods": {
      "adminGetRegistrantCount()": {
        "notice": "* Admin read-only functions **"
      },
      "constructor": "*  Constructor  **",
      "unpause()": {
        "notice": "This is public rather than external so it can be called by  derived contracts."
      }
    }
  }
}