{
  "contractName": "Whitelist",
  "abi": [
    {
      "constant": true,
      "inputs": [
        {
          "name": "",
          "type": "address"
        }
      ],
      "name": "isWhitelisted",
      "outputs": [
        {
          "name": "",
          "type": "bool"
        }
      ],
      "payable": false,
      "stateMutability": "view",
      "type": "function"
    },
    {
      "constant": true,
      "inputs": [],
      "name": "paused",
      "outputs": [
        {
          "name": "",
          "type": "bool"
        }
      ],
      "payable": false,
      "stateMutability": "view",
      "type": "function"
    },
    {
      "constant": true,
      "inputs": [],
      "name": "owner",
      "outputs": [
        {
          "name": "",
          "type": "address"
        }
      ],
      "payable": false,
      "stateMutability": "view",
      "type": "function"
    },
    {
      "constant": false,
      "inputs": [
        {
          "name": "newOwner",
          "type": "address"
        }
      ],
      "name": "transferOwnership",
      "outputs": [],
      "payable": false,
      "stateMutability": "nonpayable",
      "type": "function"
    },
    {
      "inputs": [
        {
          "name": "_exchange",
          "type": "address"
        }
      ],
      "payable": false,
      "stateMutability": "nonpayable",
      "type": "constructor"
    },
    {
      "constant": false,
      "inputs": [
        {
          "name": "target",
          "type": "address"
        },
        {
          "name": "contentId",
          "type": "string"
        },
        {
          "name": "isApproved",
          "type": "bool"
        }
      ],
      "name": "adminUpdate",
      "outputs": [],
      "payable": false,
      "stateMutability": "nonpayable",
      "type": "function"
    },
    {
      "constant": false,
      "inputs": [
        {
          "name": "target",
          "type": "address"
        },
        {
          "name": "isApproved",
          "type": "bool"
        }
      ],
      "name": "adminUpdateWhitelistStatus",
      "outputs": [],
      "payable": false,
      "stateMutability": "nonpayable",
      "type": "function"
    },
    {
      "constant": false,
      "inputs": [
        {
          "name": "target",
          "type": "address"
        },
        {
          "name": "contentId",
          "type": "string"
        }
      ],
      "name": "adminRemoveContentIdFromAddress",
      "outputs": [],
      "payable": false,
      "stateMutability": "nonpayable",
      "type": "function"
    },
    {
      "constant": true,
      "inputs": [],
      "name": "adminGetRegistrantCount",
      "outputs": [
        {
          "name": "",
          "type": "uint256"
        }
      ],
      "payable": false,
      "stateMutability": "view",
      "type": "function"
    },
    {
      "constant": true,
      "inputs": [
        {
          "name": "index",
          "type": "uint256"
        }
      ],
      "name": "adminGetRegistrantByIndex",
      "outputs": [
        {
          "name": "",
          "type": "address"
        }
      ],
      "payable": false,
      "stateMutability": "view",
      "type": "function"
    },
    {
      "constant": true,
      "inputs": [
        {
          "name": "contentId",
          "type": "string"
        }
      ],
      "name": "adminGetAddressByContentId",
      "outputs": [
        {
          "name": "target",
          "type": "address"
        }
      ],
      "payable": false,
      "stateMutability": "view",
      "type": "function"
    },
    {
      "constant": true,
      "inputs": [
        {
          "name": "target",
          "type": "address"
        }
      ],
      "name": "adminGetContentIdsByAddress",
      "outputs": [
        {
          "name": "",
          "type": "string[]"
        }
      ],
      "payable": false,
      "stateMutability": "view",
      "type": "function"
    },
    {
      "constant": true,
      "inputs": [],
      "name": "getContentIdsByAddress",
      "outputs": [
        {
          "name": "",
          "type": "string[]"
        }
      ],
      "payable": false,
      "stateMutability": "view",
      "type": "function"
    },
    {
      "constant": false,
      "inputs": [
        {
          "name": "contentId",
          "type": "string"
        }
      ],
      "name": "removeContentIdFromAddress",
      "outputs": [],
      "payable": false,
      "stateMutability": "nonpayable",
      "type": "function"
    },
    {
      "constant": true,
      "inputs": [
        {
          "name": "hash",
          "type": "bytes32"
        },
        {
          "name": "signerAddress",
          "type": "address"
        },
        {
          "name": "signature",
          "type": "bytes"
        }
      ],
      "name": "isValidSignature",
      "outputs": [
        {
          "name": "isValid",
          "type": "bool"
        }
      ],
      "payable": false,
      "stateMutability": "view",
      "type": "function"
    },
    {
      "constant": false,
      "inputs": [
        {
          "components": [
            {
              "name": "makerAddress",
              "type": "address"
            },
            {
              "name": "takerAddress",
              "type": "address"
            },
            {
              "name": "feeRecipientAddress",
              "type": "address"
            },
            {
              "name": "senderAddress",
              "type": "address"
            },
            {
              "name": "makerAssetAmount",
              "type": "uint256"
            },
            {
              "name": "takerAssetAmount",
              "type": "uint256"
            },
            {
              "name": "makerFee",
              "type": "uint256"
            },
            {
              "name": "takerFee",
              "type": "uint256"
            },
            {
              "name": "expirationTimeSeconds",
              "type": "uint256"
            },
            {
              "name": "salt",
              "type": "uint256"
            },
            {
              "name": "makerAssetData",
              "type": "bytes"
            },
            {
              "name": "takerAssetData",
              "type": "bytes"
            }
          ],
          "name": "order",
          "type": "tuple"
        },
        {
          "name": "takerAssetFillAmount",
          "type": "uint256"
        },
        {
          "name": "salt",
          "type": "uint256"
        },
        {
          "name": "orderSignature",
          "type": "bytes"
        }
      ],
      "name": "fillOrderIfWhitelisted",
      "outputs": [],
      "payable": false,
      "stateMutability": "nonpayable",
      "type": "function"
    },
    {
      "constant": false,
      "inputs": [],
      "name": "pause",
      "outputs": [],
      "payable": false,
      "stateMutability": "nonpayable",
      "type": "function"
    },
    {
      "constant": false,
      "inputs": [],
      "name": "unpause",
      "outputs": [],
      "payable": false,
      "stateMutability": "nonpayable",
      "type": "function"
    }
  ],
  "bytecode": "0x60806040526000600560006101000a81548160ff0219169083151502179055503480156200002c57600080fd5b506040516020806200368783398101806040526200004e9190810190620001f7565b336000806101000a81548173ffffffffffffffffffffffffffffffffffffffff021916908373ffffffffffffffffffffffffffffffffffffffff16021790555080600560016101000a81548173ffffffffffffffffffffffffffffffffffffffff021916908373ffffffffffffffffffffffffffffffffffffffff160217905550307f05000000000000000000000000000000000000000000000000000000000000006040516020016200010492919062000259565b604051602081830303815290604052600690805190602001906200012a92919062000132565b50506200035c565b828054600181600116156101000203166002900490600052602060002090601f016020900481019282601f106200017557805160ff1916838001178555620001a6565b82800160010185558215620001a6579182015b82811115620001a557825182559160200191906001019062000188565b5b509050620001b59190620001b9565b5090565b620001de91905b80821115620001da576000816000905550600101620001c0565b5090565b90565b6000620001ef8251620002e9565b905092915050565b6000602082840312156200020a57600080fd5b60006200021a84828501620001e1565b91505092915050565b62000238620002328262000289565b6200031d565b82525050565b620002536200024d826200029d565b62000331565b82525050565b600062000267828562000223565b6014820191506200027982846200023e565b6001820191508190509392505050565b60006200029682620002c9565b9050919050565b60007fff0000000000000000000000000000000000000000000000000000000000000082169050919050565b600073ffffffffffffffffffffffffffffffffffffffff82169050919050565b6000620002f682620002fd565b9050919050565b600073ffffffffffffffffffffffffffffffffffffffff82169050919050565b60006200032a826200033b565b9050919050565b6000819050919050565b600062000348826200034f565b9050919050565b60008160601b9050919050565b61331b806200036c6000396000f3fe608060405234801561001057600080fd5b506004361061010b5760003560e01c80638456cb59116100a2578063da50246011610071578063da502460146102a8578063de08679a146102c4578063ed5d0bcf146102e0578063f2fde38b146102fc578063f5ccddcc146103185761010b565b80638456cb59146102325780638da5cb5b1461023c578063936347021461025a57806396743b261461028a5761010b565b806349816041116100de57806349816041146101965780635c975abb146101c657806365d9abbb146101e45780637b97d034146102025761010b565b80630cb2da0714610110578063141da876146101405780633af32abf1461015c5780633f4ba83a1461018c575b600080fd5b61012a600480360361012591908101906127e5565b610334565b6040516101379190612e81565b60405180910390f35b61015a60048036036101559190810190612752565b610408565b005b61017660048036036101719190810190612578565b61070e565b6040516101839190612ebe565b60405180910390f35b61019461072e565b005b6101b060048036036101ab9190810190612578565b6107f7565b6040516101bd9190612e9c565b60405180910390f35b6101ce610a59565b6040516101db9190612ebe565b60405180910390f35b6101ec610a6c565b6040516101f99190612e9c565b60405180910390f35b61021c6004803603610217919081019061270d565b610cc9565b6040516102299190612e81565b60405180910390f35b61023a610da5565b005b610244610e6f565b6040516102519190612e81565b60405180910390f35b610274600480360361026f91908101906126a1565b610e94565b6040516102819190612ebe565b60405180910390f35b610292610ecf565b60405161029f919061303e565b60405180910390f35b6102c260048036036102bd919081019061270d565b610f6d565b005b6102de60048036036102d99190810190612635565b6113f1565b005b6102fa60048036036102f591908101906125dd565b611861565b005b61031660048036036103119190810190612578565b611ce9565b005b610332600480360361032d91908101906125a1565b611df4565b005b60008060009054906101000a900473ffffffffffffffffffffffffffffffffffffffff1673ffffffffffffffffffffffffffffffffffffffff163373ffffffffffffffffffffffffffffffffffffffff161415156103c7576040517f08c379a00000000000000000000000000000000000000000000000000000000081526004016103be90612f79565b60405180910390fd5b6001828154811015156103d657fe5b9060005260206000200160009054906101000a900473ffffffffffffffffffffffffffffffffffffffff169050919050565b600560009054906101000a900460ff1615151561042457600080fd5b60003390503273ffffffffffffffffffffffffffffffffffffffff168173ffffffffffffffffffffffffffffffffffffffff16141515610499576040517f08c379a000000000000000000000000000000000000000000000000000000000815260040161049090612fd9565b60405180910390fd5b60026000866000015173ffffffffffffffffffffffffffffffffffffffff1673ffffffffffffffffffffffffffffffffffffffff16815260200190815260200160002060009054906101000a900460ff16151561052b576040517f08c379a000000000000000000000000000000000000000000000000000000000815260040161052290612fb9565b60405180910390fd5b600260008273ffffffffffffffffffffffffffffffffffffffff1673ffffffffffffffffffffffffffffffffffffffff16815260200190815260200160002060009054906101000a900460ff1615156105b9576040517f08c379a00000000000000000000000000000000000000000000000000000000081526004016105b090612ef9565b60405180910390fd5b6060600560019054906101000a900473ffffffffffffffffffffffffffffffffffffffff1673ffffffffffffffffffffffffffffffffffffffff1663b4be83d5905060e01b86868560405160240161061393929190612ff9565b604051602081830303815290604052907bffffffffffffffffffffffffffffffffffffffffffffffffffffffff19166020820180517bffffffffffffffffffffffffffffffffffffffffffffffffffffffff83818316178352505050509050600560019054906101000a900473ffffffffffffffffffffffffffffffffffffffff1673ffffffffffffffffffffffffffffffffffffffff1663bfc8bfce85848460066040518563ffffffff1660e01b81526004016106d49493929190613059565b600060405180830381600087803b1580156106ee57600080fd5b505af1158015610702573d6000803e3d6000fd5b50505050505050505050565b60026020528060005260406000206000915054906101000a900460ff1681565b6000809054906101000a900473ffffffffffffffffffffffffffffffffffffffff1673ffffffffffffffffffffffffffffffffffffffff163373ffffffffffffffffffffffffffffffffffffffff161415156107bf576040517f08c379a00000000000000000000000000000000000000000000000000000000081526004016107b690612f79565b60405180910390fd5b600560009054906101000a900460ff1615156107da57600080fd5b6000600560006101000a81548160ff021916908315150217905550565b60606000809054906101000a900473ffffffffffffffffffffffffffffffffffffffff1673ffffffffffffffffffffffffffffffffffffffff163373ffffffffffffffffffffffffffffffffffffffff1614151561088a576040517f08c379a000000000000000000000000000000000000000000000000000000000815260040161088190612f79565b60405180910390fd5b6060600360008473ffffffffffffffffffffffffffffffffffffffff1673ffffffffffffffffffffffffffffffffffffffff168152602001908152602001600020805480602002602001604051908101604052809291908181526020016000905b828210156109bb57838290600052602060002001604051806020016040529081600082018054600181600116156101000203166002900480601f0160208091040260200160405190810160405280929190818152602001828054600181600116156101000203166002900480156109a35780601f10610978576101008083540402835291602001916109a3565b820191906000526020600020905b81548152906001019060200180831161098657829003601f168201915b505050505081525050815260200190600101906108eb565b505050509050606081516040519080825280602002602001820160405280156109f857816020015b60608152602001906001900390816109e35790505b50905060008090505b8251811015610a4e578281815181101515610a1857fe5b90602001906020020151600001518282815181101515610a3457fe5b906020019060200201819052508080600101915050610a01565b508092505050919050565b600560009054906101000a900460ff1681565b6060600260003373ffffffffffffffffffffffffffffffffffffffff1673ffffffffffffffffffffffffffffffffffffffff16815260200190815260200160002060009054906101000a900460ff161515610afc576040517f08c379a0000000000000000000000000000000000000000000000000000000008152600401610af390612fd9565b60405180910390fd5b6060600360003373ffffffffffffffffffffffffffffffffffffffff1673ffffffffffffffffffffffffffffffffffffffff168152602001908152602001600020805480602002602001604051908101604052809291908181526020016000905b82821015610c2d57838290600052602060002001604051806020016040529081600082018054600181600116156101000203166002900480601f016020809104026020016040519081016040528092919081815260200182805460018160011615610100020316600290048015610c155780601f10610bea57610100808354040283529160200191610c15565b820191906000526020600020905b815481529060010190602001808311610bf857829003601f168201915b50505050508152505081526020019060010190610b5d565b50505050905060608151604051908082528060200260200182016040528015610c6a57816020015b6060815260200190600190039081610c555790505b50905060008090505b8251811015610cc0578281815181101515610c8a57fe5b90602001906020020151600001518282815181101515610ca657fe5b906020019060200201819052508080600101915050610c73565b50809250505090565b60008060009054906101000a900473ffffffffffffffffffffffffffffffffffffffff1673ffffffffffffffffffffffffffffffffffffffff163373ffffffffffffffffffffffffffffffffffffffff16141515610d5c576040517f08c379a0000000000000000000000000000000000000000000000000000000008152600401610d5390612f79565b60405180910390fd5b60048383604051610d6e929190612e51565b908152602001604051809103902060009054906101000a900473ffffffffffffffffffffffffffffffffffffffff16905092915050565b6000809054906101000a900473ffffffffffffffffffffffffffffffffffffffff1673ffffffffffffffffffffffffffffffffffffffff163373ffffffffffffffffffffffffffffffffffffffff16141515610e36576040517f08c379a0000000000000000000000000000000000000000000000000000000008152600401610e2d90612f79565b60405180910390fd5b600560009054906101000a900460ff16151515610e5257600080fd5b6001600560006101000a81548160ff021916908315150217905550565b6000809054906101000a900473ffffffffffffffffffffffffffffffffffffffff1681565b60003273ffffffffffffffffffffffffffffffffffffffff168473ffffffffffffffffffffffffffffffffffffffff16149050949350505050565b60008060009054906101000a900473ffffffffffffffffffffffffffffffffffffffff1673ffffffffffffffffffffffffffffffffffffffff163373ffffffffffffffffffffffffffffffffffffffff16141515610f62576040517f08c379a0000000000000000000000000000000000000000000000000000000008152600401610f5990612f79565b60405180910390fd5b600180549050905090565b600560009054906101000a900460ff16151515610f8957600080fd5b600260003373ffffffffffffffffffffffffffffffffffffffff1673ffffffffffffffffffffffffffffffffffffffff16815260200190815260200160002060009054906101000a900460ff161515611017576040517f08c379a000000000000000000000000000000000000000000000000000000000815260040161100e90612fd9565b60405180910390fd5b3373ffffffffffffffffffffffffffffffffffffffff1660048383604051611040929190612e51565b908152602001604051809103902060009054906101000a900473ffffffffffffffffffffffffffffffffffffffff1673ffffffffffffffffffffffffffffffffffffffff161415156110c7576040517f08c379a00000000000000000000000000000000000000000000000000000000081526004016110be90612ed9565b60405180910390fd5b6000600483836040516110db929190612e51565b908152602001604051809103902060006101000a81548173ffffffffffffffffffffffffffffffffffffffff021916908373ffffffffffffffffffffffffffffffffffffffff1602179055506060600360003373ffffffffffffffffffffffffffffffffffffffff1673ffffffffffffffffffffffffffffffffffffffff168152602001908152602001600020805480602002602001604051908101604052809291908181526020016000905b8282101561125857838290600052602060002001604051806020016040529081600082018054600181600116156101000203166002900480601f0160208091040260200160405190810160405280929190818152602001828054600181600116156101000203166002900480156112405780601f1061121557610100808354040283529160200191611240565b820191906000526020600020905b81548152906001019060200180831161122357829003601f168201915b50505050508152505081526020019060010190611188565b50505050905060008090505b815181101561137d576112d684848080601f016020809104026020016040519081016040528093929190818152602001838380828437600081840152601f19601f8201169050808301925050505050505083838151811015156112c357fe5b9060200190602002015160000151611ff0565b1561137057604051806020016040528060405180602001604052806000815250815250600360003373ffffffffffffffffffffffffffffffffffffffff1673ffffffffffffffffffffffffffffffffffffffff1681526020019081526020016000208281548110151561134557fe5b90600052602060002001600082015181600001908051906020019061136b9291906121f1565b509050505b8080600101915050611264565b50600061138933612049565b61ffff1614156113ec576000600260003373ffffffffffffffffffffffffffffffffffffffff1673ffffffffffffffffffffffffffffffffffffffff16815260200190815260200160002060006101000a81548160ff0219169083151502179055505b505050565b6000809054906101000a900473ffffffffffffffffffffffffffffffffffffffff1673ffffffffffffffffffffffffffffffffffffffff163373ffffffffffffffffffffffffffffffffffffffff16141515611482576040517f08c379a000000000000000000000000000000000000000000000000000000000815260040161147990612f79565b60405180910390fd5b600560009054906101000a900460ff1615151561149e57600080fd5b8373ffffffffffffffffffffffffffffffffffffffff16600484846040516114c7929190612e51565b908152602001604051809103902060009054906101000a900473ffffffffffffffffffffffffffffffffffffffff1673ffffffffffffffffffffffffffffffffffffffff161415156116fd57600073ffffffffffffffffffffffffffffffffffffffff166004848460405161153d929190612e51565b908152602001604051809103902060009054906101000a900473ffffffffffffffffffffffffffffffffffffffff1673ffffffffffffffffffffffffffffffffffffffff161415156115c4576040517f08c379a00000000000000000000000000000000000000000000000000000000081526004016115bb90612f39565b60405180910390fd5b600360008573ffffffffffffffffffffffffffffffffffffffff1673ffffffffffffffffffffffffffffffffffffffff168152602001908152602001600020604051806020016040528085858080601f016020809104026020016040519081016040528093929190818152602001838380828437600081840152601f19601f8201169050808301925050505050505081525090806001815401808255809150509060018203906000526020600020016000909192909190915060008201518160000190805190602001906116999291906121f1565b5050505083600484846040516116b0929190612e51565b908152602001604051809103902060006101000a81548173ffffffffffffffffffffffffffffffffffffffff021916908373ffffffffffffffffffffffffffffffffffffffff1602179055505b600080905060008090505b600180549050811015611794578573ffffffffffffffffffffffffffffffffffffffff1660018281548110151561173b57fe5b9060005260206000200160009054906101000a900473ffffffffffffffffffffffffffffffffffffffff1673ffffffffffffffffffffffffffffffffffffffff16141561178757600191505b8080600101915050611708565b508015156118035760018590806001815401808255809150509060018203906000526020600020016000909192909190916101000a81548173ffffffffffffffffffffffffffffffffffffffff021916908373ffffffffffffffffffffffffffffffffffffffff160217905550505b81600260008773ffffffffffffffffffffffffffffffffffffffff1673ffffffffffffffffffffffffffffffffffffffff16815260200190815260200160002060006101000a81548160ff0219169083151502179055505050505050565b6000809054906101000a900473ffffffffffffffffffffffffffffffffffffffff1673ffffffffffffffffffffffffffffffffffffffff163373ffffffffffffffffffffffffffffffffffffffff161415156118f2576040517f08c379a00000000000000000000000000000000000000000000000000000000081526004016118e990612f79565b60405180910390fd5b600560009054906101000a900460ff1615151561190e57600080fd5b8273ffffffffffffffffffffffffffffffffffffffff1660048383604051611937929190612e51565b908152602001604051809103902060009054906101000a900473ffffffffffffffffffffffffffffffffffffffff1673ffffffffffffffffffffffffffffffffffffffff161415156119be576040517f08c379a00000000000000000000000000000000000000000000000000000000081526004016119b590612f99565b60405180910390fd5b6000600483836040516119d2929190612e51565b908152602001604051809103902060006101000a81548173ffffffffffffffffffffffffffffffffffffffff021916908373ffffffffffffffffffffffffffffffffffffffff1602179055506060600360008573ffffffffffffffffffffffffffffffffffffffff1673ffffffffffffffffffffffffffffffffffffffff168152602001908152602001600020805480602002602001604051908101604052809291908181526020016000905b82821015611b4f57838290600052602060002001604051806020016040529081600082018054600181600116156101000203166002900480601f016020809104026020016040519081016040528092919081815260200182805460018160011615610100020316600290048015611b375780601f10611b0c57610100808354040283529160200191611b37565b820191906000526020600020905b815481529060010190602001808311611b1a57829003601f168201915b50505050508152505081526020019060010190611a7f565b50505050905060008090505b8151811015611c7457611bcd84848080601f016020809104026020016040519081016040528093929190818152602001838380828437600081840152601f19601f820116905080830192505050505050508383815181101515611bba57fe5b9060200190602002015160000151611ff0565b15611c6757604051806020016040528060405180602001604052806000815250815250600360008773ffffffffffffffffffffffffffffffffffffffff1673ffffffffffffffffffffffffffffffffffffffff16815260200190815260200160002082815481101515611c3c57fe5b906000526020600020016000820151816000019080519060200190611c629291906121f1565b509050505b8080600101915050611b5b565b506000611c8085612049565b61ffff161415611ce3576000600260008673ffffffffffffffffffffffffffffffffffffffff1673ffffffffffffffffffffffffffffffffffffffff16815260200190815260200160002060006101000a81548160ff0219169083151502179055505b50505050565b6000809054906101000a900473ffffffffffffffffffffffffffffffffffffffff1673ffffffffffffffffffffffffffffffffffffffff163373ffffffffffffffffffffffffffffffffffffffff16141515611d7a576040517f08c379a0000000000000000000000000000000000000000000000000000000008152600401611d7190612f79565b60405180910390fd5b600073ffffffffffffffffffffffffffffffffffffffff168173ffffffffffffffffffffffffffffffffffffffff16141515611df157806000806101000a81548173ffffffffffffffffffffffffffffffffffffffff021916908373ffffffffffffffffffffffffffffffffffffffff1602179055505b50565b6000809054906101000a900473ffffffffffffffffffffffffffffffffffffffff1673ffffffffffffffffffffffffffffffffffffffff163373ffffffffffffffffffffffffffffffffffffffff16141515611e85576040517f08c379a0000000000000000000000000000000000000000000000000000000008152600401611e7c90612f79565b60405180910390fd5b600560009054906101000a900460ff16151515611ea157600080fd5b600260008373ffffffffffffffffffffffffffffffffffffffff1673ffffffffffffffffffffffffffffffffffffffff16815260200190815260200160002060009054906101000a900460ff16151581151514151515611f36576040517f08c379a0000000000000000000000000000000000000000000000000000000008152600401611f2d90612f19565b60405180910390fd5b600115158115151415611f95576000611f4e83612049565b61ffff16111515611f94576040517f08c379a0000000000000000000000000000000000000000000000000000000008152600401611f8b90612f59565b60405180910390fd5b5b80600260008473ffffffffffffffffffffffffffffffffffffffff1673ffffffffffffffffffffffffffffffffffffffff16815260200190815260200160002060006101000a81548160ff0219169083151502179055505050565b6000816040516020016120039190612e6a565b604051602081830303815290604052805190602001208360405160200161202a9190612e6a565b6040516020818303038152906040528051906020012014905092915050565b60006060600360008473ffffffffffffffffffffffffffffffffffffffff1673ffffffffffffffffffffffffffffffffffffffff168152602001908152602001600020805480602002602001604051908101604052809291908181526020016000905b8282101561217c57838290600052602060002001604051806020016040529081600082018054600181600116156101000203166002900480601f0160208091040260200160405190810160405280929190818152602001828054600181600116156101000203166002900480156121645780601f1061213957610100808354040283529160200191612164565b820191906000526020600020905b81548152906001019060200180831161214757829003601f168201915b505050505081525050815260200190600101906120ac565b505050509050600080905060008090505b82518110156121e6576121ca6040518060200160405280600081525084838151811015156121b757fe5b9060200190602002015160000151611ff0565b15156121d95781806001019250505b808060010191505061218d565b508092505050919050565b828054600181600116156101000203166002900490600052602060002090601f016020900481019282601f1061223257805160ff1916838001178555612260565b82800160010185558215612260579182015b8281111561225f578251825591602001919060010190612244565b5b50905061226d9190612271565b5090565b61229391905b8082111561228f576000816000905550600101612277565b5090565b90565b60006122a2823561323c565b905092915050565b60006122b6823561324e565b905092915050565b60006122ca823561325a565b905092915050565b60008083601f84011215156122e657600080fd5b8235905067ffffffffffffffff8111156122ff57600080fd5b60208301915083600182028301111561231757600080fd5b9250929050565b600082601f830112151561233157600080fd5b813561234461233f826130d9565b6130ac565b9150808252602083016020830185838301111561236057600080fd5b61236b83828461328e565b50505092915050565b600082601f830112151561238757600080fd5b813561239a61239582613105565b6130ac565b915080825260208301602083018583830111156123b657600080fd5b6123c183828461328e565b50505092915050565b60008083601f84011215156123de57600080fd5b8235905067ffffffffffffffff8111156123f757600080fd5b60208301915083600182028301111561240f57600080fd5b9250929050565b6000610180828403121561242957600080fd5b6124346101806130ac565b9050600061244484828501612296565b600083015250602061245884828501612296565b602083015250604061246c84828501612296565b604083015250606061248084828501612296565b606083015250608061249484828501612564565b60808301525060a06124a884828501612564565b60a08301525060c06124bc84828501612564565b60c08301525060e06124d084828501612564565b60e0830152506101006124e584828501612564565b610100830152506101206124fb84828501612564565b6101208301525061014082013567ffffffffffffffff81111561251d57600080fd5b6125298482850161231e565b6101408301525061016082013567ffffffffffffffff81111561254b57600080fd5b6125578482850161231e565b6101608301525092915050565b60006125708235613284565b905092915050565b60006020828403121561258a57600080fd5b600061259884828501612296565b91505092915050565b600080604083850312156125b457600080fd5b60006125c285828601612296565b92505060206125d3858286016122aa565b9150509250929050565b6000806000604084860312156125f257600080fd5b600061260086828701612296565b935050602084013567ffffffffffffffff81111561261d57600080fd5b612629868287016123ca565b92509250509250925092565b6000806000806060858703121561264b57600080fd5b600061265987828801612296565b945050602085013567ffffffffffffffff81111561267657600080fd5b612682878288016123ca565b93509350506040612695878288016122aa565b91505092959194509250565b600080600080606085870312156126b757600080fd5b60006126c5878288016122be565b94505060206126d687828801612296565b935050604085013567ffffffffffffffff8111156126f357600080fd5b6126ff878288016122d2565b925092505092959194509250565b6000806020838503121561272057600080fd5b600083013567ffffffffffffffff81111561273a57600080fd5b612746858286016123ca565b92509250509250929050565b6000806000806080858703121561276857600080fd5b600085013567ffffffffffffffff81111561278257600080fd5b61278e87828801612416565b945050602061279f87828801612564565b93505060406127b087828801612564565b925050606085013567ffffffffffffffff8111156127cd57600080fd5b6127d987828801612374565b91505092959194509250565b6000602082840312156127f757600080fd5b600061280584828501612564565b91505092915050565b600061281a8383612a17565b905092915050565b61282b816131f4565b82525050565b61283a816131f4565b82525050565b600061284b82613150565b6128558185613194565b93508360208202850161286785613131565b60005b848110156128a057838303885261288283835161280e565b925061288d82613187565b915060208801975060018101905061286a565b508196508694505050505092915050565b6128ba81613206565b82525050565b60006128cb82613166565b6128d581856131b6565b93506128e581856020860161329d565b6128ee816132d0565b840191505092915050565b60006129048261315b565b61290e81856131a5565b935061291e81856020860161329d565b612927816132d0565b840191505092915050565b60008154600181166000811461294f5760018114612975576129b9565b607f600283041661296081876131b6565b955060ff1983168652602086019350506129b9565b6002820461298381876131b6565b955061298e8561313e565b60005b828110156129b057815481890152600182019150602081019050612991565b80880195505050505b505092915050565b60006129cd83856131e9565b93506129da83858461328e565b82840190509392505050565b60006129f18261317c565b6129fb81856131e9565b9350612a0b81856020860161329d565b80840191505092915050565b6000612a2282613171565b612a2c81856131c7565b9350612a3c81856020860161329d565b612a45816132d0565b840191505092915050565b6000612a5d6024836131d8565b91507f434f4e54454e545f49445f444f45535f4e4f545f42454c4f4e475f544f5f534560008301527f4e444552000000000000000000000000000000000000000000000000000000006020830152604082019050919050565b6000612ac36015836131d8565b91507f54414b45525f4e4f545f57484954454c495354454400000000000000000000006000830152602082019050919050565b6000612b036019836131d8565b91507f4e4f5f5354415455535f5550444154455f5245515549524544000000000000006000830152602082019050919050565b6000612b43602d836131d8565b91507f52454d4f56455f434f4e54454e545f49445f46524f4d5f50524556494f55535f60008301527f4f574e45525f41444452455353000000000000000000000000000000000000006020830152604082019050919050565b6000612ba96025836131d8565b91507f414444524553535f4841535f4e4f5f4153534f4349415445445f434f4e54454e60008301527f545f4944530000000000000000000000000000000000000000000000000000006020830152604082019050919050565b6000612c0f6013836131d8565b91507f4f4e4c595f434f4e54524143545f4f574e4552000000000000000000000000006000830152602082019050919050565b6000612c4f6025836131d8565b91507f434f4e54454e545f49445f444f45535f4e4f545f42454c4f4e475f544f5f414460008301527f44524553530000000000000000000000000000000000000000000000000000006020830152604082019050919050565b6000612cb56015836131d8565b91507f4d414b45525f4e4f545f57484954454c495354454400000000000000000000006000830152602082019050919050565b6000612cf5600e836131d8565b91507f494e56414c49445f53454e4445520000000000000000000000000000000000006000830152602082019050919050565b600061018083016000830151612d416000860182612822565b506020830151612d546020860182612822565b506040830151612d676040860182612822565b506060830151612d7a6060860182612822565b506080830151612d8d6080860182612e33565b5060a0830151612da060a0860182612e33565b5060c0830151612db360c0860182612e33565b5060e0830151612dc660e0860182612e33565b50610100830151612ddb610100860182612e33565b50610120830151612df0610120860182612e33565b50610140830151848203610140860152612e0a82826128f9565b915050610160830151848203610160860152612e2682826128f9565b9150508091505092915050565b612e3c81613232565b82525050565b612e4b81613232565b82525050565b6000612e5e8284866129c1565b91508190509392505050565b6000612e7682846129e6565b915081905092915050565b6000602082019050612e966000830184612831565b92915050565b60006020820190508181036000830152612eb68184612840565b905092915050565b6000602082019050612ed360008301846128b1565b92915050565b60006020820190508181036000830152612ef281612a50565b9050919050565b60006020820190508181036000830152612f1281612ab6565b9050919050565b60006020820190508181036000830152612f3281612af6565b9050919050565b60006020820190508181036000830152612f5281612b36565b9050919050565b60006020820190508181036000830152612f7281612b9c565b9050919050565b60006020820190508181036000830152612f9281612c02565b9050919050565b60006020820190508181036000830152612fb281612c42565b9050919050565b60006020820190508181036000830152612fd281612ca8565b9050919050565b60006020820190508181036000830152612ff281612ce8565b9050919050565b600060608201905081810360008301526130138186612d28565b90506130226020830185612e42565b818103604083015261303481846128c0565b9050949350505050565b60006020820190506130536000830184612e42565b92915050565b600060808201905061306e6000830187612e42565b61307b6020830186612831565b818103604083015261308d81856128c0565b905081810360608301526130a18184612932565b905095945050505050565b6000604051905081810181811067ffffffffffffffff821117156130cf57600080fd5b8060405250919050565b600067ffffffffffffffff8211156130f057600080fd5b601f19601f8301169050602081019050919050565b600067ffffffffffffffff82111561311c57600080fd5b601f19601f8301169050602081019050919050565b6000602082019050919050565b60008160005260206000209050919050565b600081519050919050565b600081519050919050565b600081519050919050565b600081519050919050565b600081519050919050565b6000602082019050919050565b600082825260208201905092915050565b600082825260208201905092915050565b600082825260208201905092915050565b600082825260208201905092915050565b600082825260208201905092915050565b600081905092915050565b60006131ff82613212565b9050919050565b60008115159050919050565b600073ffffffffffffffffffffffffffffffffffffffff82169050919050565b6000819050919050565b600061324782613264565b9050919050565b60008115159050919050565b6000819050919050565b600073ffffffffffffffffffffffffffffffffffffffff82169050919050565b6000819050919050565b82818337600083830152505050565b60005b838110156132bb5780820151818401526020810190506132a0565b838111156132ca576000848401525b50505050565b6000601f19601f830116905091905056fea265627a7a7230582069fa70e999cf8bb58ac7b3035f9eec6f73abc792835ce86dcd7a41344abe62cb6c6578706572696d656e74616cf50037",
  "source": "/*\n\n  Copyright 2019 Microsponsors, Inc.\n  This work has been modified for use by Microsponsors, Inc.\n  This derivative work is licensed under the Apache License, Version 2.0\n  Original license notice below:\n\n  Copyright 2018 ZeroEx Intl.\n\n  Licensed under the Apache License, Version 2.0 (the \"License\");\n  you may not use this file except in compliance with the License.\n  You may obtain a copy of the License at\n\n    http://www.apache.org/licenses/LICENSE-2.0\n\n  Unless required by applicable law or agreed to in writing, software\n  distributed under the License is distributed on an \"AS IS\" BASIS,\n  WITHOUT WARRANTIES OR CONDITIONS OF ANY KIND, either express or implied.\n  See the License for the specific language governing permissions and\n  limitations under the License.\n\n*/\n\npragma solidity ^0.5.5;\npragma experimental ABIEncoderV2;\n\nimport \"./IExchange.sol\";\nimport \"@0x/contracts-exchange-libs/contracts/src/LibOrder.sol\";\nimport \"@0x/contracts-utils/contracts/src/Ownable.sol\";\n\n\ncontract Whitelist is\n    Ownable\n{\n\n\n    /***  Microsponsors Registry Data:  ***/\n\n\n    // Array of registrant addresses\n    address[] private registrants;\n\n    // Map address => whitelist status\n    mapping (address => bool) public isWhitelisted;\n\n    // Map address => array of ContentId structs\n    struct ContentIdStruct {\n        string contentId;\n    }\n    mapping (address => ContentIdStruct[]) private addressToContentIds;\n\n    // Map contentId => address (for reverse-lookups)\n    mapping (string => address) private contentIdToAddress;\n\n    // Pause. When true, Registry state updates and 0x order fills are blocked.\n    bool public paused = false;\n\n\n    /***  0x Exchange Details:  ***/\n\n\n    // 0x Exchange contract.\n    // solhint-disable var-name-mixedcase\n    IExchange internal EXCHANGE;\n    bytes internal TX_ORIGIN_SIGNATURE;\n    // solhint-enable var-name-mixedcase\n\n    byte constant internal VALIDATOR_SIGNATURE_BYTE = \"\\x05\";\n\n\n    /***  Constructor  ***/\n\n    /// @param _exchange 0x Exchange contract address to direct order fills to\n    constructor (address _exchange)\n        public\n    {\n        EXCHANGE = IExchange(_exchange);\n        TX_ORIGIN_SIGNATURE = abi.encodePacked(address(this), VALIDATOR_SIGNATURE_BYTE);\n    }\n\n\n    /***  Admin functions (onlyOwner) that mutate contract state  ***/\n\n\n    /// @dev Admin registers an address with a contentId\n    /// @param target Address to add or remove from whitelist.\n    /// @param contentId To map the address to.\n    /// @param isApproved Whitelist status to assign to the address.\n    function adminUpdate(\n        address target,\n        string calldata contentId,\n        bool isApproved\n    )\n        external\n        onlyOwner\n        whenNotPaused\n    {\n\n        // TODO:\n        // Set max length of content ids by checking bytes(contentId).length\n\n        if (contentIdToAddress[contentId] != target) {\n\n            // If content id already belongs to another owner address\n            // it must be explicitly removed from that owner address\n            // via user-facing remove method OR via admin remove method\n            // before it is re-assigned to new address\n            require(\n                contentIdToAddress[contentId] == 0x0000000000000000000000000000000000000000,\n                \"REMOVE_CONTENT_ID_FROM_PREVIOUS_OWNER_ADDRESS\"\n            );\n\n            // Assign content id to registrant address\n            addressToContentIds[target].push( ContentIdStruct(contentId) );\n            contentIdToAddress[contentId] = target;\n\n        }\n\n        // Push new addresses into registrants array\n        bool hasRegistered = false;\n        for (uint i=0; i<registrants.length; i++) {\n            if (registrants[i] == target) {\n                hasRegistered = true;\n            }\n        }\n        if (!hasRegistered) {\n            registrants.push(target);\n        }\n\n        isWhitelisted[target] = isApproved;\n\n    }\n\n\n    /// @dev Admin updates whitelist status for a given address.\n    /// @param target Address to update.\n    /// @param isApproved Whitelist status to assign to address.\n    function adminUpdateWhitelistStatus(\n        address target,\n        bool isApproved\n    )\n        external\n        onlyOwner\n        whenNotPaused\n    {\n\n        // Revert transaction (refund gas) if\n        // the requested whitelist status update is redundant\n        require(\n            isApproved != isWhitelisted[target],\n            'NO_STATUS_UPDATE_REQUIRED'\n        );\n\n        // Disallow users with no associated content ids\n        // (ex: admin or user themselves may have removed content ids)\n        if (isApproved == true) {\n            require(\n                getNumContentIds(target) > 0,\n                'ADDRESS_HAS_NO_ASSOCIATED_CONTENT_IDS'\n            );\n        }\n\n        isWhitelisted[target] = isApproved;\n\n    }\n\n    /// @dev Admin updates whitelist status for a given address.\n    function adminRemoveContentIdFromAddress(\n        address target,\n        string calldata contentId\n    )\n        external\n        onlyOwner\n        whenNotPaused\n    {\n\n        require(\n            contentIdToAddress[contentId] == target,\n            'CONTENT_ID_DOES_NOT_BELONG_TO_ADDRESS'\n        );\n\n        contentIdToAddress[contentId] = address(0x0000000000000000000000000000000000000000);\n\n        // Remove content id from addressToContentIds mapping\n        ContentIdStruct[] memory m = addressToContentIds[target];\n        for (uint i = 0; i < m.length; i++) {\n            if (stringsMatch(contentId, m[i].contentId)) {\n                addressToContentIds[target][i] = ContentIdStruct('');\n            }\n        }\n\n        // If address has no valid content ids left, remove from Whitelist\n        if (getNumContentIds(target) == 0) {\n            isWhitelisted[target] = false;\n        }\n\n    }\n\n\n    /*** Admin read-only functions ***/\n\n\n    function adminGetRegistrantCount ()\n        external\n        view\n        onlyOwner\n        returns (uint)\n    {\n\n        return registrants.length;\n\n    }\n\n    function adminGetRegistrantByIndex (\n        uint index\n    )\n        external\n        view\n        onlyOwner\n        returns (address)\n    {\n\n        // Will throw error if specified index does not exist\n        return registrants[index];\n\n    }\n\n\n    function adminGetAddressByContentId(\n        string calldata contentId\n    )\n        external\n        view\n        onlyOwner\n        returns (address target)\n    {\n\n        return contentIdToAddress[contentId];\n\n    }\n\n\n    /// @dev Admin gets contentIds mapped to a valid whitelisted address.\n    /// @param target Ethereum address to validate & return contentIds for.\n    function adminGetContentIdsByAddress(\n        address target\n    )\n        external\n        view\n        onlyOwner\n        returns (string[] memory)\n    {\n\n        ContentIdStruct[] memory m = addressToContentIds[target];\n        string[] memory r = new string[](m.length);\n\n        for (uint i = 0; i < m.length; i++) {\n            r[i] =  m[i].contentId;\n        }\n\n        return r;\n\n    }\n\n\n    /*** User-facing functions ***/\n\n\n    /// @dev Valid whitelisted address can query its own contentIds.\n    function getContentIdsByAddress()\n        external\n        view\n        returns (string[] memory)\n    {\n\n        require(\n            isWhitelisted[msg.sender],\n            'INVALID_SENDER'\n        );\n\n        ContentIdStruct[] memory m = addressToContentIds[msg.sender];\n        string[] memory r = new string[](m.length);\n\n        for (uint i = 0; i < m.length; i++) {\n            r[i] =  m[i].contentId;\n        }\n\n        return r;\n\n    }\n\n\n    /// @dev Valid whitelisted address can remove its own content id.\n    function removeContentIdFromAddress(\n        string calldata contentId\n    )\n        external\n        whenNotPaused\n    {\n\n        require(\n            isWhitelisted[msg.sender],\n            'INVALID_SENDER'\n        );\n\n        require(\n            contentIdToAddress[contentId] == msg.sender,\n            'CONTENT_ID_DOES_NOT_BELONG_TO_SENDER'\n        );\n\n        contentIdToAddress[contentId] = address(0x0000000000000000000000000000000000000000);\n\n        // Remove content id from addressToContentIds mapping\n        ContentIdStruct[] memory m = addressToContentIds[msg.sender];\n        for (uint i = 0; i < m.length; i++) {\n            if (stringsMatch(contentId, m[i].contentId)) {\n                addressToContentIds[msg.sender][i] = ContentIdStruct('');\n            }\n        }\n\n        // If address has no valid content ids left, remove from Whitelist\n        if (getNumContentIds(msg.sender) == 0) {\n            isWhitelisted[msg.sender] = false;\n        }\n\n    }\n\n\n    /*** Transaction validation & Execution ***/\n\n\n    /// @dev Verifies signer is same as signer of current Ethereum transaction.\n    ///      NOTE: This function can currently be used to validate signatures coming from outside of this contract.\n    ///      Extra safety checks can be added for a production contract.\n    /// @param signerAddress Address that should have signed the given hash.\n    /// @param signature Proof of signing.\n    /// @return Validity of order signature.\n    // solhint-disable no-unused-vars\n    function isValidSignature(\n        bytes32 hash,\n        address signerAddress,\n        bytes calldata signature\n    )\n        external\n        view\n        returns (bool isValid)\n    {\n        // solhint-disable-next-line avoid-tx-origin\n        return signerAddress == tx.origin;\n    }\n    // solhint-enable no-unused-vars\n\n    /// @dev Fills an order using `msg.sender` as the taker.\n    ///      The transaction will revert if both the maker and taker are not whitelisted.\n    ///      Orders should specify this contract as the `senderAddress` in order to gaurantee\n    ///      that both maker and taker have been whitelisted.\n    /// @param order Order struct containing order specifications.\n    /// @param takerAssetFillAmount Desired amount of takerAsset to sell.\n    /// @param salt Arbitrary value to gaurantee uniqueness of 0x transaction hash.\n    /// @param orderSignature Proof that order has been created by maker.\n    function fillOrderIfWhitelisted(\n        LibOrder.Order memory order,\n        uint256 takerAssetFillAmount,\n        uint256 salt,\n        bytes memory orderSignature\n    )\n        public\n        whenNotPaused\n    {\n        address takerAddress = msg.sender;\n\n        // This contract must be the entry point for the transaction.\n        require(\n            // solhint-disable-next-line avoid-tx-origin\n            takerAddress == tx.origin,\n            \"INVALID_SENDER\"\n        );\n\n        // Check if maker is on the whitelist.\n        require(\n            isWhitelisted[order.makerAddress],\n            \"MAKER_NOT_WHITELISTED\"\n        );\n\n        // Check if taker is on the whitelist.\n        require(\n            isWhitelisted[takerAddress],\n            \"TAKER_NOT_WHITELISTED\"\n        );\n\n        // Encode arguments into byte array.\n        bytes memory data = abi.encodeWithSelector(\n            EXCHANGE.fillOrder.selector,\n            order,\n            takerAssetFillAmount,\n            orderSignature\n        );\n\n        // Call `fillOrder` via `executeTransaction`.\n        EXCHANGE.executeTransaction(\n            salt,\n            takerAddress,\n            data,\n            TX_ORIGIN_SIGNATURE\n        );\n    }\n\n\n    /*** Pausable adapted from OpenZeppelin via Cryptokitties ***/\n\n\n    /// @dev Modifier to allow actions only when the contract IS NOT paused\n    modifier whenNotPaused() {\n        require(!paused);\n        _;\n    }\n\n    /// @dev Modifier to allow actions only when the contract IS paused\n    modifier whenPaused {\n        require(paused);\n        _;\n    }\n\n    /// @dev Called by contract owner to pause actions on this contract\n    function pause() external onlyOwner whenNotPaused {\n        paused = true;\n    }\n\n    /// @dev Called by contract owner to unpause the smart contract.\n    /// @notice This is public rather than external so it can be called by\n    ///  derived contracts.\n    function unpause() public onlyOwner whenPaused {\n        // can't unpause if contract was upgraded\n        paused = false;\n    }\n\n\n\n    /***  Helpers  ***/\n\n\n    function stringsMatch (\n        string memory a,\n        string memory b\n    )\n        private\n        pure\n        returns (bool)\n    {\n        return (keccak256(abi.encodePacked((a))) == keccak256(abi.encodePacked((b))) );\n    }\n\n    function getNumContentIds (\n        address target\n    )\n        private\n        view\n        returns (uint16 result)\n    {\n\n        ContentIdStruct[] memory m = addressToContentIds[target];\n        uint16 counter = 0;\n        for (uint i = 0; i < m.length; i++) {\n            if (!stringsMatch('', m[i].contentId)) {\n                counter++;\n            }\n        }\n\n        return counter;\n\n    }\n\n\n}\n",
  "sourcePath": "/Users/lauren/github/registry-contract/contracts/Whitelist.sol",
  "compiler": {
    "name": "solc",
    "version": "0.5.5+commit.47a71e8f.Emscripten.clang"
  },
  "schemaVersion": "3.0.10",
  "updatedAt": "2019-08-13T03:25:24.115Z",
  "devdoc": {
    "methods": {
      "adminGetContentIdsByAddress(address)": {
        "details": "Admin gets contentIds mapped to a valid whitelisted address.",
        "params": {
          "target": "Ethereum address to validate & return contentIds for."
        }
      },
      "adminRemoveContentIdFromAddress(address,string)": {
        "details": "Admin updates whitelist status for a given address."
      },
      "adminUpdate(address,string,bool)": {
        "details": "Admin registers an address with a contentId",
        "params": {
          "contentId": "To map the address to.",
          "isApproved": "Whitelist status to assign to the address.",
          "target": "Address to add or remove from whitelist."
        }
      },
      "adminUpdateWhitelistStatus(address,bool)": {
        "details": "Admin updates whitelist status for a given address.",
        "params": {
          "isApproved": "Whitelist status to assign to address.",
          "target": "Address to update."
        }
      },
      "constructor": {
        "params": {
          "_exchange": "0x Exchange contract address to direct order fills to"
        }
      },
      "fillOrderIfWhitelisted((address,address,address,address,uint256,uint256,uint256,uint256,uint256,uint256,bytes,bytes),uint256,uint256,bytes)": {
        "details": "Fills an order using `msg.sender` as the taker.      The transaction will revert if both the maker and taker are not whitelisted.      Orders should specify this contract as the `senderAddress` in order to gaurantee      that both maker and taker have been whitelisted.",
        "params": {
          "order": "Order struct containing order specifications.",
          "orderSignature": "Proof that order has been created by maker.",
          "salt": "Arbitrary value to gaurantee uniqueness of 0x transaction hash.",
          "takerAssetFillAmount": "Desired amount of takerAsset to sell."
        }
      },
      "getContentIdsByAddress()": {
        "details": "Valid whitelisted address can query its own contentIds."
      },
      "isValidSignature(bytes32,address,bytes)": {
        "details": "Verifies signer is same as signer of current Ethereum transaction.      NOTE: This function can currently be used to validate signatures coming from outside of this contract.      Extra safety checks can be added for a production contract.",
        "params": {
          "signature": "Proof of signing.",
          "signerAddress": "Address that should have signed the given hash."
        },
        "return": "Validity of order signature."
      },
      "pause()": {
        "details": "Called by contract owner to pause actions on this contract"
      },
      "removeContentIdFromAddress(string)": {
        "details": "Valid whitelisted address can remove its own content id."
      },
      "unpause()": {
        "details": "Called by contract owner to unpause the smart contract."
      }
    }
  },
  "userdoc": {
    "methods": {
      "adminGetRegistrantCount()": {
        "notice": "* Admin read-only functions **"
      },
      "unpause()": {
        "notice": "This is public rather than external so it can be called by  derived contracts."
      }
    }
  }
}