{
  "contractName": "Whitelist",
  "abi": [
    {
      "constant": true,
      "inputs": [
        {
          "name": "",
          "type": "address"
        }
      ],
      "name": "isWhitelisted",
      "outputs": [
        {
          "name": "",
          "type": "bool"
        }
      ],
      "payable": false,
      "stateMutability": "view",
      "type": "function"
    },
    {
      "constant": true,
      "inputs": [],
      "name": "owner",
      "outputs": [
        {
          "name": "",
          "type": "address"
        }
      ],
      "payable": false,
      "stateMutability": "view",
      "type": "function"
    },
    {
      "constant": false,
      "inputs": [
        {
          "name": "newOwner",
          "type": "address"
        }
      ],
      "name": "transferOwnership",
      "outputs": [],
      "payable": false,
      "stateMutability": "nonpayable",
      "type": "function"
    },
    {
      "inputs": [
        {
          "name": "_exchange",
          "type": "address"
        }
      ],
      "payable": false,
      "stateMutability": "nonpayable",
      "type": "constructor"
    },
    {
      "constant": false,
      "inputs": [
        {
          "name": "target",
          "type": "address"
        },
        {
          "name": "fqdn",
          "type": "bytes32"
        },
        {
          "name": "isApproved",
          "type": "bool"
        }
      ],
      "name": "adminUpdateWhitelistStatus",
      "outputs": [],
      "payable": false,
      "stateMutability": "nonpayable",
      "type": "function"
    },
    {
      "constant": true,
      "inputs": [
        {
          "name": "target",
          "type": "address"
        }
      ],
      "name": "adminGetValidDomainMapping",
      "outputs": [
        {
          "name": "fqdn",
          "type": "bytes32"
        }
      ],
      "payable": false,
      "stateMutability": "view",
      "type": "function"
    },
    {
      "constant": true,
      "inputs": [],
      "name": "getValidDomainMapping",
      "outputs": [
        {
          "name": "fqdn",
          "type": "bytes32"
        }
      ],
      "payable": false,
      "stateMutability": "view",
      "type": "function"
    },
    {
      "constant": true,
      "inputs": [
        {
          "name": "hash",
          "type": "bytes32"
        },
        {
          "name": "signerAddress",
          "type": "address"
        },
        {
          "name": "signature",
          "type": "bytes"
        }
      ],
      "name": "isValidSignature",
      "outputs": [
        {
          "name": "isValid",
          "type": "bool"
        }
      ],
      "payable": false,
      "stateMutability": "view",
      "type": "function"
    },
    {
      "constant": false,
      "inputs": [
        {
          "components": [
            {
              "name": "makerAddress",
              "type": "address"
            },
            {
              "name": "takerAddress",
              "type": "address"
            },
            {
              "name": "feeRecipientAddress",
              "type": "address"
            },
            {
              "name": "senderAddress",
              "type": "address"
            },
            {
              "name": "makerAssetAmount",
              "type": "uint256"
            },
            {
              "name": "takerAssetAmount",
              "type": "uint256"
            },
            {
              "name": "makerFee",
              "type": "uint256"
            },
            {
              "name": "takerFee",
              "type": "uint256"
            },
            {
              "name": "expirationTimeSeconds",
              "type": "uint256"
            },
            {
              "name": "salt",
              "type": "uint256"
            },
            {
              "name": "makerAssetData",
              "type": "bytes"
            },
            {
              "name": "takerAssetData",
              "type": "bytes"
            }
          ],
          "name": "order",
          "type": "tuple"
        },
        {
          "name": "takerAssetFillAmount",
          "type": "uint256"
        },
        {
          "name": "salt",
          "type": "uint256"
        },
        {
          "name": "orderSignature",
          "type": "bytes"
        }
      ],
      "name": "fillOrderIfWhitelisted",
      "outputs": [],
      "payable": false,
      "stateMutability": "nonpayable",
      "type": "function"
    }
  ],
  "bytecode": "0x60806040523480156200001157600080fd5b506040516020806200182e8339810180604052620000339190810190620001dc565b336000806101000a81548173ffffffffffffffffffffffffffffffffffffffff021916908373ffffffffffffffffffffffffffffffffffffffff16021790555080600360006101000a81548173ffffffffffffffffffffffffffffffffffffffff021916908373ffffffffffffffffffffffffffffffffffffffff160217905550307f0500000000000000000000000000000000000000000000000000000000000000604051602001620000e99291906200023e565b604051602081830303815290604052600490805190602001906200010f92919062000117565b505062000341565b828054600181600116156101000203166002900490600052602060002090601f016020900481019282601f106200015a57805160ff19168380011785556200018b565b828001600101855582156200018b579182015b828111156200018a5782518255916020019190600101906200016d565b5b5090506200019a91906200019e565b5090565b620001c391905b80821115620001bf576000816000905550600101620001a5565b5090565b90565b6000620001d48251620002ce565b905092915050565b600060208284031215620001ef57600080fd5b6000620001ff84828501620001c6565b91505092915050565b6200021d62000217826200026e565b62000302565b82525050565b62000238620002328262000282565b62000316565b82525050565b60006200024c828562000208565b6014820191506200025e828462000223565b6001820191508190509392505050565b60006200027b82620002ae565b9050919050565b60007fff0000000000000000000000000000000000000000000000000000000000000082169050919050565b600073ffffffffffffffffffffffffffffffffffffffff82169050919050565b6000620002db82620002e2565b9050919050565b600073ffffffffffffffffffffffffffffffffffffffff82169050919050565b60006200030f8262000320565b9050919050565b6000819050919050565b60006200032d8262000334565b9050919050565b60008160601b9050919050565b6114dd80620003516000396000f3fe608060405234801561001057600080fd5b50600436106100885760003560e01c8063760348ec1161005b578063760348ec146101135780638da5cb5b146101435780639363470214610161578063f2fde38b1461019157610088565b8063141da8761461008d57806338614626146100a95780633af32abf146100c55780635e135567146100f5575b600080fd5b6100a760048036036100a29190810190610d0a565b6101ad565b005b6100c360048036036100be9190810190610c4f565b610497565b005b6100df60048036036100da9190810190610c26565b6105c8565b6040516100ec919061115e565b60405180910390f35b6100fd6105e8565b60405161010a9190611179565b60405180910390f35b61012d60048036036101289190810190610c26565b6106bd565b60405161013a9190611179565b60405180910390f35b61014b610825565b6040516101589190611143565b60405180910390f35b61017b60048036036101769190810190610c9e565b61084a565b604051610188919061115e565b60405180910390f35b6101ab60048036036101a69190810190610c26565b610885565b005b60003390503273ffffffffffffffffffffffffffffffffffffffff168173ffffffffffffffffffffffffffffffffffffffff16141515610222576040517f08c379a000000000000000000000000000000000000000000000000000000000815260040161021990611214565b60405180910390fd5b60016000866000015173ffffffffffffffffffffffffffffffffffffffff1673ffffffffffffffffffffffffffffffffffffffff16815260200190815260200160002060009054906101000a900460ff1615156102b4576040517f08c379a00000000000000000000000000000000000000000000000000000000081526004016102ab906111f4565b60405180910390fd5b600160008273ffffffffffffffffffffffffffffffffffffffff1673ffffffffffffffffffffffffffffffffffffffff16815260200190815260200160002060009054906101000a900460ff161515610342576040517f08c379a000000000000000000000000000000000000000000000000000000000815260040161033990611194565b60405180910390fd5b6060600360009054906101000a900473ffffffffffffffffffffffffffffffffffffffff1673ffffffffffffffffffffffffffffffffffffffff1663b4be83d5905060e01b86868560405160240161039c93929190611234565b604051602081830303815290604052907bffffffffffffffffffffffffffffffffffffffffffffffffffffffff19166020820180517bffffffffffffffffffffffffffffffffffffffffffffffffffffffff83818316178352505050509050600360009054906101000a900473ffffffffffffffffffffffffffffffffffffffff1673ffffffffffffffffffffffffffffffffffffffff1663bfc8bfce85848460046040518563ffffffff1660e01b815260040161045d9493929190611279565b600060405180830381600087803b15801561047757600080fd5b505af115801561048b573d6000803e3d6000fd5b50505050505050505050565b6000809054906101000a900473ffffffffffffffffffffffffffffffffffffffff1673ffffffffffffffffffffffffffffffffffffffff163373ffffffffffffffffffffffffffffffffffffffff16141515610528576040517f08c379a000000000000000000000000000000000000000000000000000000000815260040161051f906111d4565b60405180910390fd5b80600160008573ffffffffffffffffffffffffffffffffffffffff1673ffffffffffffffffffffffffffffffffffffffff16815260200190815260200160002060006101000a81548160ff02191690831515021790555081600260008573ffffffffffffffffffffffffffffffffffffffff1673ffffffffffffffffffffffffffffffffffffffff16815260200190815260200160002081905550505050565b60016020528060005260406000206000915054906101000a900460ff1681565b6000600160003373ffffffffffffffffffffffffffffffffffffffff1673ffffffffffffffffffffffffffffffffffffffff16815260200190815260200160002060009054906101000a900460ff161515610678576040517f08c379a000000000000000000000000000000000000000000000000000000000815260040161066f90611214565b60405180910390fd5b600260003373ffffffffffffffffffffffffffffffffffffffff1673ffffffffffffffffffffffffffffffffffffffff16815260200190815260200160002054905090565b60008060009054906101000a900473ffffffffffffffffffffffffffffffffffffffff1673ffffffffffffffffffffffffffffffffffffffff163373ffffffffffffffffffffffffffffffffffffffff16141515610750576040517f08c379a0000000000000000000000000000000000000000000000000000000008152600401610747906111d4565b60405180910390fd5b600160008373ffffffffffffffffffffffffffffffffffffffff1673ffffffffffffffffffffffffffffffffffffffff16815260200190815260200160002060009054906101000a900460ff1615156107de576040517f08c379a00000000000000000000000000000000000000000000000000000000081526004016107d5906111b4565b60405180910390fd5b600260008373ffffffffffffffffffffffffffffffffffffffff1673ffffffffffffffffffffffffffffffffffffffff168152602001908152602001600020549050919050565b6000809054906101000a900473ffffffffffffffffffffffffffffffffffffffff1681565b60003273ffffffffffffffffffffffffffffffffffffffff168473ffffffffffffffffffffffffffffffffffffffff16149050949350505050565b6000809054906101000a900473ffffffffffffffffffffffffffffffffffffffff1673ffffffffffffffffffffffffffffffffffffffff163373ffffffffffffffffffffffffffffffffffffffff16141515610916576040517f08c379a000000000000000000000000000000000000000000000000000000000815260040161090d906111d4565b60405180910390fd5b600073ffffffffffffffffffffffffffffffffffffffff168173ffffffffffffffffffffffffffffffffffffffff1614151561098d57806000806101000a81548173ffffffffffffffffffffffffffffffffffffffff021916908373ffffffffffffffffffffffffffffffffffffffff1602179055505b50565b600061099c82356113fe565b905092915050565b60006109b08235611410565b905092915050565b60006109c4823561141c565b905092915050565b60008083601f84011215156109e057600080fd5b8235905067ffffffffffffffff8111156109f957600080fd5b602083019150836001820283011115610a1157600080fd5b9250929050565b600082601f8301121515610a2b57600080fd5b8135610a3e610a39826112f9565b6112cc565b91508082526020830160208301858383011115610a5a57600080fd5b610a65838284611450565b50505092915050565b600082601f8301121515610a8157600080fd5b8135610a94610a8f82611325565b6112cc565b91508082526020830160208301858383011115610ab057600080fd5b610abb838284611450565b50505092915050565b60006101808284031215610ad757600080fd5b610ae26101806112cc565b90506000610af284828501610990565b6000830152506020610b0684828501610990565b6020830152506040610b1a84828501610990565b6040830152506060610b2e84828501610990565b6060830152506080610b4284828501610c12565b60808301525060a0610b5684828501610c12565b60a08301525060c0610b6a84828501610c12565b60c08301525060e0610b7e84828501610c12565b60e083015250610100610b9384828501610c12565b61010083015250610120610ba984828501610c12565b6101208301525061014082013567ffffffffffffffff811115610bcb57600080fd5b610bd784828501610a18565b6101408301525061016082013567ffffffffffffffff811115610bf957600080fd5b610c0584828501610a18565b6101608301525092915050565b6000610c1e8235611446565b905092915050565b600060208284031215610c3857600080fd5b6000610c4684828501610990565b91505092915050565b600080600060608486031215610c6457600080fd5b6000610c7286828701610990565b9350506020610c83868287016109b8565b9250506040610c94868287016109a4565b9150509250925092565b60008060008060608587031215610cb457600080fd5b6000610cc2878288016109b8565b9450506020610cd387828801610990565b935050604085013567ffffffffffffffff811115610cf057600080fd5b610cfc878288016109cc565b925092505092959194509250565b60008060008060808587031215610d2057600080fd5b600085013567ffffffffffffffff811115610d3a57600080fd5b610d4687828801610ac4565b9450506020610d5787828801610c12565b9350506040610d6887828801610c12565b925050606085013567ffffffffffffffff811115610d8557600080fd5b610d9187828801610a6e565b91505092959194509250565b610da6816113ac565b82525050565b610db5816113ac565b82525050565b610dc4816113be565b82525050565b610dd3816113ca565b82525050565b6000610de48261136e565b610dee818561138a565b9350610dfe81856020860161145f565b610e0781611492565b840191505092915050565b6000610e1d82611363565b610e278185611379565b9350610e3781856020860161145f565b610e4081611492565b840191505092915050565b600081546001811660008114610e685760018114610e8e57610ed2565b607f6002830416610e79818761138a565b955060ff198316865260208601935050610ed2565b60028204610e9c818761138a565b9550610ea785611351565b60005b82811015610ec957815481890152600182019150602081019050610eaa565b80880195505050505b505092915050565b6000610ee760158361139b565b91507f54414b45525f4e4f545f57484954454c495354454400000000000000000000006000830152602082019050919050565b6000610f2760178361139b565b91507f414444524553535f4e4f545f57484954454c49535445440000000000000000006000830152602082019050919050565b6000610f6760138361139b565b91507f4f4e4c595f434f4e54524143545f4f574e4552000000000000000000000000006000830152602082019050919050565b6000610fa760158361139b565b91507f4d414b45525f4e4f545f57484954454c495354454400000000000000000000006000830152602082019050919050565b6000610fe7600e8361139b565b91507f494e56414c49445f53454e4445520000000000000000000000000000000000006000830152602082019050919050565b6000610180830160008301516110336000860182610d9d565b5060208301516110466020860182610d9d565b5060408301516110596040860182610d9d565b50606083015161106c6060860182610d9d565b50608083015161107f6080860182611125565b5060a083015161109260a0860182611125565b5060c08301516110a560c0860182611125565b5060e08301516110b860e0860182611125565b506101008301516110cd610100860182611125565b506101208301516110e2610120860182611125565b506101408301518482036101408601526110fc8282610e12565b9150506101608301518482036101608601526111188282610e12565b9150508091505092915050565b61112e816113f4565b82525050565b61113d816113f4565b82525050565b60006020820190506111586000830184610dac565b92915050565b60006020820190506111736000830184610dbb565b92915050565b600060208201905061118e6000830184610dca565b92915050565b600060208201905081810360008301526111ad81610eda565b9050919050565b600060208201905081810360008301526111cd81610f1a565b9050919050565b600060208201905081810360008301526111ed81610f5a565b9050919050565b6000602082019050818103600083015261120d81610f9a565b9050919050565b6000602082019050818103600083015261122d81610fda565b9050919050565b6000606082019050818103600083015261124e818661101a565b905061125d6020830185611134565b818103604083015261126f8184610dd9565b9050949350505050565b600060808201905061128e6000830187611134565b61129b6020830186610dac565b81810360408301526112ad8185610dd9565b905081810360608301526112c18184610e4b565b905095945050505050565b6000604051905081810181811067ffffffffffffffff821117156112ef57600080fd5b8060405250919050565b600067ffffffffffffffff82111561131057600080fd5b601f19601f8301169050602081019050919050565b600067ffffffffffffffff82111561133c57600080fd5b601f19601f8301169050602081019050919050565b60008160005260206000209050919050565b600081519050919050565b600081519050919050565b600082825260208201905092915050565b600082825260208201905092915050565b600082825260208201905092915050565b60006113b7826113d4565b9050919050565b60008115159050919050565b6000819050919050565b600073ffffffffffffffffffffffffffffffffffffffff82169050919050565b6000819050919050565b600061140982611426565b9050919050565b60008115159050919050565b6000819050919050565b600073ffffffffffffffffffffffffffffffffffffffff82169050919050565b6000819050919050565b82818337600083830152505050565b60005b8381101561147d578082015181840152602081019050611462565b8381111561148c576000848401525b50505050565b6000601f19601f830116905091905056fea265627a7a723058209cbe416a04b6a02f26b0c56fc3526fd3e6ca5995bb66dfcfe26b8cc679a5a4736c6578706572696d656e74616cf50037",
  "source": "/*\n\n  Copyright 2018 ZeroEx Intl.\n\n  Licensed under the Apache License, Version 2.0 (the \"License\");\n  you may not use this file except in compliance with the License.\n  You may obtain a copy of the License at\n\n    http://www.apache.org/licenses/LICENSE-2.0\n\n  Unless required by applicable law or agreed to in writing, software\n  distributed under the License is distributed on an \"AS IS\" BASIS,\n  WITHOUT WARRANTIES OR CONDITIONS OF ANY KIND, either express or implied.\n  See the License for the specific language governing permissions and\n  limitations under the License.\n\n*/\n\npragma solidity ^0.5.5;\npragma experimental ABIEncoderV2;\n\nimport \"./IExchange.sol\";\nimport \"@0x/contracts-exchange-libs/contracts/src/LibOrder.sol\";\nimport \"@0x/contracts-utils/contracts/src/Ownable.sol\";\n\n\ncontract Whitelist is\n    Ownable\n{\n\n    // Mapping of address => whitelist status.\n    mapping (address => bool) public isWhitelisted;\n\n    // Mapping of address => domain\n    mapping (address => bytes32) private addressToDomain;\n\n    // Exchange contract.\n    // solhint-disable var-name-mixedcase\n    IExchange internal EXCHANGE;\n    bytes internal TX_ORIGIN_SIGNATURE;\n    // solhint-enable var-name-mixedcase\n\n    byte constant internal VALIDATOR_SIGNATURE_BYTE = \"\\x05\";\n\n    constructor (address _exchange)\n        public\n    {\n        EXCHANGE = IExchange(_exchange);\n        TX_ORIGIN_SIGNATURE = abi.encodePacked(address(this), VALIDATOR_SIGNATURE_BYTE);\n    }\n\n    /// @dev Admin adds or removes an address from the whitelist.\n    /// @param target Address to add or remove from whitelist.\n    /// @param fqdn FQDN (domain) to map to address.\n    /// @param isApproved Whitelist status to assign to address.\n    function adminUpdateWhitelistStatus(\n        address target,\n        bytes32 fqdn,\n        bool isApproved\n    )\n        external\n        onlyOwner\n    {\n\n        isWhitelisted[target] = isApproved;\n        addressToDomain[target] = fqdn;\n    }\n\n    /// @dev Admin views any domain mapped to a valid whitelisted address\n    /// @param target Address to validate and return domain mapping for.\n    function adminGetValidDomainMapping(\n        address target\n    )\n        external\n        view\n        onlyOwner\n        returns (bytes32 fqdn)\n    {\n\n        require(\n            isWhitelisted[target],\n            \"ADDRESS_NOT_WHITELISTED\"\n        );\n\n        return addressToDomain[target];\n\n    }\n\n    /// @dev Valid whitelisted address can query its own domain mapping.\n    function getValidDomainMapping()\n        external\n        view\n        returns (bytes32 fqdn)\n    {\n\n        require(\n            isWhitelisted[msg.sender],\n            'INVALID_SENDER'\n        );\n\n        return addressToDomain[msg.sender];\n\n    }\n\n\n    /// @dev Verifies signer is same as signer of current Ethereum transaction.\n    ///      NOTE: This function can currently be used to validate signatures coming from outside of this contract.\n    ///      Extra safety checks can be added for a production contract.\n    /// @param signerAddress Address that should have signed the given hash.\n    /// @param signature Proof of signing.\n    /// @return Validity of order signature.\n    // solhint-disable no-unused-vars\n    function isValidSignature(\n        bytes32 hash,\n        address signerAddress,\n        bytes calldata signature\n    )\n        external\n        view\n        returns (bool isValid)\n    {\n        // solhint-disable-next-line avoid-tx-origin\n        return signerAddress == tx.origin;\n    }\n    // solhint-enable no-unused-vars\n\n    /// @dev Fills an order using `msg.sender` as the taker.\n    ///      The transaction will revert if both the maker and taker are not whitelisted.\n    ///      Orders should specify this contract as the `senderAddress` in order to gaurantee\n    ///      that both maker and taker have been whitelisted.\n    /// @param order Order struct containing order specifications.\n    /// @param takerAssetFillAmount Desired amount of takerAsset to sell.\n    /// @param salt Arbitrary value to gaurantee uniqueness of 0x transaction hash.\n    /// @param orderSignature Proof that order has been created by maker.\n    function fillOrderIfWhitelisted(\n        LibOrder.Order memory order,\n        uint256 takerAssetFillAmount,\n        uint256 salt,\n        bytes memory orderSignature\n    )\n        public\n    {\n        address takerAddress = msg.sender;\n\n        // This contract must be the entry point for the transaction.\n        require(\n            // solhint-disable-next-line avoid-tx-origin\n            takerAddress == tx.origin,\n            \"INVALID_SENDER\"\n        );\n\n        // Check if maker is on the whitelist.\n        require(\n            isWhitelisted[order.makerAddress],\n            \"MAKER_NOT_WHITELISTED\"\n        );\n\n        // Check if taker is on the whitelist.\n        require(\n            isWhitelisted[takerAddress],\n            \"TAKER_NOT_WHITELISTED\"\n        );\n\n        // Encode arguments into byte array.\n        bytes memory data = abi.encodeWithSelector(\n            EXCHANGE.fillOrder.selector,\n            order,\n            takerAssetFillAmount,\n            orderSignature\n        );\n\n        // Call `fillOrder` via `executeTransaction`.\n        EXCHANGE.executeTransaction(\n            salt,\n            takerAddress,\n            data,\n            TX_ORIGIN_SIGNATURE\n        );\n    }\n}\n",
  "sourcePath": "/Users/lauren/github/registry-contract/contracts/Whitelist.sol",
  "compiler": {
    "name": "solc",
    "version": "0.5.5+commit.47a71e8f.Emscripten.clang"
  },
  "schemaVersion": "3.0.10",
  "updatedAt": "2019-06-12T01:28:14.091Z",
  "devdoc": {
    "methods": {
      "adminGetValidDomainMapping(address)": {
        "details": "Admin views any domain mapped to a valid whitelisted address",
        "params": {
          "target": "Address to validate and return domain mapping for."
        }
      },
      "adminUpdateWhitelistStatus(address,bytes32,bool)": {
        "details": "Admin adds or removes an address from the whitelist.",
        "params": {
          "fqdn": "FQDN (domain) to map to address.",
          "isApproved": "Whitelist status to assign to address.",
          "target": "Address to add or remove from whitelist."
        }
      },
      "fillOrderIfWhitelisted((address,address,address,address,uint256,uint256,uint256,uint256,uint256,uint256,bytes,bytes),uint256,uint256,bytes)": {
        "details": "Fills an order using `msg.sender` as the taker.      The transaction will revert if both the maker and taker are not whitelisted.      Orders should specify this contract as the `senderAddress` in order to gaurantee      that both maker and taker have been whitelisted.",
        "params": {
          "order": "Order struct containing order specifications.",
          "orderSignature": "Proof that order has been created by maker.",
          "salt": "Arbitrary value to gaurantee uniqueness of 0x transaction hash.",
          "takerAssetFillAmount": "Desired amount of takerAsset to sell."
        }
      },
      "getValidDomainMapping()": {
        "details": "Valid whitelisted address can query its own domain mapping."
      },
      "isValidSignature(bytes32,address,bytes)": {
        "details": "Verifies signer is same as signer of current Ethereum transaction.      NOTE: This function can currently be used to validate signatures coming from outside of this contract.      Extra safety checks can be added for a production contract.",
        "params": {
          "signature": "Proof of signing.",
          "signerAddress": "Address that should have signed the given hash."
        },
        "return": "Validity of order signature."
      }
    }
  },
  "userdoc": {
    "methods": {}
  }
}