{
  "contractName": "Whitelist",
  "abi": [
    {
      "constant": true,
      "inputs": [
        {
          "name": "",
          "type": "address"
        }
      ],
      "name": "isWhitelisted",
      "outputs": [
        {
          "name": "",
          "type": "bool"
        }
      ],
      "payable": false,
      "stateMutability": "view",
      "type": "function"
    },
    {
      "constant": true,
      "inputs": [],
      "name": "owner",
      "outputs": [
        {
          "name": "",
          "type": "address"
        }
      ],
      "payable": false,
      "stateMutability": "view",
      "type": "function"
    },
    {
      "constant": false,
      "inputs": [
        {
          "name": "newOwner",
          "type": "address"
        }
      ],
      "name": "transferOwnership",
      "outputs": [],
      "payable": false,
      "stateMutability": "nonpayable",
      "type": "function"
    },
    {
      "inputs": [
        {
          "name": "_exchange",
          "type": "address"
        }
      ],
      "payable": false,
      "stateMutability": "nonpayable",
      "type": "constructor"
    },
    {
      "constant": false,
      "inputs": [
        {
          "name": "target",
          "type": "address"
        },
        {
          "name": "isApproved",
          "type": "bool"
        }
      ],
      "name": "updateWhitelistStatus",
      "outputs": [],
      "payable": false,
      "stateMutability": "nonpayable",
      "type": "function"
    },
    {
      "constant": true,
      "inputs": [
        {
          "name": "hash",
          "type": "bytes32"
        },
        {
          "name": "signerAddress",
          "type": "address"
        },
        {
          "name": "signature",
          "type": "bytes"
        }
      ],
      "name": "isValidSignature",
      "outputs": [
        {
          "name": "isValid",
          "type": "bool"
        }
      ],
      "payable": false,
      "stateMutability": "view",
      "type": "function"
    },
    {
      "constant": false,
      "inputs": [
        {
          "components": [
            {
              "name": "makerAddress",
              "type": "address"
            },
            {
              "name": "takerAddress",
              "type": "address"
            },
            {
              "name": "feeRecipientAddress",
              "type": "address"
            },
            {
              "name": "senderAddress",
              "type": "address"
            },
            {
              "name": "makerAssetAmount",
              "type": "uint256"
            },
            {
              "name": "takerAssetAmount",
              "type": "uint256"
            },
            {
              "name": "makerFee",
              "type": "uint256"
            },
            {
              "name": "takerFee",
              "type": "uint256"
            },
            {
              "name": "expirationTimeSeconds",
              "type": "uint256"
            },
            {
              "name": "salt",
              "type": "uint256"
            },
            {
              "name": "makerAssetData",
              "type": "bytes"
            },
            {
              "name": "takerAssetData",
              "type": "bytes"
            }
          ],
          "name": "order",
          "type": "tuple"
        },
        {
          "name": "takerAssetFillAmount",
          "type": "uint256"
        },
        {
          "name": "salt",
          "type": "uint256"
        },
        {
          "name": "orderSignature",
          "type": "bytes"
        }
      ],
      "name": "fillOrderIfWhitelisted",
      "outputs": [],
      "payable": false,
      "stateMutability": "nonpayable",
      "type": "function"
    }
  ],
  "bytecode": "0x60806040523480156200001157600080fd5b50604051602080620014918339810180604052620000339190810190620001dc565b336000806101000a81548173ffffffffffffffffffffffffffffffffffffffff021916908373ffffffffffffffffffffffffffffffffffffffff16021790555080600260006101000a81548173ffffffffffffffffffffffffffffffffffffffff021916908373ffffffffffffffffffffffffffffffffffffffff160217905550307f0500000000000000000000000000000000000000000000000000000000000000604051602001620000e99291906200023e565b604051602081830303815290604052600390805190602001906200010f92919062000117565b505062000341565b828054600181600116156101000203166002900490600052602060002090601f016020900481019282601f106200015a57805160ff19168380011785556200018b565b828001600101855582156200018b579182015b828111156200018a5782518255916020019190600101906200016d565b5b5090506200019a91906200019e565b5090565b620001c391905b80821115620001bf576000816000905550600101620001a5565b5090565b90565b6000620001d48251620002ce565b905092915050565b600060208284031215620001ef57600080fd5b6000620001ff84828501620001c6565b91505092915050565b6200021d62000217826200026e565b62000302565b82525050565b62000238620002328262000282565b62000316565b82525050565b60006200024c828562000208565b6014820191506200025e828462000223565b6001820191508190509392505050565b60006200027b82620002ae565b9050919050565b60007fff0000000000000000000000000000000000000000000000000000000000000082169050919050565b600073ffffffffffffffffffffffffffffffffffffffff82169050919050565b6000620002db82620002e2565b9050919050565b600073ffffffffffffffffffffffffffffffffffffffff82169050919050565b60006200030f8262000320565b9050919050565b6000819050919050565b60006200032d8262000334565b9050919050565b60008160601b9050919050565b61114080620003516000396000f3fe608060405234801561001057600080fd5b50600436106100625760003560e01c8063141da876146100675780633af32abf146100835780638da5cb5b146100b357806393634702146100d1578063c07732a314610101578063f2fde38b1461011d575b600080fd5b610081600480360361007c9190810190610a01565b610139565b005b61009d60048036036100989190810190610930565b610423565b6040516100aa9190610e06565b60405180910390f35b6100bb610443565b6040516100c89190610deb565b60405180910390f35b6100eb60048036036100e69190810190610995565b610468565b6040516100f89190610e06565b60405180910390f35b61011b60048036036101169190810190610959565b6104a3565b005b61013760048036036101329190810190610930565b61058f565b005b60003390503273ffffffffffffffffffffffffffffffffffffffff168173ffffffffffffffffffffffffffffffffffffffff161415156101ae576040517f08c379a00000000000000000000000000000000000000000000000000000000081526004016101a590610e81565b60405180910390fd5b60016000866000015173ffffffffffffffffffffffffffffffffffffffff1673ffffffffffffffffffffffffffffffffffffffff16815260200190815260200160002060009054906101000a900460ff161515610240576040517f08c379a000000000000000000000000000000000000000000000000000000000815260040161023790610e61565b60405180910390fd5b600160008273ffffffffffffffffffffffffffffffffffffffff1673ffffffffffffffffffffffffffffffffffffffff16815260200190815260200160002060009054906101000a900460ff1615156102ce576040517f08c379a00000000000000000000000000000000000000000000000000000000081526004016102c590610e21565b60405180910390fd5b6060600260009054906101000a900473ffffffffffffffffffffffffffffffffffffffff1673ffffffffffffffffffffffffffffffffffffffff1663b4be83d5905060e01b86868560405160240161032893929190610ea1565b604051602081830303815290604052907bffffffffffffffffffffffffffffffffffffffffffffffffffffffff19166020820180517bffffffffffffffffffffffffffffffffffffffffffffffffffffffff83818316178352505050509050600260009054906101000a900473ffffffffffffffffffffffffffffffffffffffff1673ffffffffffffffffffffffffffffffffffffffff1663bfc8bfce85848460036040518563ffffffff1660e01b81526004016103e99493929190610ee6565b600060405180830381600087803b15801561040357600080fd5b505af1158015610417573d6000803e3d6000fd5b50505050505050505050565b60016020528060005260406000206000915054906101000a900460ff1681565b6000809054906101000a900473ffffffffffffffffffffffffffffffffffffffff1681565b60003273ffffffffffffffffffffffffffffffffffffffff168473ffffffffffffffffffffffffffffffffffffffff16149050949350505050565b6000809054906101000a900473ffffffffffffffffffffffffffffffffffffffff1673ffffffffffffffffffffffffffffffffffffffff163373ffffffffffffffffffffffffffffffffffffffff16141515610534576040517f08c379a000000000000000000000000000000000000000000000000000000000815260040161052b90610e41565b60405180910390fd5b80600160008473ffffffffffffffffffffffffffffffffffffffff1673ffffffffffffffffffffffffffffffffffffffff16815260200190815260200160002060006101000a81548160ff0219169083151502179055505050565b6000809054906101000a900473ffffffffffffffffffffffffffffffffffffffff1673ffffffffffffffffffffffffffffffffffffffff163373ffffffffffffffffffffffffffffffffffffffff16141515610620576040517f08c379a000000000000000000000000000000000000000000000000000000000815260040161061790610e41565b60405180910390fd5b600073ffffffffffffffffffffffffffffffffffffffff168173ffffffffffffffffffffffffffffffffffffffff1614151561069757806000806101000a81548173ffffffffffffffffffffffffffffffffffffffff021916908373ffffffffffffffffffffffffffffffffffffffff1602179055505b50565b60006106a68235611061565b905092915050565b60006106ba8235611073565b905092915050565b60006106ce823561107f565b905092915050565b60008083601f84011215156106ea57600080fd5b8235905067ffffffffffffffff81111561070357600080fd5b60208301915083600182028301111561071b57600080fd5b9250929050565b600082601f830112151561073557600080fd5b813561074861074382610f66565b610f39565b9150808252602083016020830185838301111561076457600080fd5b61076f8382846110b3565b50505092915050565b600082601f830112151561078b57600080fd5b813561079e61079982610f92565b610f39565b915080825260208301602083018583830111156107ba57600080fd5b6107c58382846110b3565b50505092915050565b600061018082840312156107e157600080fd5b6107ec610180610f39565b905060006107fc8482850161069a565b60008301525060206108108482850161069a565b60208301525060406108248482850161069a565b60408301525060606108388482850161069a565b606083015250608061084c8482850161091c565b60808301525060a06108608482850161091c565b60a08301525060c06108748482850161091c565b60c08301525060e06108888482850161091c565b60e08301525061010061089d8482850161091c565b610100830152506101206108b38482850161091c565b6101208301525061014082013567ffffffffffffffff8111156108d557600080fd5b6108e184828501610722565b6101408301525061016082013567ffffffffffffffff81111561090357600080fd5b61090f84828501610722565b6101608301525092915050565b600061092882356110a9565b905092915050565b60006020828403121561094257600080fd5b60006109508482850161069a565b91505092915050565b6000806040838503121561096c57600080fd5b600061097a8582860161069a565b925050602061098b858286016106ae565b9150509250929050565b600080600080606085870312156109ab57600080fd5b60006109b9878288016106c2565b94505060206109ca8782880161069a565b935050604085013567ffffffffffffffff8111156109e757600080fd5b6109f3878288016106d6565b925092505092959194509250565b60008060008060808587031215610a1757600080fd5b600085013567ffffffffffffffff811115610a3157600080fd5b610a3d878288016107ce565b9450506020610a4e8782880161091c565b9350506040610a5f8782880161091c565b925050606085013567ffffffffffffffff811115610a7c57600080fd5b610a8887828801610778565b91505092959194509250565b610a9d81611019565b82525050565b610aac81611019565b82525050565b610abb8161102b565b82525050565b6000610acc82610fdb565b610ad68185610ff7565b9350610ae68185602086016110c2565b610aef816110f5565b840191505092915050565b6000610b0582610fd0565b610b0f8185610fe6565b9350610b1f8185602086016110c2565b610b28816110f5565b840191505092915050565b600081546001811660008114610b505760018114610b7657610bba565b607f6002830416610b618187610ff7565b955060ff198316865260208601935050610bba565b60028204610b848187610ff7565b9550610b8f85610fbe565b60005b82811015610bb157815481890152600182019150602081019050610b92565b80880195505050505b505092915050565b6000610bcf601583611008565b91507f54414b45525f4e4f545f57484954454c495354454400000000000000000000006000830152602082019050919050565b6000610c0f601383611008565b91507f4f4e4c595f434f4e54524143545f4f574e4552000000000000000000000000006000830152602082019050919050565b6000610c4f601583611008565b91507f4d414b45525f4e4f545f57484954454c495354454400000000000000000000006000830152602082019050919050565b6000610c8f600e83611008565b91507f494e56414c49445f53454e4445520000000000000000000000000000000000006000830152602082019050919050565b600061018083016000830151610cdb6000860182610a94565b506020830151610cee6020860182610a94565b506040830151610d016040860182610a94565b506060830151610d146060860182610a94565b506080830151610d276080860182610dcd565b5060a0830151610d3a60a0860182610dcd565b5060c0830151610d4d60c0860182610dcd565b5060e0830151610d6060e0860182610dcd565b50610100830151610d75610100860182610dcd565b50610120830151610d8a610120860182610dcd565b50610140830151848203610140860152610da48282610afa565b915050610160830151848203610160860152610dc08282610afa565b9150508091505092915050565b610dd681611057565b82525050565b610de581611057565b82525050565b6000602082019050610e006000830184610aa3565b92915050565b6000602082019050610e1b6000830184610ab2565b92915050565b60006020820190508181036000830152610e3a81610bc2565b9050919050565b60006020820190508181036000830152610e5a81610c02565b9050919050565b60006020820190508181036000830152610e7a81610c42565b9050919050565b60006020820190508181036000830152610e9a81610c82565b9050919050565b60006060820190508181036000830152610ebb8186610cc2565b9050610eca6020830185610ddc565b8181036040830152610edc8184610ac1565b9050949350505050565b6000608082019050610efb6000830187610ddc565b610f086020830186610aa3565b8181036040830152610f1a8185610ac1565b90508181036060830152610f2e8184610b33565b905095945050505050565b6000604051905081810181811067ffffffffffffffff82111715610f5c57600080fd5b8060405250919050565b600067ffffffffffffffff821115610f7d57600080fd5b601f19601f8301169050602081019050919050565b600067ffffffffffffffff821115610fa957600080fd5b601f19601f8301169050602081019050919050565b60008160005260206000209050919050565b600081519050919050565b600081519050919050565b600082825260208201905092915050565b600082825260208201905092915050565b600082825260208201905092915050565b600061102482611037565b9050919050565b60008115159050919050565b600073ffffffffffffffffffffffffffffffffffffffff82169050919050565b6000819050919050565b600061106c82611089565b9050919050565b60008115159050919050565b6000819050919050565b600073ffffffffffffffffffffffffffffffffffffffff82169050919050565b6000819050919050565b82818337600083830152505050565b60005b838110156110e05780820151818401526020810190506110c5565b838111156110ef576000848401525b50505050565b6000601f19601f830116905091905056fea265627a7a72305820ed5fd6d2834ffc358d5b7f7c5457ff9f3e8e7aedf1c9b8bc365025d44e2dfb6d6c6578706572696d656e74616cf50037",
  "source": "/*\n\n  Copyright 2018 ZeroEx Intl.\n\n  Licensed under the Apache License, Version 2.0 (the \"License\");\n  you may not use this file except in compliance with the License.\n  You may obtain a copy of the License at\n\n    http://www.apache.org/licenses/LICENSE-2.0\n\n  Unless required by applicable law or agreed to in writing, software\n  distributed under the License is distributed on an \"AS IS\" BASIS,\n  WITHOUT WARRANTIES OR CONDITIONS OF ANY KIND, either express or implied.\n  See the License for the specific language governing permissions and\n  limitations under the License.\n\n*/\n\npragma solidity ^0.5.5;\npragma experimental ABIEncoderV2;\n\nimport \"./IExchange.sol\";\nimport \"@0x/contracts-exchange-libs/contracts/src/LibOrder.sol\";\nimport \"@0x/contracts-utils/contracts/src/Ownable.sol\";\n\n\ncontract Whitelist is\n    Ownable\n{\n\n    // Mapping of address => whitelist status.\n    mapping (address => bool) public isWhitelisted;\n\n    // Exchange contract.\n    // solhint-disable var-name-mixedcase\n    IExchange internal EXCHANGE;\n    bytes internal TX_ORIGIN_SIGNATURE;\n    // solhint-enable var-name-mixedcase\n\n    byte constant internal VALIDATOR_SIGNATURE_BYTE = \"\\x05\";\n\n    constructor (address _exchange)\n        public\n    {\n        EXCHANGE = IExchange(_exchange);\n        TX_ORIGIN_SIGNATURE = abi.encodePacked(address(this), VALIDATOR_SIGNATURE_BYTE);\n    }\n\n    /// @dev Adds or removes an address from the whitelist.\n    /// @param target Address to add or remove from whitelist.\n    /// @param isApproved Whitelist status to assign to address.\n    function updateWhitelistStatus(\n        address target,\n        bool isApproved\n    )\n        external\n        onlyOwner\n    {\n        isWhitelisted[target] = isApproved;\n    }\n\n    /// @dev Verifies signer is same as signer of current Ethereum transaction.\n    ///      NOTE: This function can currently be used to validate signatures coming from outside of this contract.\n    ///      Extra safety checks can be added for a production contract.\n    /// @param signerAddress Address that should have signed the given hash.\n    /// @param signature Proof of signing.\n    /// @return Validity of order signature.\n    // solhint-disable no-unused-vars\n    function isValidSignature(\n        bytes32 hash,\n        address signerAddress,\n        bytes calldata signature\n    )\n        external\n        view\n        returns (bool isValid)\n    {\n        // solhint-disable-next-line avoid-tx-origin\n        return signerAddress == tx.origin;\n    }\n    // solhint-enable no-unused-vars\n\n    /// @dev Fills an order using `msg.sender` as the taker.\n    ///      The transaction will revert if both the maker and taker are not whitelisted.\n    ///      Orders should specify this contract as the `senderAddress` in order to gaurantee\n    ///      that both maker and taker have been whitelisted.\n    /// @param order Order struct containing order specifications.\n    /// @param takerAssetFillAmount Desired amount of takerAsset to sell.\n    /// @param salt Arbitrary value to gaurantee uniqueness of 0x transaction hash.\n    /// @param orderSignature Proof that order has been created by maker.\n    function fillOrderIfWhitelisted(\n        LibOrder.Order memory order,\n        uint256 takerAssetFillAmount,\n        uint256 salt,\n        bytes memory orderSignature\n    )\n        public\n    {\n        address takerAddress = msg.sender;\n\n        // This contract must be the entry point for the transaction.\n        require(\n            // solhint-disable-next-line avoid-tx-origin\n            takerAddress == tx.origin,\n            \"INVALID_SENDER\"\n        );\n\n        // Check if maker is on the whitelist.\n        require(\n            isWhitelisted[order.makerAddress],\n            \"MAKER_NOT_WHITELISTED\"\n        );\n\n        // Check if taker is on the whitelist.\n        require(\n            isWhitelisted[takerAddress],\n            \"TAKER_NOT_WHITELISTED\"\n        );\n\n        // Encode arguments into byte array.\n        bytes memory data = abi.encodeWithSelector(\n            EXCHANGE.fillOrder.selector,\n            order,\n            takerAssetFillAmount,\n            orderSignature\n        );\n\n        // Call `fillOrder` via `executeTransaction`.\n        EXCHANGE.executeTransaction(\n            salt,\n            takerAddress,\n            data,\n            TX_ORIGIN_SIGNATURE\n        );\n    }\n}\n",
  "sourcePath": "/Users/lauren/github/registry-contract/contracts/Whitelist.sol",
  "compiler": {
    "name": "solc",
    "version": "0.5.5+commit.47a71e8f.Emscripten.clang"
  },
  "schemaVersion": "3.0.10",
  "updatedAt": "2019-06-11T00:11:07.139Z",
  "devdoc": {
    "methods": {
      "fillOrderIfWhitelisted((address,address,address,address,uint256,uint256,uint256,uint256,uint256,uint256,bytes,bytes),uint256,uint256,bytes)": {
        "details": "Fills an order using `msg.sender` as the taker.      The transaction will revert if both the maker and taker are not whitelisted.      Orders should specify this contract as the `senderAddress` in order to gaurantee      that both maker and taker have been whitelisted.",
        "params": {
          "order": "Order struct containing order specifications.",
          "orderSignature": "Proof that order has been created by maker.",
          "salt": "Arbitrary value to gaurantee uniqueness of 0x transaction hash.",
          "takerAssetFillAmount": "Desired amount of takerAsset to sell."
        }
      },
      "isValidSignature(bytes32,address,bytes)": {
        "details": "Verifies signer is same as signer of current Ethereum transaction.      NOTE: This function can currently be used to validate signatures coming from outside of this contract.      Extra safety checks can be added for a production contract.",
        "params": {
          "signature": "Proof of signing.",
          "signerAddress": "Address that should have signed the given hash."
        },
        "return": "Validity of order signature."
      },
      "updateWhitelistStatus(address,bool)": {
        "details": "Adds or removes an address from the whitelist.",
        "params": {
          "isApproved": "Whitelist status to assign to address.",
          "target": "Address to add or remove from whitelist."
        }
      }
    }
  },
  "userdoc": {
    "methods": {}
  }
}