{
  "contractName": "Whitelist",
  "abi": [
    {
      "constant": true,
      "inputs": [
        {
          "name": "",
          "type": "address"
        }
      ],
      "name": "isWhitelisted",
      "outputs": [
        {
          "name": "",
          "type": "bool"
        }
      ],
      "payable": false,
      "stateMutability": "view",
      "type": "function"
    },
    {
      "constant": true,
      "inputs": [],
      "name": "owner",
      "outputs": [
        {
          "name": "",
          "type": "address"
        }
      ],
      "payable": false,
      "stateMutability": "view",
      "type": "function"
    },
    {
      "constant": false,
      "inputs": [
        {
          "name": "newOwner",
          "type": "address"
        }
      ],
      "name": "transferOwnership",
      "outputs": [],
      "payable": false,
      "stateMutability": "nonpayable",
      "type": "function"
    },
    {
      "inputs": [
        {
          "name": "_exchange",
          "type": "address"
        }
      ],
      "payable": false,
      "stateMutability": "nonpayable",
      "type": "constructor"
    },
    {
      "constant": false,
      "inputs": [
        {
          "name": "target",
          "type": "address"
        },
        {
          "name": "contentId",
          "type": "string"
        },
        {
          "name": "isApproved",
          "type": "bool"
        }
      ],
      "name": "adminUpdateWhitelist",
      "outputs": [],
      "payable": false,
      "stateMutability": "nonpayable",
      "type": "function"
    },
    {
      "constant": false,
      "inputs": [
        {
          "name": "target",
          "type": "address"
        },
        {
          "name": "isApproved",
          "type": "bool"
        }
      ],
      "name": "adminUpdateStatus",
      "outputs": [],
      "payable": false,
      "stateMutability": "nonpayable",
      "type": "function"
    },
    {
      "constant": false,
      "inputs": [
        {
          "name": "target",
          "type": "address"
        },
        {
          "name": "contentId",
          "type": "string"
        }
      ],
      "name": "adminRemoveContentIdFromAddress",
      "outputs": [],
      "payable": false,
      "stateMutability": "nonpayable",
      "type": "function"
    },
    {
      "constant": true,
      "inputs": [
        {
          "name": "contentId",
          "type": "string"
        }
      ],
      "name": "adminGetAddressByContentId",
      "outputs": [
        {
          "name": "target",
          "type": "address"
        }
      ],
      "payable": false,
      "stateMutability": "view",
      "type": "function"
    },
    {
      "constant": true,
      "inputs": [
        {
          "name": "target",
          "type": "address"
        }
      ],
      "name": "adminGetContentIdsByAddress",
      "outputs": [
        {
          "components": [
            {
              "name": "contentId",
              "type": "string"
            }
          ],
          "name": "",
          "type": "tuple[]"
        }
      ],
      "payable": false,
      "stateMutability": "view",
      "type": "function"
    },
    {
      "constant": true,
      "inputs": [],
      "name": "getContentIdsByAddress",
      "outputs": [
        {
          "components": [
            {
              "name": "contentId",
              "type": "string"
            }
          ],
          "name": "",
          "type": "tuple[]"
        }
      ],
      "payable": false,
      "stateMutability": "view",
      "type": "function"
    },
    {
      "constant": true,
      "inputs": [
        {
          "name": "hash",
          "type": "bytes32"
        },
        {
          "name": "signerAddress",
          "type": "address"
        },
        {
          "name": "signature",
          "type": "bytes"
        }
      ],
      "name": "isValidSignature",
      "outputs": [
        {
          "name": "isValid",
          "type": "bool"
        }
      ],
      "payable": false,
      "stateMutability": "view",
      "type": "function"
    },
    {
      "constant": false,
      "inputs": [
        {
          "components": [
            {
              "name": "makerAddress",
              "type": "address"
            },
            {
              "name": "takerAddress",
              "type": "address"
            },
            {
              "name": "feeRecipientAddress",
              "type": "address"
            },
            {
              "name": "senderAddress",
              "type": "address"
            },
            {
              "name": "makerAssetAmount",
              "type": "uint256"
            },
            {
              "name": "takerAssetAmount",
              "type": "uint256"
            },
            {
              "name": "makerFee",
              "type": "uint256"
            },
            {
              "name": "takerFee",
              "type": "uint256"
            },
            {
              "name": "expirationTimeSeconds",
              "type": "uint256"
            },
            {
              "name": "salt",
              "type": "uint256"
            },
            {
              "name": "makerAssetData",
              "type": "bytes"
            },
            {
              "name": "takerAssetData",
              "type": "bytes"
            }
          ],
          "name": "order",
          "type": "tuple"
        },
        {
          "name": "takerAssetFillAmount",
          "type": "uint256"
        },
        {
          "name": "salt",
          "type": "uint256"
        },
        {
          "name": "orderSignature",
          "type": "bytes"
        }
      ],
      "name": "fillOrderIfWhitelisted",
      "outputs": [],
      "payable": false,
      "stateMutability": "nonpayable",
      "type": "function"
    }
  ],
  "bytecode": "0x60806040523480156200001157600080fd5b50604051602080620028dd8339810180604052620000339190810190620001dc565b336000806101000a81548173ffffffffffffffffffffffffffffffffffffffff021916908373ffffffffffffffffffffffffffffffffffffffff16021790555080600460006101000a81548173ffffffffffffffffffffffffffffffffffffffff021916908373ffffffffffffffffffffffffffffffffffffffff160217905550307f0500000000000000000000000000000000000000000000000000000000000000604051602001620000e99291906200023e565b604051602081830303815290604052600590805190602001906200010f92919062000117565b505062000341565b828054600181600116156101000203166002900490600052602060002090601f016020900481019282601f106200015a57805160ff19168380011785556200018b565b828001600101855582156200018b579182015b828111156200018a5782518255916020019190600101906200016d565b5b5090506200019a91906200019e565b5090565b620001c391905b80821115620001bf576000816000905550600101620001a5565b5090565b90565b6000620001d48251620002ce565b905092915050565b600060208284031215620001ef57600080fd5b6000620001ff84828501620001c6565b91505092915050565b6200021d62000217826200026e565b62000302565b82525050565b62000238620002328262000282565b62000316565b82525050565b60006200024c828562000208565b6014820191506200025e828462000223565b6001820191508190509392505050565b60006200027b82620002ae565b9050919050565b60007fff0000000000000000000000000000000000000000000000000000000000000082169050919050565b600073ffffffffffffffffffffffffffffffffffffffff82169050919050565b6000620002db82620002e2565b9050919050565b600073ffffffffffffffffffffffffffffffffffffffff82169050919050565b60006200030f8262000320565b9050919050565b6000819050919050565b60006200032d8262000334565b9050919050565b60008160601b9050919050565b61258c80620003516000396000f3fe608060405234801561001057600080fd5b50600436106100a95760003560e01c806365d9abbb1161007157806365d9abbb146101625780637b97d034146101805780638da5cb5b146101b057806393634702146101ce578063ed5d0bcf146101fe578063f2fde38b1461021a576100a9565b80630a01d347146100ae578063141da876146100ca5780633af32abf146100e657806344ff29dc146101165780634981604114610132575b600080fd5b6100c860048036036100c39190810190611a52565b610236565b005b6100e460048036036100df9190810190611b6f565b6104d2565b005b61010060048036036100fb9190810190611995565b6107bc565b60405161010d91906121aa565b60405180910390f35b610130600480360361012b91908101906119be565b6107dc565b005b61014c60048036036101479190810190611995565b610919565b6040516101599190612188565b60405180910390f35b61016a610b74565b6040516101779190612188565b60405180910390f35b61019a60048036036101959190810190611b2a565b610d3c565b6040516101a7919061216d565b60405180910390f35b6101b8610ee6565b6040516101c5919061216d565b60405180910390f35b6101e860048036036101e39190810190611abe565b610f0b565b6040516101f591906121aa565b60405180910390f35b610218600480360361021391908101906119fa565b610f46565b005b610234600480360361022f9190810190611995565b611302565b005b6000809054906101000a900473ffffffffffffffffffffffffffffffffffffffff1673ffffffffffffffffffffffffffffffffffffffff163373ffffffffffffffffffffffffffffffffffffffff161415156102c7576040517f08c379a00000000000000000000000000000000000000000000000000000000081526004016102be90612225565b60405180910390fd5b8373ffffffffffffffffffffffffffffffffffffffff16600284846040516102f092919061213d565b908152602001604051809103902060009054906101000a900473ffffffffffffffffffffffffffffffffffffffff1673ffffffffffffffffffffffffffffffffffffffff1614151561047557600360008573ffffffffffffffffffffffffffffffffffffffff1673ffffffffffffffffffffffffffffffffffffffff168152602001908152602001600020604051806020016040528085858080601f016020809104026020016040519081016040528093929190818152602001838380828437600081840152601f19601f82011690508083019250505050505050815250908060018154018082558091505090600182039060005260206000200160009091929091909150600082015181600001908051906020019061041192919061160e565b50505050836002848460405161042892919061213d565b908152602001604051809103902060006101000a81548173ffffffffffffffffffffffffffffffffffffffff021916908373ffffffffffffffffffffffffffffffffffffffff1602179055505b80600160008673ffffffffffffffffffffffffffffffffffffffff1673ffffffffffffffffffffffffffffffffffffffff16815260200190815260200160002060006101000a81548160ff02191690831515021790555050505050565b60003390503273ffffffffffffffffffffffffffffffffffffffff168173ffffffffffffffffffffffffffffffffffffffff16141515610547576040517f08c379a000000000000000000000000000000000000000000000000000000000815260040161053e90612265565b60405180910390fd5b60016000866000015173ffffffffffffffffffffffffffffffffffffffff1673ffffffffffffffffffffffffffffffffffffffff16815260200190815260200160002060009054906101000a900460ff1615156105d9576040517f08c379a00000000000000000000000000000000000000000000000000000000081526004016105d090612245565b60405180910390fd5b600160008273ffffffffffffffffffffffffffffffffffffffff1673ffffffffffffffffffffffffffffffffffffffff16815260200190815260200160002060009054906101000a900460ff161515610667576040517f08c379a000000000000000000000000000000000000000000000000000000000815260040161065e906121c5565b60405180910390fd5b6060600460009054906101000a900473ffffffffffffffffffffffffffffffffffffffff1673ffffffffffffffffffffffffffffffffffffffff1663b4be83d5905060e01b8686856040516024016106c193929190612285565b604051602081830303815290604052907bffffffffffffffffffffffffffffffffffffffffffffffffffffffff19166020820180517bffffffffffffffffffffffffffffffffffffffffffffffffffffffff83818316178352505050509050600460009054906101000a900473ffffffffffffffffffffffffffffffffffffffff1673ffffffffffffffffffffffffffffffffffffffff1663bfc8bfce85848460056040518563ffffffff1660e01b815260040161078294939291906122ca565b600060405180830381600087803b15801561079c57600080fd5b505af11580156107b0573d6000803e3d6000fd5b50505050505050505050565b60016020528060005260406000206000915054906101000a900460ff1681565b6000809054906101000a900473ffffffffffffffffffffffffffffffffffffffff1673ffffffffffffffffffffffffffffffffffffffff163373ffffffffffffffffffffffffffffffffffffffff1614151561086d576040517f08c379a000000000000000000000000000000000000000000000000000000000815260040161086490612225565b60405180910390fd5b60006108788361140d565b61ffff161115156108be576040517f08c379a00000000000000000000000000000000000000000000000000000000081526004016108b590612205565b60405180910390fd5b80600160008473ffffffffffffffffffffffffffffffffffffffff1673ffffffffffffffffffffffffffffffffffffffff16815260200190815260200160002060006101000a81548160ff0219169083151502179055505050565b60606000809054906101000a900473ffffffffffffffffffffffffffffffffffffffff1673ffffffffffffffffffffffffffffffffffffffff163373ffffffffffffffffffffffffffffffffffffffff161415156109ac576040517f08c379a00000000000000000000000000000000000000000000000000000000081526004016109a390612225565b60405180910390fd5b600160008373ffffffffffffffffffffffffffffffffffffffff1673ffffffffffffffffffffffffffffffffffffffff16815260200190815260200160002060009054906101000a900460ff161515610a3a576040517f08c379a0000000000000000000000000000000000000000000000000000000008152600401610a31906121e5565b60405180910390fd5b600360008373ffffffffffffffffffffffffffffffffffffffff1673ffffffffffffffffffffffffffffffffffffffff168152602001908152602001600020805480602002602001604051908101604052809291908181526020016000905b82821015610b6957838290600052602060002001604051806020016040529081600082018054600181600116156101000203166002900480601f016020809104026020016040519081016040528092919081815260200182805460018160011615610100020316600290048015610b515780601f10610b2657610100808354040283529160200191610b51565b820191906000526020600020905b815481529060010190602001808311610b3457829003601f168201915b50505050508152505081526020019060010190610a99565b505050509050919050565b6060600160003373ffffffffffffffffffffffffffffffffffffffff1673ffffffffffffffffffffffffffffffffffffffff16815260200190815260200160002060009054906101000a900460ff161515610c04576040517f08c379a0000000000000000000000000000000000000000000000000000000008152600401610bfb90612265565b60405180910390fd5b600360003373ffffffffffffffffffffffffffffffffffffffff1673ffffffffffffffffffffffffffffffffffffffff168152602001908152602001600020805480602002602001604051908101604052809291908181526020016000905b82821015610d3357838290600052602060002001604051806020016040529081600082018054600181600116156101000203166002900480601f016020809104026020016040519081016040528092919081815260200182805460018160011615610100020316600290048015610d1b5780601f10610cf057610100808354040283529160200191610d1b565b820191906000526020600020905b815481529060010190602001808311610cfe57829003601f168201915b50505050508152505081526020019060010190610c63565b50505050905090565b60008060009054906101000a900473ffffffffffffffffffffffffffffffffffffffff1673ffffffffffffffffffffffffffffffffffffffff163373ffffffffffffffffffffffffffffffffffffffff16141515610dcf576040517f08c379a0000000000000000000000000000000000000000000000000000000008152600401610dc690612225565b60405180910390fd5b6001600060028585604051610de592919061213d565b908152602001604051809103902060009054906101000a900473ffffffffffffffffffffffffffffffffffffffff1673ffffffffffffffffffffffffffffffffffffffff1673ffffffffffffffffffffffffffffffffffffffff16815260200190815260200160002060009054906101000a900460ff161515610e9d576040517f08c379a0000000000000000000000000000000000000000000000000000000008152600401610e94906121e5565b60405180910390fd5b60028383604051610eaf92919061213d565b908152602001604051809103902060009054906101000a900473ffffffffffffffffffffffffffffffffffffffff16905092915050565b6000809054906101000a900473ffffffffffffffffffffffffffffffffffffffff1681565b60003273ffffffffffffffffffffffffffffffffffffffff168473ffffffffffffffffffffffffffffffffffffffff16149050949350505050565b6000809054906101000a900473ffffffffffffffffffffffffffffffffffffffff1673ffffffffffffffffffffffffffffffffffffffff163373ffffffffffffffffffffffffffffffffffffffff16141515610fd7576040517f08c379a0000000000000000000000000000000000000000000000000000000008152600401610fce90612225565b60405180910390fd5b600060028383604051610feb92919061213d565b908152602001604051809103902060006101000a81548173ffffffffffffffffffffffffffffffffffffffff021916908373ffffffffffffffffffffffffffffffffffffffff1602179055506060600360008573ffffffffffffffffffffffffffffffffffffffff1673ffffffffffffffffffffffffffffffffffffffff168152602001908152602001600020805480602002602001604051908101604052809291908181526020016000905b8282101561116857838290600052602060002001604051806020016040529081600082018054600181600116156101000203166002900480601f0160208091040260200160405190810160405280929190818152602001828054600181600116156101000203166002900480156111505780601f1061112557610100808354040283529160200191611150565b820191906000526020600020905b81548152906001019060200180831161113357829003601f168201915b50505050508152505081526020019060010190611098565b50505050905060008090505b815181101561128d576111e684848080601f016020809104026020016040519081016040528093929190818152602001838380828437600081840152601f19601f8201169050808301925050505050505083838151811015156111d357fe5b90602001906020020151600001516115b5565b1561128057604051806020016040528060405180602001604052806000815250815250600360008773ffffffffffffffffffffffffffffffffffffffff1673ffffffffffffffffffffffffffffffffffffffff1681526020019081526020016000208281548110151561125557fe5b90600052602060002001600082015181600001908051906020019061127b92919061160e565b509050505b8080600101915050611174565b5060006112998561140d565b61ffff1614156112fc576000600160008673ffffffffffffffffffffffffffffffffffffffff1673ffffffffffffffffffffffffffffffffffffffff16815260200190815260200160002060006101000a81548160ff0219169083151502179055505b50505050565b6000809054906101000a900473ffffffffffffffffffffffffffffffffffffffff1673ffffffffffffffffffffffffffffffffffffffff163373ffffffffffffffffffffffffffffffffffffffff16141515611393576040517f08c379a000000000000000000000000000000000000000000000000000000000815260040161138a90612225565b60405180910390fd5b600073ffffffffffffffffffffffffffffffffffffffff168173ffffffffffffffffffffffffffffffffffffffff1614151561140a57806000806101000a81548173ffffffffffffffffffffffffffffffffffffffff021916908373ffffffffffffffffffffffffffffffffffffffff1602179055505b50565b60006060600360008473ffffffffffffffffffffffffffffffffffffffff1673ffffffffffffffffffffffffffffffffffffffff168152602001908152602001600020805480602002602001604051908101604052809291908181526020016000905b8282101561154057838290600052602060002001604051806020016040529081600082018054600181600116156101000203166002900480601f0160208091040260200160405190810160405280929190818152602001828054600181600116156101000203166002900480156115285780601f106114fd57610100808354040283529160200191611528565b820191906000526020600020905b81548152906001019060200180831161150b57829003601f168201915b50505050508152505081526020019060010190611470565b505050509050600080905060008090505b82518110156115aa5761158e60405180602001604052806000815250848381518110151561157b57fe5b90602001906020020151600001516115b5565b151561159d5781806001019250505b8080600101915050611551565b508092505050919050565b6000816040516020016115c89190612156565b60405160208183030381529060405280519060200120836040516020016115ef9190612156565b6040516020818303038152906040528051906020012014905092915050565b828054600181600116156101000203166002900490600052602060002090601f016020900481019282601f1061164f57805160ff191683800117855561167d565b8280016001018555821561167d579182015b8281111561167c578251825591602001919060010190611661565b5b50905061168a919061168e565b5090565b6116b091905b808211156116ac576000816000905550600101611694565b5090565b90565b60006116bf82356124ad565b905092915050565b60006116d382356124bf565b905092915050565b60006116e782356124cb565b905092915050565b60008083601f840112151561170357600080fd5b8235905067ffffffffffffffff81111561171c57600080fd5b60208301915083600182028301111561173457600080fd5b9250929050565b600082601f830112151561174e57600080fd5b813561176161175c8261234a565b61231d565b9150808252602083016020830185838301111561177d57600080fd5b6117888382846124ff565b50505092915050565b600082601f83011215156117a457600080fd5b81356117b76117b282612376565b61231d565b915080825260208301602083018583830111156117d357600080fd5b6117de8382846124ff565b50505092915050565b60008083601f84011215156117fb57600080fd5b8235905067ffffffffffffffff81111561181457600080fd5b60208301915083600182028301111561182c57600080fd5b9250929050565b6000610180828403121561184657600080fd5b61185161018061231d565b90506000611861848285016116b3565b6000830152506020611875848285016116b3565b6020830152506040611889848285016116b3565b604083015250606061189d848285016116b3565b60608301525060806118b184828501611981565b60808301525060a06118c584828501611981565b60a08301525060c06118d984828501611981565b60c08301525060e06118ed84828501611981565b60e08301525061010061190284828501611981565b6101008301525061012061191884828501611981565b6101208301525061014082013567ffffffffffffffff81111561193a57600080fd5b6119468482850161173b565b6101408301525061016082013567ffffffffffffffff81111561196857600080fd5b6119748482850161173b565b6101608301525092915050565b600061198d82356124f5565b905092915050565b6000602082840312156119a757600080fd5b60006119b5848285016116b3565b91505092915050565b600080604083850312156119d157600080fd5b60006119df858286016116b3565b92505060206119f0858286016116c7565b9150509250929050565b600080600060408486031215611a0f57600080fd5b6000611a1d868287016116b3565b935050602084013567ffffffffffffffff811115611a3a57600080fd5b611a46868287016117e7565b92509250509250925092565b60008060008060608587031215611a6857600080fd5b6000611a76878288016116b3565b945050602085013567ffffffffffffffff811115611a9357600080fd5b611a9f878288016117e7565b93509350506040611ab2878288016116c7565b91505092959194509250565b60008060008060608587031215611ad457600080fd5b6000611ae2878288016116db565b9450506020611af3878288016116b3565b935050604085013567ffffffffffffffff811115611b1057600080fd5b611b1c878288016116ef565b925092505092959194509250565b60008060208385031215611b3d57600080fd5b600083013567ffffffffffffffff811115611b5757600080fd5b611b63858286016117e7565b92509250509250929050565b60008060008060808587031215611b8557600080fd5b600085013567ffffffffffffffff811115611b9f57600080fd5b611bab87828801611833565b9450506020611bbc87828801611981565b9350506040611bcd87828801611981565b925050606085013567ffffffffffffffff811115611bea57600080fd5b611bf687828801611791565b91505092959194509250565b6000611c0e8383611fea565b905092915050565b611c1f81612465565b82525050565b611c2e81612465565b82525050565b6000611c3f826123c1565b611c498185612405565b935083602082028501611c5b856123a2565b60005b84811015611c94578383038852611c76838351611c02565b9250611c81826123f8565b9150602088019750600181019050611c5e565b508196508694505050505092915050565b611cae81612477565b82525050565b6000611cbf826123d7565b611cc98185612427565b9350611cd981856020860161250e565b611ce281612541565b840191505092915050565b6000611cf8826123cc565b611d028185612416565b9350611d1281856020860161250e565b611d1b81612541565b840191505092915050565b600081546001811660008114611d435760018114611d6957611dad565b607f6002830416611d548187612427565b955060ff198316865260208601935050611dad565b60028204611d778187612427565b9550611d82856123af565b60005b82811015611da457815481890152600182019150602081019050611d85565b80880195505050505b505092915050565b6000611dc1838561245a565b9350611dce8385846124ff565b82840190509392505050565b6000611de5826123ed565b611def818561245a565b9350611dff81856020860161250e565b80840191505092915050565b6000611e16826123e2565b611e208185612438565b9350611e3081856020860161250e565b611e3981612541565b840191505092915050565b6000611e51601583612449565b91507f54414b45525f4e4f545f57484954454c495354454400000000000000000000006000830152602082019050919050565b6000611e91601783612449565b91507f414444524553535f4e4f545f57484954454c49535445440000000000000000006000830152602082019050919050565b6000611ed1602583612449565b91507f414444524553535f4841535f4e4f5f4153534f4349415445445f434f4e54454e60008301527f545f4944530000000000000000000000000000000000000000000000000000006020830152604082019050919050565b6000611f37601383612449565b91507f4f4e4c595f434f4e54524143545f4f574e4552000000000000000000000000006000830152602082019050919050565b6000611f77601583612449565b91507f4d414b45525f4e4f545f57484954454c495354454400000000000000000000006000830152602082019050919050565b6000611fb7600e83612449565b91507f494e56414c49445f53454e4445520000000000000000000000000000000000006000830152602082019050919050565b600060208301600083015184820360008601526120078282611e0b565b9150508091505092915050565b60006101808301600083015161202d6000860182611c16565b5060208301516120406020860182611c16565b5060408301516120536040860182611c16565b5060608301516120666060860182611c16565b506080830151612079608086018261211f565b5060a083015161208c60a086018261211f565b5060c083015161209f60c086018261211f565b5060e08301516120b260e086018261211f565b506101008301516120c761010086018261211f565b506101208301516120dc61012086018261211f565b506101408301518482036101408601526120f68282611ced565b9150506101608301518482036101608601526121128282611ced565b9150508091505092915050565b612128816124a3565b82525050565b612137816124a3565b82525050565b600061214a828486611db5565b91508190509392505050565b60006121628284611dda565b915081905092915050565b60006020820190506121826000830184611c25565b92915050565b600060208201905081810360008301526121a28184611c34565b905092915050565b60006020820190506121bf6000830184611ca5565b92915050565b600060208201905081810360008301526121de81611e44565b9050919050565b600060208201905081810360008301526121fe81611e84565b9050919050565b6000602082019050818103600083015261221e81611ec4565b9050919050565b6000602082019050818103600083015261223e81611f2a565b9050919050565b6000602082019050818103600083015261225e81611f6a565b9050919050565b6000602082019050818103600083015261227e81611faa565b9050919050565b6000606082019050818103600083015261229f8186612014565b90506122ae602083018561212e565b81810360408301526122c08184611cb4565b9050949350505050565b60006080820190506122df600083018761212e565b6122ec6020830186611c25565b81810360408301526122fe8185611cb4565b905081810360608301526123128184611d26565b905095945050505050565b6000604051905081810181811067ffffffffffffffff8211171561234057600080fd5b8060405250919050565b600067ffffffffffffffff82111561236157600080fd5b601f19601f8301169050602081019050919050565b600067ffffffffffffffff82111561238d57600080fd5b601f19601f8301169050602081019050919050565b6000602082019050919050565b60008160005260206000209050919050565b600081519050919050565b600081519050919050565b600081519050919050565b600081519050919050565b600081519050919050565b6000602082019050919050565b600082825260208201905092915050565b600082825260208201905092915050565b600082825260208201905092915050565b600082825260208201905092915050565b600082825260208201905092915050565b600081905092915050565b600061247082612483565b9050919050565b60008115159050919050565b600073ffffffffffffffffffffffffffffffffffffffff82169050919050565b6000819050919050565b60006124b8826124d5565b9050919050565b60008115159050919050565b6000819050919050565b600073ffffffffffffffffffffffffffffffffffffffff82169050919050565b6000819050919050565b82818337600083830152505050565b60005b8381101561252c578082015181840152602081019050612511565b8381111561253b576000848401525b50505050565b6000601f19601f830116905091905056fea265627a7a72305820f204daa08b2b23032a43854a4f8129b5483e5573d0415e78ca9edd130fcfdab86c6578706572696d656e74616cf50037",
  "source": "/*\n\n  Copyright 2019 Microsponsors, Inc.\n  This work has been modified for use by Microsponsors, Inc.\n  This derivative work is licensed under the Apache License, Version 2.0\n  Original license notice below:\n\n  Copyright 2018 ZeroEx Intl.\n\n  Licensed under the Apache License, Version 2.0 (the \"License\");\n  you may not use this file except in compliance with the License.\n  You may obtain a copy of the License at\n\n    http://www.apache.org/licenses/LICENSE-2.0\n\n  Unless required by applicable law or agreed to in writing, software\n  distributed under the License is distributed on an \"AS IS\" BASIS,\n  WITHOUT WARRANTIES OR CONDITIONS OF ANY KIND, either express or implied.\n  See the License for the specific language governing permissions and\n  limitations under the License.\n\n*/\n\npragma solidity ^0.5.5;\npragma experimental ABIEncoderV2;\n\nimport \"./IExchange.sol\";\nimport \"@0x/contracts-exchange-libs/contracts/src/LibOrder.sol\";\nimport \"@0x/contracts-utils/contracts/src/Ownable.sol\";\n\n\ncontract Whitelist is\n    Ownable\n{\n\n    // Microsponsors Registry Data:\n\n    // Mapping of address => whitelist status.\n    mapping (address => bool) public isWhitelisted;\n\n    // Mapping of contentId => address\n    mapping (string => address) private contentIdToAddress;\n\n    // Mapping of address => array of ContentId structs\n    struct ContentIdStruct {\n        string contentId;\n    }\n    mapping (address => ContentIdStruct[]) private addressToContentIds;\n\n\n    // Exchange contract.\n    // solhint-disable var-name-mixedcase\n    IExchange internal EXCHANGE;\n    bytes internal TX_ORIGIN_SIGNATURE;\n    // solhint-enable var-name-mixedcase\n\n    byte constant internal VALIDATOR_SIGNATURE_BYTE = \"\\x05\";\n\n    constructor (address _exchange)\n        public\n    {\n        EXCHANGE = IExchange(_exchange);\n        TX_ORIGIN_SIGNATURE = abi.encodePacked(address(this), VALIDATOR_SIGNATURE_BYTE);\n    }\n\n    /// @dev Admin adds or remove an address & domain mapping from the whitelist.\n    /// @param target Address to add or remove from whitelist.\n    /// @param contentId To map to ethereum address to.\n    /// @param isApproved Whitelist status to assign to address.\n    function adminUpdateWhitelist(\n        address target,\n        string calldata contentId,\n        bool isApproved\n    )\n        external\n        onlyOwner\n    {\n\n        // TODO:\n        // Set max length of content ids by checking bytes(contentId).length\n\n        // Check that content id is not a duplicate for this owner\n        if (contentIdToAddress[contentId] != target) {\n\n            addressToContentIds[target].push( ContentIdStruct(contentId) );\n            contentIdToAddress[contentId] = target;\n\n        }\n\n        isWhitelisted[target] = isApproved;\n\n    }\n\n\n    /// @dev Admin updates whitelist status for a given address.\n    /// @param target Address to update.\n    /// @param isApproved Whitelist status to assign to address.\n    function adminUpdateStatus(\n        address target,\n        bool isApproved\n    )\n        external\n        onlyOwner\n    {\n\n        require(\n          getNumContentIds(target) > 0,\n          'ADDRESS_HAS_NO_ASSOCIATED_CONTENT_IDS'\n        );\n\n        isWhitelisted[target] = isApproved;\n\n    }\n\n    /// @dev Admin updates whitelist status for a given address.\n    function adminRemoveContentIdFromAddress(\n        address target,\n        string calldata contentId\n    )\n        external\n        onlyOwner\n    {\n\n        contentIdToAddress[contentId] = address(0);\n\n        // Remove content id from addressToContentIds mapping\n        ContentIdStruct[] memory m = addressToContentIds[target];\n        for (uint i = 0; i < m.length; i++) {\n            if (stringsMatch(contentId, m[i].contentId)) {\n                addressToContentIds[target][i] = ContentIdStruct('');\n            }\n        }\n\n        // If address has no valid content ids left, remove from Whitelist\n        if (getNumContentIds(target) == 0) {\n            isWhitelisted[target] = false;\n        }\n\n    }\n\n\n    function adminGetAddressByContentId(\n        string calldata contentId\n    )\n        external\n        view\n        onlyOwner\n        returns (address target)\n    {\n\n        require(\n            isWhitelisted[ contentIdToAddress[contentId] ],\n            \"ADDRESS_NOT_WHITELISTED\"\n        );\n\n        return contentIdToAddress[contentId];\n\n    }\n\n\n    /// @dev Admin gets contentIds mapped to a valid whitelisted address.\n    /// @param target Ethereum address to validate & return contentIds for.\n    function adminGetContentIdsByAddress(\n        address target\n    )\n        external\n        view\n        onlyOwner\n        returns (ContentIdStruct[] memory)\n    {\n\n        require(\n            isWhitelisted[target],\n            \"ADDRESS_NOT_WHITELISTED\"\n        );\n\n        return addressToContentIds[target];\n\n    }\n\n\n    /// @dev Valid whitelisted address can query its own contentIds.\n    function getContentIdsByAddress()\n        external\n        view\n        returns (ContentIdStruct[] memory)\n    {\n\n        require(\n            isWhitelisted[msg.sender],\n            'INVALID_SENDER'\n        );\n\n        return addressToContentIds[msg.sender];\n\n    }\n\n\n    /// @dev Verifies signer is same as signer of current Ethereum transaction.\n    ///      NOTE: This function can currently be used to validate signatures coming from outside of this contract.\n    ///      Extra safety checks can be added for a production contract.\n    /// @param signerAddress Address that should have signed the given hash.\n    /// @param signature Proof of signing.\n    /// @return Validity of order signature.\n    // solhint-disable no-unused-vars\n    function isValidSignature(\n        bytes32 hash,\n        address signerAddress,\n        bytes calldata signature\n    )\n        external\n        view\n        returns (bool isValid)\n    {\n        // solhint-disable-next-line avoid-tx-origin\n        return signerAddress == tx.origin;\n    }\n    // solhint-enable no-unused-vars\n\n    /// @dev Fills an order using `msg.sender` as the taker.\n    ///      The transaction will revert if both the maker and taker are not whitelisted.\n    ///      Orders should specify this contract as the `senderAddress` in order to gaurantee\n    ///      that both maker and taker have been whitelisted.\n    /// @param order Order struct containing order specifications.\n    /// @param takerAssetFillAmount Desired amount of takerAsset to sell.\n    /// @param salt Arbitrary value to gaurantee uniqueness of 0x transaction hash.\n    /// @param orderSignature Proof that order has been created by maker.\n    function fillOrderIfWhitelisted(\n        LibOrder.Order memory order,\n        uint256 takerAssetFillAmount,\n        uint256 salt,\n        bytes memory orderSignature\n    )\n        public\n    {\n        address takerAddress = msg.sender;\n\n        // This contract must be the entry point for the transaction.\n        require(\n            // solhint-disable-next-line avoid-tx-origin\n            takerAddress == tx.origin,\n            \"INVALID_SENDER\"\n        );\n\n        // Check if maker is on the whitelist.\n        require(\n            isWhitelisted[order.makerAddress],\n            \"MAKER_NOT_WHITELISTED\"\n        );\n\n        // Check if taker is on the whitelist.\n        require(\n            isWhitelisted[takerAddress],\n            \"TAKER_NOT_WHITELISTED\"\n        );\n\n        // Encode arguments into byte array.\n        bytes memory data = abi.encodeWithSelector(\n            EXCHANGE.fillOrder.selector,\n            order,\n            takerAssetFillAmount,\n            orderSignature\n        );\n\n        // Call `fillOrder` via `executeTransaction`.\n        EXCHANGE.executeTransaction(\n            salt,\n            takerAddress,\n            data,\n            TX_ORIGIN_SIGNATURE\n        );\n    }\n\n\n    /* Helpers */\n\n    function stringsMatch (\n        string memory a,\n        string memory b\n    )\n        private\n        pure\n        returns (bool)\n    {\n        return (keccak256(abi.encodePacked((a))) == keccak256(abi.encodePacked((b))) );\n    }\n\n    function getNumContentIds (\n        address target\n    )\n        private\n        view\n        returns (uint16 result)\n    {\n\n        ContentIdStruct[] memory m = addressToContentIds[target];\n        uint16 counter = 0;\n        for (uint i = 0; i < m.length; i++) {\n            if (!stringsMatch('', m[i].contentId)) {\n                counter++;\n            }\n        }\n\n        return counter;\n\n    }\n\n}\n",
  "sourcePath": "/Users/lauren/github/registry-contract/contracts/Whitelist.sol",
  "compiler": {
    "name": "solc",
    "version": "0.5.5+commit.47a71e8f.Emscripten.clang"
  },
  "schemaVersion": "3.0.10",
  "updatedAt": "2019-07-12T23:10:41.349Z",
  "devdoc": {
    "methods": {
      "adminGetContentIdsByAddress(address)": {
        "details": "Admin gets contentIds mapped to a valid whitelisted address.",
        "params": {
          "target": "Ethereum address to validate & return contentIds for."
        }
      },
      "adminRemoveContentIdFromAddress(address,string)": {
        "details": "Admin updates whitelist status for a given address."
      },
      "adminUpdateStatus(address,bool)": {
        "details": "Admin updates whitelist status for a given address.",
        "params": {
          "isApproved": "Whitelist status to assign to address.",
          "target": "Address to update."
        }
      },
      "adminUpdateWhitelist(address,string,bool)": {
        "details": "Admin adds or remove an address & domain mapping from the whitelist.",
        "params": {
          "contentId": "To map to ethereum address to.",
          "isApproved": "Whitelist status to assign to address.",
          "target": "Address to add or remove from whitelist."
        }
      },
      "fillOrderIfWhitelisted((address,address,address,address,uint256,uint256,uint256,uint256,uint256,uint256,bytes,bytes),uint256,uint256,bytes)": {
        "details": "Fills an order using `msg.sender` as the taker.      The transaction will revert if both the maker and taker are not whitelisted.      Orders should specify this contract as the `senderAddress` in order to gaurantee      that both maker and taker have been whitelisted.",
        "params": {
          "order": "Order struct containing order specifications.",
          "orderSignature": "Proof that order has been created by maker.",
          "salt": "Arbitrary value to gaurantee uniqueness of 0x transaction hash.",
          "takerAssetFillAmount": "Desired amount of takerAsset to sell."
        }
      },
      "getContentIdsByAddress()": {
        "details": "Valid whitelisted address can query its own contentIds."
      },
      "isValidSignature(bytes32,address,bytes)": {
        "details": "Verifies signer is same as signer of current Ethereum transaction.      NOTE: This function can currently be used to validate signatures coming from outside of this contract.      Extra safety checks can be added for a production contract.",
        "params": {
          "signature": "Proof of signing.",
          "signerAddress": "Address that should have signed the given hash."
        },
        "return": "Validity of order signature."
      }
    }
  },
  "userdoc": {
    "methods": {}
  }
}