{
  "contractName": "Whitelist",
  "abi": [
    {
      "constant": true,
      "inputs": [
        {
          "name": "",
          "type": "address"
        }
      ],
      "name": "isWhitelisted",
      "outputs": [
        {
          "name": "",
          "type": "bool"
        }
      ],
      "payable": false,
      "stateMutability": "view",
      "type": "function"
    },
    {
      "constant": true,
      "inputs": [],
      "name": "paused",
      "outputs": [
        {
          "name": "",
          "type": "bool"
        }
      ],
      "payable": false,
      "stateMutability": "view",
      "type": "function"
    },
    {
      "constant": true,
      "inputs": [],
      "name": "owner",
      "outputs": [
        {
          "name": "",
          "type": "address"
        }
      ],
      "payable": false,
      "stateMutability": "view",
      "type": "function"
    },
    {
      "constant": false,
      "inputs": [
        {
          "name": "newOwner",
          "type": "address"
        }
      ],
      "name": "transferOwnership",
      "outputs": [],
      "payable": false,
      "stateMutability": "nonpayable",
      "type": "function"
    },
    {
      "inputs": [
        {
          "name": "_exchange",
          "type": "address"
        }
      ],
      "payable": false,
      "stateMutability": "nonpayable",
      "type": "constructor"
    },
    {
      "constant": false,
      "inputs": [
        {
          "name": "target",
          "type": "address"
        },
        {
          "name": "contentId",
          "type": "string"
        },
        {
          "name": "isApproved",
          "type": "bool"
        }
      ],
      "name": "adminUpdate",
      "outputs": [],
      "payable": false,
      "stateMutability": "nonpayable",
      "type": "function"
    },
    {
      "constant": false,
      "inputs": [
        {
          "name": "target",
          "type": "address"
        },
        {
          "name": "isApproved",
          "type": "bool"
        }
      ],
      "name": "adminUpdateWhitelistStatus",
      "outputs": [],
      "payable": false,
      "stateMutability": "nonpayable",
      "type": "function"
    },
    {
      "constant": false,
      "inputs": [
        {
          "name": "target",
          "type": "address"
        },
        {
          "name": "contentId",
          "type": "string"
        }
      ],
      "name": "adminRemoveContentIdFromAddress",
      "outputs": [],
      "payable": false,
      "stateMutability": "nonpayable",
      "type": "function"
    },
    {
      "constant": true,
      "inputs": [],
      "name": "adminGetRegistrantCount",
      "outputs": [
        {
          "name": "",
          "type": "uint256"
        }
      ],
      "payable": false,
      "stateMutability": "view",
      "type": "function"
    },
    {
      "constant": true,
      "inputs": [
        {
          "name": "index",
          "type": "uint256"
        }
      ],
      "name": "adminGetRegistrantByIndex",
      "outputs": [
        {
          "name": "",
          "type": "address"
        }
      ],
      "payable": false,
      "stateMutability": "view",
      "type": "function"
    },
    {
      "constant": true,
      "inputs": [
        {
          "name": "contentId",
          "type": "string"
        }
      ],
      "name": "adminGetAddressByContentId",
      "outputs": [
        {
          "name": "target",
          "type": "address"
        }
      ],
      "payable": false,
      "stateMutability": "view",
      "type": "function"
    },
    {
      "constant": true,
      "inputs": [
        {
          "name": "target",
          "type": "address"
        }
      ],
      "name": "adminGetContentIdsByAddress",
      "outputs": [
        {
          "name": "",
          "type": "string[]"
        }
      ],
      "payable": false,
      "stateMutability": "view",
      "type": "function"
    },
    {
      "constant": true,
      "inputs": [],
      "name": "getContentIdsByAddress",
      "outputs": [
        {
          "name": "",
          "type": "string[]"
        }
      ],
      "payable": false,
      "stateMutability": "view",
      "type": "function"
    },
    {
      "constant": false,
      "inputs": [
        {
          "name": "contentId",
          "type": "string"
        }
      ],
      "name": "removeContentIdFromAddress",
      "outputs": [],
      "payable": false,
      "stateMutability": "nonpayable",
      "type": "function"
    },
    {
      "constant": true,
      "inputs": [
        {
          "name": "hash",
          "type": "bytes32"
        },
        {
          "name": "signerAddress",
          "type": "address"
        },
        {
          "name": "signature",
          "type": "bytes"
        }
      ],
      "name": "isValidSignature",
      "outputs": [
        {
          "name": "isValid",
          "type": "bool"
        }
      ],
      "payable": false,
      "stateMutability": "view",
      "type": "function"
    },
    {
      "constant": false,
      "inputs": [
        {
          "components": [
            {
              "name": "makerAddress",
              "type": "address"
            },
            {
              "name": "takerAddress",
              "type": "address"
            },
            {
              "name": "feeRecipientAddress",
              "type": "address"
            },
            {
              "name": "senderAddress",
              "type": "address"
            },
            {
              "name": "makerAssetAmount",
              "type": "uint256"
            },
            {
              "name": "takerAssetAmount",
              "type": "uint256"
            },
            {
              "name": "makerFee",
              "type": "uint256"
            },
            {
              "name": "takerFee",
              "type": "uint256"
            },
            {
              "name": "expirationTimeSeconds",
              "type": "uint256"
            },
            {
              "name": "salt",
              "type": "uint256"
            },
            {
              "name": "makerAssetData",
              "type": "bytes"
            },
            {
              "name": "takerAssetData",
              "type": "bytes"
            }
          ],
          "name": "order",
          "type": "tuple"
        },
        {
          "name": "takerAssetFillAmount",
          "type": "uint256"
        },
        {
          "name": "salt",
          "type": "uint256"
        },
        {
          "name": "orderSignature",
          "type": "bytes"
        }
      ],
      "name": "fillOrderIfWhitelisted",
      "outputs": [],
      "payable": false,
      "stateMutability": "nonpayable",
      "type": "function"
    },
    {
      "constant": false,
      "inputs": [],
      "name": "pause",
      "outputs": [],
      "payable": false,
      "stateMutability": "nonpayable",
      "type": "function"
    },
    {
      "constant": false,
      "inputs": [],
      "name": "unpause",
      "outputs": [],
      "payable": false,
      "stateMutability": "nonpayable",
      "type": "function"
    },
    {
      "constant": true,
      "inputs": [
        {
          "name": "target",
          "type": "address"
        }
      ],
      "name": "hasRegistered",
      "outputs": [
        {
          "name": "",
          "type": "bool"
        }
      ],
      "payable": false,
      "stateMutability": "view",
      "type": "function"
    }
  ],
  "bytecode": "0x60806040526000600560006101000a81548160ff0219169083151502179055503480156200002c57600080fd5b506040516020806200383783398101806040526200004e9190810190620001f7565b336000806101000a81548173ffffffffffffffffffffffffffffffffffffffff021916908373ffffffffffffffffffffffffffffffffffffffff16021790555080600560016101000a81548173ffffffffffffffffffffffffffffffffffffffff021916908373ffffffffffffffffffffffffffffffffffffffff160217905550307f05000000000000000000000000000000000000000000000000000000000000006040516020016200010492919062000259565b604051602081830303815290604052600690805190602001906200012a92919062000132565b50506200035c565b828054600181600116156101000203166002900490600052602060002090601f016020900481019282601f106200017557805160ff1916838001178555620001a6565b82800160010185558215620001a6579182015b82811115620001a557825182559160200191906001019062000188565b5b509050620001b59190620001b9565b5090565b620001de91905b80821115620001da576000816000905550600101620001c0565b5090565b90565b6000620001ef8251620002e9565b905092915050565b6000602082840312156200020a57600080fd5b60006200021a84828501620001e1565b91505092915050565b62000238620002328262000289565b6200031d565b82525050565b620002536200024d826200029d565b62000331565b82525050565b600062000267828562000223565b6014820191506200027982846200023e565b6001820191508190509392505050565b60006200029682620002c9565b9050919050565b60007fff0000000000000000000000000000000000000000000000000000000000000082169050919050565b600073ffffffffffffffffffffffffffffffffffffffff82169050919050565b6000620002f682620002fd565b9050919050565b600073ffffffffffffffffffffffffffffffffffffffff82169050919050565b60006200032a826200033b565b9050919050565b6000819050919050565b600062000348826200034f565b9050919050565b60008160601b9050919050565b6134cb806200036c6000396000f3fe608060405234801561001057600080fd5b50600436106101165760003560e01c80638da5cb5b116100a2578063da50246011610071578063da502460146102e3578063de08679a146102ff578063ed5d0bcf1461031b578063f2fde38b14610337578063f5ccddcc1461035357610116565b80638da5cb5b14610247578063936347021461026557806396743b2614610295578063a0d03526146102b357610116565b806349816041116100e957806349816041146101a15780635c975abb146101d157806365d9abbb146101ef5780637b97d0341461020d5780638456cb591461023d57610116565b80630cb2da071461011b578063141da8761461014b5780633af32abf146101675780633f4ba83a14610197575b600080fd5b61013560048036036101309190810190612969565b61036f565b6040516101429190612fdb565b60405180910390f35b610165600480360361016091908101906128d6565b610443565b005b610181600480360361017c91908101906126d7565b610749565b60405161018e9190613018565b60405180910390f35b61019f610769565b005b6101bb60048036036101b691908101906126d7565b610832565b6040516101c89190612ff6565b60405180910390f35b6101d9610a94565b6040516101e69190613018565b60405180910390f35b6101f7610aa7565b6040516102049190612ff6565b60405180910390f35b61022760048036036102229190810190612891565b610d04565b6040516102349190612fdb565b60405180910390f35b610245610de0565b005b61024f610eaa565b60405161025c9190612fdb565b60405180910390f35b61027f600480360361027a9190810190612825565b610ecf565b60405161028c9190613018565b60405180910390f35b61029d61101a565b6040516102aa91906131b8565b60405180910390f35b6102cd60048036036102c891908101906126d7565b6110b8565b6040516102da9190613018565b60405180910390f35b6102fd60048036036102f89190810190612891565b611162565b005b6103196004803603610314919081019061273c565b6115e6565b005b610335600480360361033091908101906127a8565b61199f565b005b610351600480360361034c91908101906126d7565b611dde565b005b61036d60048036036103689190810190612700565b611ee9565b005b60008060009054906101000a900473ffffffffffffffffffffffffffffffffffffffff1673ffffffffffffffffffffffffffffffffffffffff163373ffffffffffffffffffffffffffffffffffffffff16141515610402576040517f08c379a00000000000000000000000000000000000000000000000000000000081526004016103f9906130f3565b60405180910390fd5b60018281548110151561041157fe5b9060005260206000200160009054906101000a900473ffffffffffffffffffffffffffffffffffffffff169050919050565b600560009054906101000a900460ff1615151561045f57600080fd5b60003390503273ffffffffffffffffffffffffffffffffffffffff168173ffffffffffffffffffffffffffffffffffffffff161415156104d4576040517f08c379a00000000000000000000000000000000000000000000000000000000081526004016104cb90613153565b60405180910390fd5b60026000866000015173ffffffffffffffffffffffffffffffffffffffff1673ffffffffffffffffffffffffffffffffffffffff16815260200190815260200160002060009054906101000a900460ff161515610566576040517f08c379a000000000000000000000000000000000000000000000000000000000815260040161055d90613133565b60405180910390fd5b600260008273ffffffffffffffffffffffffffffffffffffffff1673ffffffffffffffffffffffffffffffffffffffff16815260200190815260200160002060009054906101000a900460ff1615156105f4576040517f08c379a00000000000000000000000000000000000000000000000000000000081526004016105eb90613093565b60405180910390fd5b6060600560019054906101000a900473ffffffffffffffffffffffffffffffffffffffff1673ffffffffffffffffffffffffffffffffffffffff1663b4be83d5905060e01b86868560405160240161064e93929190613173565b604051602081830303815290604052907bffffffffffffffffffffffffffffffffffffffffffffffffffffffff19166020820180517bffffffffffffffffffffffffffffffffffffffffffffffffffffffff83818316178352505050509050600560019054906101000a900473ffffffffffffffffffffffffffffffffffffffff1673ffffffffffffffffffffffffffffffffffffffff1663bfc8bfce85848460066040518563ffffffff1660e01b815260040161070f94939291906131d3565b600060405180830381600087803b15801561072957600080fd5b505af115801561073d573d6000803e3d6000fd5b50505050505050505050565b60026020528060005260406000206000915054906101000a900460ff1681565b6000809054906101000a900473ffffffffffffffffffffffffffffffffffffffff1673ffffffffffffffffffffffffffffffffffffffff163373ffffffffffffffffffffffffffffffffffffffff161415156107fa576040517f08c379a00000000000000000000000000000000000000000000000000000000081526004016107f1906130f3565b60405180910390fd5b600560009054906101000a900460ff16151561081557600080fd5b6000600560006101000a81548160ff021916908315150217905550565b60606000809054906101000a900473ffffffffffffffffffffffffffffffffffffffff1673ffffffffffffffffffffffffffffffffffffffff163373ffffffffffffffffffffffffffffffffffffffff161415156108c5576040517f08c379a00000000000000000000000000000000000000000000000000000000081526004016108bc906130f3565b60405180910390fd5b6060600360008473ffffffffffffffffffffffffffffffffffffffff1673ffffffffffffffffffffffffffffffffffffffff168152602001908152602001600020805480602002602001604051908101604052809291908181526020016000905b828210156109f657838290600052602060002001604051806020016040529081600082018054600181600116156101000203166002900480601f0160208091040260200160405190810160405280929190818152602001828054600181600116156101000203166002900480156109de5780601f106109b3576101008083540402835291602001916109de565b820191906000526020600020905b8154815290600101906020018083116109c157829003601f168201915b50505050508152505081526020019060010190610926565b50505050905060608151604051908082528060200260200182016040528015610a3357816020015b6060815260200190600190039081610a1e5790505b50905060008090505b8251811015610a89578281815181101515610a5357fe5b90602001906020020151600001518282815181101515610a6f57fe5b906020019060200201819052508080600101915050610a3c565b508092505050919050565b600560009054906101000a900460ff1681565b6060600260003373ffffffffffffffffffffffffffffffffffffffff1673ffffffffffffffffffffffffffffffffffffffff16815260200190815260200160002060009054906101000a900460ff161515610b37576040517f08c379a0000000000000000000000000000000000000000000000000000000008152600401610b2e90613153565b60405180910390fd5b6060600360003373ffffffffffffffffffffffffffffffffffffffff1673ffffffffffffffffffffffffffffffffffffffff168152602001908152602001600020805480602002602001604051908101604052809291908181526020016000905b82821015610c6857838290600052602060002001604051806020016040529081600082018054600181600116156101000203166002900480601f016020809104026020016040519081016040528092919081815260200182805460018160011615610100020316600290048015610c505780601f10610c2557610100808354040283529160200191610c50565b820191906000526020600020905b815481529060010190602001808311610c3357829003601f168201915b50505050508152505081526020019060010190610b98565b50505050905060608151604051908082528060200260200182016040528015610ca557816020015b6060815260200190600190039081610c905790505b50905060008090505b8251811015610cfb578281815181101515610cc557fe5b90602001906020020151600001518282815181101515610ce157fe5b906020019060200201819052508080600101915050610cae565b50809250505090565b60008060009054906101000a900473ffffffffffffffffffffffffffffffffffffffff1673ffffffffffffffffffffffffffffffffffffffff163373ffffffffffffffffffffffffffffffffffffffff16141515610d97576040517f08c379a0000000000000000000000000000000000000000000000000000000008152600401610d8e906130f3565b60405180910390fd5b60048383604051610da9929190612fab565b908152602001604051809103902060009054906101000a900473ffffffffffffffffffffffffffffffffffffffff16905092915050565b6000809054906101000a900473ffffffffffffffffffffffffffffffffffffffff1673ffffffffffffffffffffffffffffffffffffffff163373ffffffffffffffffffffffffffffffffffffffff16141515610e71576040517f08c379a0000000000000000000000000000000000000000000000000000000008152600401610e68906130f3565b60405180910390fd5b600560009054906101000a900460ff16151515610e8d57600080fd5b6001600560006101000a81548160ff021916908315150217905550565b6000809054906101000a900473ffffffffffffffffffffffffffffffffffffffff1681565b6000600260008573ffffffffffffffffffffffffffffffffffffffff1673ffffffffffffffffffffffffffffffffffffffff16815260200190815260200160002060009054906101000a900460ff161515610f5f576040517f08c379a0000000000000000000000000000000000000000000000000000000008152600401610f5690613133565b60405180910390fd5b600560019054906101000a900473ffffffffffffffffffffffffffffffffffffffff1673ffffffffffffffffffffffffffffffffffffffff166393634702868686866040518563ffffffff1660e01b8152600401610fc09493929190613033565b60206040518083038186803b158015610fd857600080fd5b505afa158015610fec573d6000803e3d6000fd5b505050506040513d601f19601f8201168201806040525061101091908101906127fc565b9050949350505050565b60008060009054906101000a900473ffffffffffffffffffffffffffffffffffffffff1673ffffffffffffffffffffffffffffffffffffffff163373ffffffffffffffffffffffffffffffffffffffff161415156110ad576040517f08c379a00000000000000000000000000000000000000000000000000000000081526004016110a4906130f3565b60405180910390fd5b600180549050905090565b6000806000905060008090505b60018054905081101561115a578373ffffffffffffffffffffffffffffffffffffffff166001828154811015156110f857fe5b9060005260206000200160009054906101000a900473ffffffffffffffffffffffffffffffffffffffff1673ffffffffffffffffffffffffffffffffffffffff16141561114d5760019150819250505061115d565b80806001019150506110c5565b50505b919050565b600560009054906101000a900460ff1615151561117e57600080fd5b600260003373ffffffffffffffffffffffffffffffffffffffff1673ffffffffffffffffffffffffffffffffffffffff16815260200190815260200160002060009054906101000a900460ff16151561120c576040517f08c379a000000000000000000000000000000000000000000000000000000000815260040161120390613153565b60405180910390fd5b3373ffffffffffffffffffffffffffffffffffffffff1660048383604051611235929190612fab565b908152602001604051809103902060009054906101000a900473ffffffffffffffffffffffffffffffffffffffff1673ffffffffffffffffffffffffffffffffffffffff161415156112bc576040517f08c379a00000000000000000000000000000000000000000000000000000000081526004016112b390613073565b60405180910390fd5b6000600483836040516112d0929190612fab565b908152602001604051809103902060006101000a81548173ffffffffffffffffffffffffffffffffffffffff021916908373ffffffffffffffffffffffffffffffffffffffff1602179055506060600360003373ffffffffffffffffffffffffffffffffffffffff1673ffffffffffffffffffffffffffffffffffffffff168152602001908152602001600020805480602002602001604051908101604052809291908181526020016000905b8282101561144d57838290600052602060002001604051806020016040529081600082018054600181600116156101000203166002900480601f0160208091040260200160405190810160405280929190818152602001828054600181600116156101000203166002900480156114355780601f1061140a57610100808354040283529160200191611435565b820191906000526020600020905b81548152906001019060200180831161141857829003601f168201915b5050505050815250508152602001906001019061137d565b50505050905060008090505b8151811015611572576114cb84848080601f016020809104026020016040519081016040528093929190818152602001838380828437600081840152601f19601f8201169050808301925050505050505083838151811015156114b857fe5b90602001906020020151600001516120e5565b1561156557604051806020016040528060405180602001604052806000815250815250600360003373ffffffffffffffffffffffffffffffffffffffff1673ffffffffffffffffffffffffffffffffffffffff1681526020019081526020016000208281548110151561153a57fe5b9060005260206000200160008201518160000190805190602001906115609291906122e6565b509050505b8080600101915050611459565b50600061157e3361213e565b61ffff1614156115e1576000600260003373ffffffffffffffffffffffffffffffffffffffff1673ffffffffffffffffffffffffffffffffffffffff16815260200190815260200160002060006101000a81548160ff0219169083151502179055505b505050565b6000809054906101000a900473ffffffffffffffffffffffffffffffffffffffff1673ffffffffffffffffffffffffffffffffffffffff163373ffffffffffffffffffffffffffffffffffffffff16141515611677576040517f08c379a000000000000000000000000000000000000000000000000000000000815260040161166e906130f3565b60405180910390fd5b600560009054906101000a900460ff1615151561169357600080fd5b6000600484846040516116a7929190612fab565b908152602001604051809103902060009054906101000a900473ffffffffffffffffffffffffffffffffffffffff1690508473ffffffffffffffffffffffffffffffffffffffff168173ffffffffffffffffffffffffffffffffffffffff161415156118cb57600073ffffffffffffffffffffffffffffffffffffffff168173ffffffffffffffffffffffffffffffffffffffff16141515611792576117918185858080601f016020809104026020016040519081016040528093929190818152602001838380828437600081840152601f19601f8201169050808301925050505050505061199f565b5b600360008673ffffffffffffffffffffffffffffffffffffffff1673ffffffffffffffffffffffffffffffffffffffff168152602001908152602001600020604051806020016040528086868080601f016020809104026020016040519081016040528093929190818152602001838380828437600081840152601f19601f8201169050808301925050505050505081525090806001815401808255809150509060018203906000526020600020016000909192909190915060008201518160000190805190602001906118679291906122e6565b50505050846004858560405161187e929190612fab565b908152602001604051809103902060006101000a81548173ffffffffffffffffffffffffffffffffffffffff021916908373ffffffffffffffffffffffffffffffffffffffff1602179055505b6118d4856110b8565b15156119415760018590806001815401808255809150509060018203906000526020600020016000909192909190916101000a81548173ffffffffffffffffffffffffffffffffffffffff021916908373ffffffffffffffffffffffffffffffffffffffff160217905550505b81600260008773ffffffffffffffffffffffffffffffffffffffff1673ffffffffffffffffffffffffffffffffffffffff16815260200190815260200160002060006101000a81548160ff0219169083151502179055505050505050565b6000809054906101000a900473ffffffffffffffffffffffffffffffffffffffff1673ffffffffffffffffffffffffffffffffffffffff163373ffffffffffffffffffffffffffffffffffffffff16141515611a30576040517f08c379a0000000000000000000000000000000000000000000000000000000008152600401611a27906130f3565b60405180910390fd5b600560009054906101000a900460ff16151515611a4c57600080fd5b8173ffffffffffffffffffffffffffffffffffffffff16600482604051611a739190612fc4565b908152602001604051809103902060009054906101000a900473ffffffffffffffffffffffffffffffffffffffff1673ffffffffffffffffffffffffffffffffffffffff16141515611afa576040517f08c379a0000000000000000000000000000000000000000000000000000000008152600401611af190613113565b60405180910390fd5b6000600482604051611b0c9190612fc4565b908152602001604051809103902060006101000a81548173ffffffffffffffffffffffffffffffffffffffff021916908373ffffffffffffffffffffffffffffffffffffffff1602179055506060600360008473ffffffffffffffffffffffffffffffffffffffff1673ffffffffffffffffffffffffffffffffffffffff168152602001908152602001600020805480602002602001604051908101604052809291908181526020016000905b82821015611c8957838290600052602060002001604051806020016040529081600082018054600181600116156101000203166002900480601f016020809104026020016040519081016040528092919081815260200182805460018160011615610100020316600290048015611c715780601f10611c4657610100808354040283529160200191611c71565b820191906000526020600020905b815481529060010190602001808311611c5457829003601f168201915b50505050508152505081526020019060010190611bb9565b50505050905060008090505b8151811015611d6a57611cc3838383815181101515611cb057fe5b90602001906020020151600001516120e5565b15611d5d57604051806020016040528060405180602001604052806000815250815250600360008673ffffffffffffffffffffffffffffffffffffffff1673ffffffffffffffffffffffffffffffffffffffff16815260200190815260200160002082815481101515611d3257fe5b906000526020600020016000820151816000019080519060200190611d589291906122e6565b509050505b8080600101915050611c95565b506000611d768461213e565b61ffff161415611dd9576000600260008573ffffffffffffffffffffffffffffffffffffffff1673ffffffffffffffffffffffffffffffffffffffff16815260200190815260200160002060006101000a81548160ff0219169083151502179055505b505050565b6000809054906101000a900473ffffffffffffffffffffffffffffffffffffffff1673ffffffffffffffffffffffffffffffffffffffff163373ffffffffffffffffffffffffffffffffffffffff16141515611e6f576040517f08c379a0000000000000000000000000000000000000000000000000000000008152600401611e66906130f3565b60405180910390fd5b600073ffffffffffffffffffffffffffffffffffffffff168173ffffffffffffffffffffffffffffffffffffffff16141515611ee657806000806101000a81548173ffffffffffffffffffffffffffffffffffffffff021916908373ffffffffffffffffffffffffffffffffffffffff1602179055505b50565b6000809054906101000a900473ffffffffffffffffffffffffffffffffffffffff1673ffffffffffffffffffffffffffffffffffffffff163373ffffffffffffffffffffffffffffffffffffffff16141515611f7a576040517f08c379a0000000000000000000000000000000000000000000000000000000008152600401611f71906130f3565b60405180910390fd5b600560009054906101000a900460ff16151515611f9657600080fd5b600260008373ffffffffffffffffffffffffffffffffffffffff1673ffffffffffffffffffffffffffffffffffffffff16815260200190815260200160002060009054906101000a900460ff1615158115151415151561202b576040517f08c379a0000000000000000000000000000000000000000000000000000000008152600401612022906130b3565b60405180910390fd5b60011515811515141561208a5760006120438361213e565b61ffff16111515612089576040517f08c379a0000000000000000000000000000000000000000000000000000000008152600401612080906130d3565b60405180910390fd5b5b80600260008473ffffffffffffffffffffffffffffffffffffffff1673ffffffffffffffffffffffffffffffffffffffff16815260200190815260200160002060006101000a81548160ff0219169083151502179055505050565b6000816040516020016120f89190612fc4565b604051602081830303815290604052805190602001208360405160200161211f9190612fc4565b6040516020818303038152906040528051906020012014905092915050565b60006060600360008473ffffffffffffffffffffffffffffffffffffffff1673ffffffffffffffffffffffffffffffffffffffff168152602001908152602001600020805480602002602001604051908101604052809291908181526020016000905b8282101561227157838290600052602060002001604051806020016040529081600082018054600181600116156101000203166002900480601f0160208091040260200160405190810160405280929190818152602001828054600181600116156101000203166002900480156122595780601f1061222e57610100808354040283529160200191612259565b820191906000526020600020905b81548152906001019060200180831161223c57829003601f168201915b505050505081525050815260200190600101906121a1565b505050509050600080905060008090505b82518110156122db576122bf6040518060200160405280600081525084838151811015156122ac57fe5b90602001906020020151600001516120e5565b15156122ce5781806001019250505b8080600101915050612282565b508092505050919050565b828054600181600116156101000203166002900490600052602060002090601f016020900481019282601f1061232757805160ff1916838001178555612355565b82800160010185558215612355579182015b82811115612354578251825591602001919060010190612339565b5b5090506123629190612366565b5090565b61238891905b8082111561238457600081600090555060010161236c565b5090565b90565b600061239782356133ec565b905092915050565b60006123ab82356133fe565b905092915050565b60006123bf82516133fe565b905092915050565b60006123d3823561340a565b905092915050565b60008083601f84011215156123ef57600080fd5b8235905067ffffffffffffffff81111561240857600080fd5b60208301915083600182028301111561242057600080fd5b9250929050565b600082601f830112151561243a57600080fd5b813561244d61244882613253565b613226565b9150808252602083016020830185838301111561246957600080fd5b61247483828461343e565b50505092915050565b600082601f830112151561249057600080fd5b81356124a361249e8261327f565b613226565b915080825260208301602083018583830111156124bf57600080fd5b6124ca83828461343e565b50505092915050565b60008083601f84011215156124e757600080fd5b8235905067ffffffffffffffff81111561250057600080fd5b60208301915083600182028301111561251857600080fd5b9250929050565b600082601f830112151561253257600080fd5b8135612545612540826132ab565b613226565b9150808252602083016020830185838301111561256157600080fd5b61256c83828461343e565b50505092915050565b6000610180828403121561258857600080fd5b612593610180613226565b905060006125a38482850161238b565b60008301525060206125b78482850161238b565b60208301525060406125cb8482850161238b565b60408301525060606125df8482850161238b565b60608301525060806125f3848285016126c3565b60808301525060a0612607848285016126c3565b60a08301525060c061261b848285016126c3565b60c08301525060e061262f848285016126c3565b60e083015250610100612644848285016126c3565b6101008301525061012061265a848285016126c3565b6101208301525061014082013567ffffffffffffffff81111561267c57600080fd5b61268884828501612427565b6101408301525061016082013567ffffffffffffffff8111156126aa57600080fd5b6126b684828501612427565b6101608301525092915050565b60006126cf8235613434565b905092915050565b6000602082840312156126e957600080fd5b60006126f78482850161238b565b91505092915050565b6000806040838503121561271357600080fd5b60006127218582860161238b565b92505060206127328582860161239f565b9150509250929050565b6000806000806060858703121561275257600080fd5b60006127608782880161238b565b945050602085013567ffffffffffffffff81111561277d57600080fd5b612789878288016124d3565b9350935050604061279c8782880161239f565b91505092959194509250565b600080604083850312156127bb57600080fd5b60006127c98582860161238b565b925050602083013567ffffffffffffffff8111156127e657600080fd5b6127f28582860161251f565b9150509250929050565b60006020828403121561280e57600080fd5b600061281c848285016123b3565b91505092915050565b6000806000806060858703121561283b57600080fd5b6000612849878288016123c7565b945050602061285a8782880161238b565b935050604085013567ffffffffffffffff81111561287757600080fd5b612883878288016123db565b925092505092959194509250565b600080602083850312156128a457600080fd5b600083013567ffffffffffffffff8111156128be57600080fd5b6128ca858286016124d3565b92509250509250929050565b600080600080608085870312156128ec57600080fd5b600085013567ffffffffffffffff81111561290657600080fd5b61291287828801612575565b9450506020612923878288016126c3565b9350506040612934878288016126c3565b925050606085013567ffffffffffffffff81111561295157600080fd5b61295d8782880161247d565b91505092959194509250565b60006020828403121561297b57600080fd5b6000612989848285016126c3565b91505092915050565b600061299e8383612bd7565b905092915050565b6129af8161339a565b82525050565b6129be8161339a565b82525050565b60006129cf826132f6565b6129d9818561333a565b9350836020820285016129eb856132d7565b60005b84811015612a24578383038852612a06838351612992565b9250612a118261332d565b91506020880197506001810190506129ee565b508196508694505050505092915050565b612a3e816133ac565b82525050565b612a4d816133b8565b82525050565b6000612a5f838561335c565b9350612a6c83858461343e565b612a7583613480565b840190509392505050565b6000612a8b8261330c565b612a95818561335c565b9350612aa581856020860161344d565b612aae81613480565b840191505092915050565b6000612ac482613301565b612ace818561334b565b9350612ade81856020860161344d565b612ae781613480565b840191505092915050565b600081546001811660008114612b0f5760018114612b3557612b79565b607f6002830416612b20818761335c565b955060ff198316865260208601935050612b79565b60028204612b43818761335c565b9550612b4e856132e4565b60005b82811015612b7057815481890152600182019150602081019050612b51565b80880195505050505b505092915050565b6000612b8d838561338f565b9350612b9a83858461343e565b82840190509392505050565b6000612bb182613322565b612bbb818561338f565b9350612bcb81856020860161344d565b80840191505092915050565b6000612be282613317565b612bec818561336d565b9350612bfc81856020860161344d565b612c0581613480565b840191505092915050565b6000612c1d60248361337e565b91507f434f4e54454e545f49445f444f45535f4e4f545f42454c4f4e475f544f5f534560008301527f4e444552000000000000000000000000000000000000000000000000000000006020830152604082019050919050565b6000612c8360158361337e565b91507f54414b45525f4e4f545f57484954454c495354454400000000000000000000006000830152602082019050919050565b6000612cc360198361337e565b91507f4e4f5f5354415455535f5550444154455f5245515549524544000000000000006000830152602082019050919050565b6000612d0360258361337e565b91507f414444524553535f4841535f4e4f5f4153534f4349415445445f434f4e54454e60008301527f545f4944530000000000000000000000000000000000000000000000000000006020830152604082019050919050565b6000612d6960138361337e565b91507f4f4e4c595f434f4e54524143545f4f574e4552000000000000000000000000006000830152602082019050919050565b6000612da960258361337e565b91507f434f4e54454e545f49445f444f45535f4e4f545f42454c4f4e475f544f5f414460008301527f44524553530000000000000000000000000000000000000000000000000000006020830152604082019050919050565b6000612e0f60158361337e565b91507f4d414b45525f4e4f545f57484954454c495354454400000000000000000000006000830152602082019050919050565b6000612e4f600e8361337e565b91507f494e56414c49445f53454e4445520000000000000000000000000000000000006000830152602082019050919050565b600061018083016000830151612e9b60008601826129a6565b506020830151612eae60208601826129a6565b506040830151612ec160408601826129a6565b506060830151612ed460608601826129a6565b506080830151612ee76080860182612f8d565b5060a0830151612efa60a0860182612f8d565b5060c0830151612f0d60c0860182612f8d565b5060e0830151612f2060e0860182612f8d565b50610100830151612f35610100860182612f8d565b50610120830151612f4a610120860182612f8d565b50610140830151848203610140860152612f648282612ab9565b915050610160830151848203610160860152612f808282612ab9565b9150508091505092915050565b612f96816133e2565b82525050565b612fa5816133e2565b82525050565b6000612fb8828486612b81565b91508190509392505050565b6000612fd08284612ba6565b915081905092915050565b6000602082019050612ff060008301846129b5565b92915050565b6000602082019050818103600083015261301081846129c4565b905092915050565b600060208201905061302d6000830184612a35565b92915050565b60006060820190506130486000830187612a44565b61305560208301866129b5565b8181036040830152613068818486612a53565b905095945050505050565b6000602082019050818103600083015261308c81612c10565b9050919050565b600060208201905081810360008301526130ac81612c76565b9050919050565b600060208201905081810360008301526130cc81612cb6565b9050919050565b600060208201905081810360008301526130ec81612cf6565b9050919050565b6000602082019050818103600083015261310c81612d5c565b9050919050565b6000602082019050818103600083015261312c81612d9c565b9050919050565b6000602082019050818103600083015261314c81612e02565b9050919050565b6000602082019050818103600083015261316c81612e42565b9050919050565b6000606082019050818103600083015261318d8186612e82565b905061319c6020830185612f9c565b81810360408301526131ae8184612a80565b9050949350505050565b60006020820190506131cd6000830184612f9c565b92915050565b60006080820190506131e86000830187612f9c565b6131f560208301866129b5565b81810360408301526132078185612a80565b9050818103606083015261321b8184612af2565b905095945050505050565b6000604051905081810181811067ffffffffffffffff8211171561324957600080fd5b8060405250919050565b600067ffffffffffffffff82111561326a57600080fd5b601f19601f8301169050602081019050919050565b600067ffffffffffffffff82111561329657600080fd5b601f19601f8301169050602081019050919050565b600067ffffffffffffffff8211156132c257600080fd5b601f19601f8301169050602081019050919050565b6000602082019050919050565b60008160005260206000209050919050565b600081519050919050565b600081519050919050565b600081519050919050565b600081519050919050565b600081519050919050565b6000602082019050919050565b600082825260208201905092915050565b600082825260208201905092915050565b600082825260208201905092915050565b600082825260208201905092915050565b600082825260208201905092915050565b600081905092915050565b60006133a5826133c2565b9050919050565b60008115159050919050565b6000819050919050565b600073ffffffffffffffffffffffffffffffffffffffff82169050919050565b6000819050919050565b60006133f782613414565b9050919050565b60008115159050919050565b6000819050919050565b600073ffffffffffffffffffffffffffffffffffffffff82169050919050565b6000819050919050565b82818337600083830152505050565b60005b8381101561346b578082015181840152602081019050613450565b8381111561347a576000848401525b50505050565b6000601f19601f830116905091905056fea265627a7a72305820c01a45e2b505d0d17d8cc9daf24eb4e9bff82926c3d1703fcf639cec83c87a666c6578706572696d656e74616cf50037",
  "source": "/*\n\n  Copyright 2019 Niche Networks, Inc. (owns & operates Microsponsors.io)\n  This work has been modified for use by Microsponsors.io\n  This derivative work is licensed under the Apache License, Version 2.0\n  Original license notice below:\n\n  Copyright 2018 ZeroEx Intl.\n\n  Licensed under the Apache License, Version 2.0 (the \"License\");\n  you may not use this file except in compliance with the License.\n  You may obtain a copy of the License at\n\n    http://www.apache.org/licenses/LICENSE-2.0\n\n  Unless required by applicable law or agreed to in writing, software\n  distributed under the License is distributed on an \"AS IS\" BASIS,\n  WITHOUT WARRANTIES OR CONDITIONS OF ANY KIND, either express or implied.\n  See the License for the specific language governing permissions and\n  limitations under the License.\n\n*/\n\npragma solidity ^0.5.5;\npragma experimental ABIEncoderV2;\n\nimport \"./IExchange.sol\";\nimport \"@0x/contracts-exchange-libs/contracts/src/LibOrder.sol\";\nimport \"@0x/contracts-utils/contracts/src/Ownable.sol\";\n\n\ncontract Whitelist is\n    Ownable\n{\n\n\n    /***  Microsponsors Registry Data:  ***/\n\n\n    // Array of registrant addresses,\n    // regardless of isWhitelisted status\n    address[] private registrants;\n\n    // Map address => whitelist status.\n    // Addresses authorized to transact.\n    mapping (address => bool) public isWhitelisted;\n\n    // Map address => array of ContentId structs.\n    // Using struct because there is not mapping to an array of strings in Solidity at this time.\n    struct ContentIdStruct {\n        string contentId;\n    }\n    mapping (address => ContentIdStruct[]) private addressToContentIds;\n\n    // Map contentId => address (for reverse-lookups)\n    mapping (string => address) private contentIdToAddress;\n\n    // Pause. When true, Registry state updates and 0x order fills are blocked.\n    bool public paused = false;\n\n\n    /***  0x Exchange Details:  ***/\n\n\n    // 0x Exchange contract.\n    // solhint-disable var-name-mixedcase\n    IExchange internal EXCHANGE;\n    bytes internal TX_ORIGIN_SIGNATURE;\n    // solhint-enable var-name-mixedcase\n\n    byte constant internal VALIDATOR_SIGNATURE_BYTE = \"\\x05\";\n\n\n    /***  Constructor  ***/\n\n    /// @param _exchange 0x Exchange contract address to direct order fills to\n    constructor (address _exchange)\n        public\n    {\n        EXCHANGE = IExchange(_exchange);\n        TX_ORIGIN_SIGNATURE = abi.encodePacked(address(this), VALIDATOR_SIGNATURE_BYTE);\n    }\n\n\n    /***  Admin functions (onlyOwner) that mutate contract state  ***/\n\n\n    /// @dev Admin registers an address with a contentId.\n    /// @param target Address to add or remove from whitelist.\n    /// @param contentId To map the address to. Hex-encoded UTF8 string.\n    /// @param isApproved Whitelist status to assign to the address.\n    function adminUpdate(\n        address target,\n        string calldata contentId,\n        bool isApproved\n    )\n        external\n        onlyOwner\n        whenNotPaused\n    {\n\n        address previousOwner = contentIdToAddress[contentId];\n\n        if (previousOwner != target) {\n\n            // If contentId already belongs to another owner address\n            // it must be explicitly removed by admin remove fn\n            // which will also remove that address from whitelist\n            // if this was its only contentId\n            if (previousOwner != 0x0000000000000000000000000000000000000000) {\n                adminRemoveContentIdFromAddress(previousOwner, contentId);\n            }\n\n            // Assign content id to new registrant address\n            addressToContentIds[target].push( ContentIdStruct(contentId) );\n            contentIdToAddress[contentId] = target;\n\n        }\n\n        if (!hasRegistered(target)) {\n            registrants.push(target);\n        }\n\n        isWhitelisted[target] = isApproved;\n\n    }\n\n\n    /// @dev Admin updates whitelist status for a given address.\n    /// @param target Address to update.\n    /// @param isApproved Whitelist status to assign to address.\n    function adminUpdateWhitelistStatus(\n        address target,\n        bool isApproved\n    )\n        external\n        onlyOwner\n        whenNotPaused\n    {\n\n        // Revert transaction (refund gas) if\n        // the requested whitelist status update is redundant\n        require(\n            isApproved != isWhitelisted[target],\n            'NO_STATUS_UPDATE_REQUIRED'\n        );\n\n        // Disallow users with no associated content ids\n        // (ex: admin or user themselves may have removed content ids)\n        if (isApproved == true) {\n            require(\n                getNumContentIds(target) > 0,\n                'ADDRESS_HAS_NO_ASSOCIATED_CONTENT_IDS'\n            );\n        }\n\n        isWhitelisted[target] = isApproved;\n\n    }\n\n    /// @dev Admin removes a contentId from a given address.\n    function adminRemoveContentIdFromAddress(\n        address target,\n        string memory contentId\n    )\n        public\n        onlyOwner\n        whenNotPaused\n    {\n\n        require(\n            contentIdToAddress[contentId] == target,\n            'CONTENT_ID_DOES_NOT_BELONG_TO_ADDRESS'\n        );\n\n        contentIdToAddress[contentId] = address(0x0000000000000000000000000000000000000000);\n\n        // Remove content id from addressToContentIds mapping\n        // by replacing it with empty string\n        ContentIdStruct[] memory m = addressToContentIds[target];\n        for (uint i = 0; i < m.length; i++) {\n            if (stringsMatch(contentId, m[i].contentId)) {\n                addressToContentIds[target][i] = ContentIdStruct('');\n            }\n        }\n\n        // If address has no valid content ids left, remove from Whitelist\n        if (getNumContentIds(target) == 0) {\n            isWhitelisted[target] = false;\n        }\n\n    }\n\n\n    /*** Admin read-only functions ***/\n\n\n    function adminGetRegistrantCount ()\n        external\n        view\n        onlyOwner\n        returns (uint)\n    {\n\n        return registrants.length;\n\n    }\n\n    function adminGetRegistrantByIndex (\n        uint index\n    )\n        external\n        view\n        onlyOwner\n        returns (address)\n    {\n\n        // Will throw error if specified index does not exist\n        return registrants[index];\n\n    }\n\n\n    function adminGetAddressByContentId(\n        string calldata contentId\n    )\n        external\n        view\n        onlyOwner\n        returns (address target)\n    {\n\n        return contentIdToAddress[contentId];\n\n    }\n\n\n    /// @dev Admin gets contentIds mapped to a valid whitelisted address.\n    /// @param target Ethereum address to validate & return contentIds for.\n    function adminGetContentIdsByAddress(\n        address target\n    )\n        external\n        view\n        onlyOwner\n        returns (string[] memory)\n    {\n\n        ContentIdStruct[] memory m = addressToContentIds[target];\n        string[] memory r = new string[](m.length);\n\n        for (uint i = 0; i < m.length; i++) {\n            r[i] =  m[i].contentId;\n        }\n\n        return r;\n\n    }\n\n\n    /*** User-facing functions ***/\n\n\n    /// @dev Valid whitelisted address can query its own contentIds.\n    function getContentIdsByAddress()\n        external\n        view\n        returns (string[] memory)\n    {\n\n        require(\n            isWhitelisted[msg.sender],\n            'INVALID_SENDER'\n        );\n\n        ContentIdStruct[] memory m = addressToContentIds[msg.sender];\n        string[] memory r = new string[](m.length);\n\n        for (uint i = 0; i < m.length; i++) {\n            r[i] =  m[i].contentId;\n        }\n\n        return r;\n\n    }\n\n\n    /// @dev Valid whitelisted address can remove its own content id.\n    function removeContentIdFromAddress(\n        string calldata contentId\n    )\n        external\n        whenNotPaused\n    {\n\n        require(\n            isWhitelisted[msg.sender],\n            'INVALID_SENDER'\n        );\n\n        require(\n            contentIdToAddress[contentId] == msg.sender,\n            'CONTENT_ID_DOES_NOT_BELONG_TO_SENDER'\n        );\n\n        contentIdToAddress[contentId] = address(0x0000000000000000000000000000000000000000);\n\n        // Remove content id from addressToContentIds mapping\n        // by replacing it with empty string\n        ContentIdStruct[] memory m = addressToContentIds[msg.sender];\n        for (uint i = 0; i < m.length; i++) {\n            if (stringsMatch(contentId, m[i].contentId)) {\n                addressToContentIds[msg.sender][i] = ContentIdStruct('');\n            }\n        }\n\n        // If address has no valid content ids left, remove from Whitelist\n        if (getNumContentIds(msg.sender) == 0) {\n            isWhitelisted[msg.sender] = false;\n        }\n\n    }\n\n\n    /*** Transaction validation & Execution ***/\n\n    /// @param hash Message hash that is signed.\n    /// @param signerAddress Address that should have signed the given hash.\n    /// @param signature Proof of signing.\n    /// @return Validity of order signature.\n    // solhint-disable no-unused-vars\n    function isValidSignature(\n        bytes32 hash,\n        address signerAddress,\n        bytes calldata signature\n    )\n        external\n        view\n        returns (bool isValid)\n    {\n\n        // Check if signer is on the whitelist.\n        require(\n            isWhitelisted[signerAddress],\n            \"MAKER_NOT_WHITELISTED\"\n        );\n\n        return EXCHANGE.isValidSignature(hash, signerAddress, signature);\n\n    }\n    // solhint-enable no-unused-vars\n\n    /// @dev Fills an order using `msg.sender` as the taker.\n    ///      The transaction will revert if both the maker and taker are not whitelisted.\n    ///      Orders should specify this contract as the `senderAddress` in order to gaurantee\n    ///      that both maker and taker have been whitelisted.\n    /// @param order Order struct containing order specifications.\n    /// @param takerAssetFillAmount Desired amount of takerAsset to sell.\n    /// @param salt Arbitrary value to gaurantee uniqueness of 0x transaction hash.\n    /// @param orderSignature Proof that order has been created by maker.\n    function fillOrderIfWhitelisted(\n        LibOrder.Order memory order,\n        uint256 takerAssetFillAmount,\n        uint256 salt,\n        bytes memory orderSignature\n    )\n        public\n        whenNotPaused\n    {\n        address takerAddress = msg.sender;\n\n        // This contract must be the entry point for the transaction.\n        require(\n            // solhint-disable-next-line avoid-tx-origin\n            takerAddress == tx.origin,\n            \"INVALID_SENDER\"\n        );\n\n        // Check if maker is on the whitelist.\n        require(\n            isWhitelisted[order.makerAddress],\n            \"MAKER_NOT_WHITELISTED\"\n        );\n\n        // Check if taker is on the whitelist.\n        require(\n            isWhitelisted[takerAddress],\n            \"TAKER_NOT_WHITELISTED\"\n        );\n\n        // Encode arguments into byte array.\n        bytes memory data = abi.encodeWithSelector(\n            EXCHANGE.fillOrder.selector,\n            order,\n            takerAssetFillAmount,\n            orderSignature\n        );\n\n        // Call `fillOrder` via `executeTransaction`.\n        EXCHANGE.executeTransaction(\n            salt,\n            takerAddress,\n            data,\n            TX_ORIGIN_SIGNATURE\n        );\n    }\n\n\n    /*** Pausable adapted from OpenZeppelin via Cryptokitties ***/\n\n\n    /// @dev Modifier to allow actions only when the contract IS NOT paused\n    modifier whenNotPaused() {\n        require(!paused);\n        _;\n    }\n\n    /// @dev Modifier to allow actions only when the contract IS paused\n    modifier whenPaused {\n        require(paused);\n        _;\n    }\n\n    /// @dev Called by contract owner to pause actions on this contract\n    function pause() external onlyOwner whenNotPaused {\n        paused = true;\n    }\n\n    /// @dev Called by contract owner to unpause the smart contract.\n    /// @notice This is public rather than external so it can be called by\n    ///  derived contracts.\n    function unpause() public onlyOwner whenPaused {\n        // can't unpause if contract was upgraded\n        paused = false;\n    }\n\n\n    /***  Helpers  ***/\n\n\n    function hasRegistered (\n        address target\n    )\n        public\n        view\n        returns(bool)\n    {\n\n        bool _hasRegistered = false;\n        for (uint i=0; i<registrants.length; i++) {\n            if (registrants[i] == target) {\n                return _hasRegistered = true;\n            }\n        }\n\n    }\n\n\n    function stringsMatch (\n        string memory a,\n        string memory b\n    )\n        private\n        pure\n        returns (bool)\n    {\n        return (keccak256(abi.encodePacked((a))) == keccak256(abi.encodePacked((b))) );\n    }\n\n\n    function getNumContentIds (\n        address target\n    )\n        private\n        view\n        returns (uint16)\n    {\n\n        ContentIdStruct[] memory m = addressToContentIds[target];\n        uint16 counter = 0;\n        for (uint i = 0; i < m.length; i++) {\n            // Omit entries that are empty strings\n            // (from contentIds that were removed by admin or user)\n            if (!stringsMatch('', m[i].contentId)) {\n                counter++;\n            }\n        }\n\n        return counter;\n\n    }\n\n\n}\n",
  "sourcePath": "/Users/lauren/github/registry-contract/contracts/Whitelist.sol",
  "compiler": {
    "name": "solc",
    "version": "0.5.5+commit.47a71e8f.Emscripten.clang"
  },
  "schemaVersion": "3.0.10",
  "updatedAt": "2019-08-26T20:06:54.373Z",
  "devdoc": {
    "methods": {
      "adminGetContentIdsByAddress(address)": {
        "details": "Admin gets contentIds mapped to a valid whitelisted address.",
        "params": {
          "target": "Ethereum address to validate & return contentIds for."
        }
      },
      "adminRemoveContentIdFromAddress(address,string)": {
        "details": "Admin removes a contentId from a given address."
      },
      "adminUpdate(address,string,bool)": {
        "details": "Admin registers an address with a contentId.",
        "params": {
          "contentId": "To map the address to. Hex-encoded UTF8 string.",
          "isApproved": "Whitelist status to assign to the address.",
          "target": "Address to add or remove from whitelist."
        }
      },
      "adminUpdateWhitelistStatus(address,bool)": {
        "details": "Admin updates whitelist status for a given address.",
        "params": {
          "isApproved": "Whitelist status to assign to address.",
          "target": "Address to update."
        }
      },
      "constructor": {
        "params": {
          "_exchange": "0x Exchange contract address to direct order fills to"
        }
      },
      "fillOrderIfWhitelisted((address,address,address,address,uint256,uint256,uint256,uint256,uint256,uint256,bytes,bytes),uint256,uint256,bytes)": {
        "details": "Fills an order using `msg.sender` as the taker.      The transaction will revert if both the maker and taker are not whitelisted.      Orders should specify this contract as the `senderAddress` in order to gaurantee      that both maker and taker have been whitelisted.",
        "params": {
          "order": "Order struct containing order specifications.",
          "orderSignature": "Proof that order has been created by maker.",
          "salt": "Arbitrary value to gaurantee uniqueness of 0x transaction hash.",
          "takerAssetFillAmount": "Desired amount of takerAsset to sell."
        }
      },
      "getContentIdsByAddress()": {
        "details": "Valid whitelisted address can query its own contentIds."
      },
      "isValidSignature(bytes32,address,bytes)": {
        "params": {
          "hash": "Message hash that is signed.",
          "signature": "Proof of signing.",
          "signerAddress": "Address that should have signed the given hash."
        },
        "return": "Validity of order signature."
      },
      "pause()": {
        "details": "Called by contract owner to pause actions on this contract"
      },
      "removeContentIdFromAddress(string)": {
        "details": "Valid whitelisted address can remove its own content id."
      },
      "unpause()": {
        "details": "Called by contract owner to unpause the smart contract."
      }
    }
  },
  "userdoc": {
    "methods": {
      "adminGetRegistrantCount()": {
        "notice": "* Admin read-only functions **"
      },
      "hasRegistered(address)": {
        "notice": "*  Helpers  **"
      },
      "unpause()": {
        "notice": "This is public rather than external so it can be called by  derived contracts."
      }
    }
  }
}